{
  "contractName": "nAnimals",
  "abi": [
    {
      "inputs": [
        {
          "internalType": "string",
          "name": "_initBaseURI",
          "type": "string"
        }
      ],
      "stateMutability": "nonpayable",
      "type": "constructor"
    },
    {
      "anonymous": false,
      "inputs": [
        {
          "indexed": true,
          "internalType": "address",
          "name": "owner",
          "type": "address"
        },
        {
          "indexed": true,
          "internalType": "address",
          "name": "approved",
          "type": "address"
        },
        {
          "indexed": true,
          "internalType": "uint256",
          "name": "tokenId",
          "type": "uint256"
        }
      ],
      "name": "Approval",
      "type": "event"
    },
    {
      "anonymous": false,
      "inputs": [
        {
          "indexed": true,
          "internalType": "address",
          "name": "owner",
          "type": "address"
        },
        {
          "indexed": true,
          "internalType": "address",
          "name": "operator",
          "type": "address"
        },
        {
          "indexed": false,
          "internalType": "bool",
          "name": "approved",
          "type": "bool"
        }
      ],
      "name": "ApprovalForAll",
      "type": "event"
    },
    {
      "anonymous": false,
      "inputs": [
        {
          "indexed": true,
          "internalType": "address",
          "name": "previousOwner",
          "type": "address"
        },
        {
          "indexed": true,
          "internalType": "address",
          "name": "newOwner",
          "type": "address"
        }
      ],
      "name": "OwnershipTransferred",
      "type": "event"
    },
    {
      "anonymous": false,
      "inputs": [
        {
          "indexed": true,
          "internalType": "address",
          "name": "from",
          "type": "address"
        },
        {
          "indexed": true,
          "internalType": "address",
          "name": "to",
          "type": "address"
        },
        {
          "indexed": true,
          "internalType": "uint256",
          "name": "tokenId",
          "type": "uint256"
        }
      ],
      "name": "Transfer",
      "type": "event"
    },
    {
      "inputs": [
        {
          "internalType": "address",
          "name": "to",
          "type": "address"
        },
        {
          "internalType": "uint256",
          "name": "tokenId",
          "type": "uint256"
        }
      ],
      "name": "approve",
      "outputs": [],
      "stateMutability": "nonpayable",
      "type": "function"
    },
    {
      "inputs": [
        {
          "internalType": "address",
          "name": "owner",
          "type": "address"
        }
      ],
      "name": "balanceOf",
      "outputs": [
        {
          "internalType": "uint256",
          "name": "",
          "type": "uint256"
        }
      ],
      "stateMutability": "view",
      "type": "function",
      "constant": true
    },
    {
      "inputs": [],
      "name": "baseURI",
      "outputs": [
        {
          "internalType": "string",
          "name": "",
          "type": "string"
        }
      ],
      "stateMutability": "view",
      "type": "function",
      "constant": true
    },
    {
      "inputs": [],
      "name": "contractAddress",
      "outputs": [
        {
          "internalType": "address",
          "name": "",
          "type": "address"
        }
      ],
      "stateMutability": "view",
      "type": "function",
      "constant": true
    },
    {
      "inputs": [
        {
          "internalType": "uint256",
          "name": "tokenId",
          "type": "uint256"
        }
      ],
      "name": "getApproved",
      "outputs": [
        {
          "internalType": "address",
          "name": "",
          "type": "address"
        }
      ],
      "stateMutability": "view",
      "type": "function",
      "constant": true
    },
    {
      "inputs": [
        {
          "internalType": "address",
          "name": "owner",
          "type": "address"
        },
        {
          "internalType": "address",
          "name": "operator",
          "type": "address"
        }
      ],
      "name": "isApprovedForAll",
      "outputs": [
        {
          "internalType": "bool",
          "name": "",
          "type": "bool"
        }
      ],
      "stateMutability": "view",
      "type": "function",
      "constant": true
    },
    {
      "inputs": [],
      "name": "maxMintQuantity",
      "outputs": [
        {
          "internalType": "uint256",
          "name": "",
          "type": "uint256"
        }
      ],
      "stateMutability": "view",
      "type": "function",
      "constant": true
    },
    {
      "inputs": [],
      "name": "maxMintSupply",
      "outputs": [
        {
          "internalType": "uint256",
          "name": "",
          "type": "uint256"
        }
      ],
      "stateMutability": "view",
      "type": "function",
      "constant": true
    },
    {
      "inputs": [],
      "name": "mintPrice",
      "outputs": [
        {
          "internalType": "uint256",
          "name": "",
          "type": "uint256"
        }
      ],
      "stateMutability": "view",
      "type": "function",
      "constant": true
    },
    {
      "inputs": [],
      "name": "name",
      "outputs": [
        {
          "internalType": "string",
          "name": "",
          "type": "string"
        }
      ],
      "stateMutability": "view",
      "type": "function",
      "constant": true
    },
    {
      "inputs": [],
      "name": "owner",
      "outputs": [
        {
          "internalType": "address",
          "name": "",
          "type": "address"
        }
      ],
      "stateMutability": "view",
      "type": "function",
      "constant": true
    },
    {
      "inputs": [
        {
          "internalType": "uint256",
          "name": "tokenId",
          "type": "uint256"
        }
      ],
      "name": "ownerOf",
      "outputs": [
        {
          "internalType": "address",
          "name": "",
          "type": "address"
        }
      ],
      "stateMutability": "view",
      "type": "function",
      "constant": true
    },
    {
      "inputs": [],
      "name": "paused",
      "outputs": [
        {
          "internalType": "bool",
          "name": "",
          "type": "bool"
        }
      ],
      "stateMutability": "view",
      "type": "function",
      "constant": true
    },
    {
      "inputs": [],
      "name": "renounceOwnership",
      "outputs": [],
      "stateMutability": "nonpayable",
      "type": "function"
    },
    {
      "inputs": [
        {
          "internalType": "address",
          "name": "from",
          "type": "address"
        },
        {
          "internalType": "address",
          "name": "to",
          "type": "address"
        },
        {
          "internalType": "uint256",
          "name": "tokenId",
          "type": "uint256"
        }
      ],
      "name": "safeTransferFrom",
      "outputs": [],
      "stateMutability": "nonpayable",
      "type": "function"
    },
    {
      "inputs": [
        {
          "internalType": "address",
          "name": "from",
          "type": "address"
        },
        {
          "internalType": "address",
          "name": "to",
          "type": "address"
        },
        {
          "internalType": "uint256",
          "name": "tokenId",
          "type": "uint256"
        },
        {
          "internalType": "bytes",
          "name": "_data",
          "type": "bytes"
        }
      ],
      "name": "safeTransferFrom",
      "outputs": [],
      "stateMutability": "nonpayable",
      "type": "function"
    },
    {
      "inputs": [
        {
          "internalType": "address",
          "name": "operator",
          "type": "address"
        },
        {
          "internalType": "bool",
          "name": "approved",
          "type": "bool"
        }
      ],
      "name": "setApprovalForAll",
      "outputs": [],
      "stateMutability": "nonpayable",
      "type": "function"
    },
    {
      "inputs": [],
      "name": "symbol",
      "outputs": [
        {
          "internalType": "string",
          "name": "",
          "type": "string"
        }
      ],
      "stateMutability": "view",
      "type": "function",
      "constant": true
    },
    {
      "inputs": [
        {
          "internalType": "uint256",
          "name": "index",
          "type": "uint256"
        }
      ],
      "name": "tokenByIndex",
      "outputs": [
        {
          "internalType": "uint256",
          "name": "",
          "type": "uint256"
        }
      ],
      "stateMutability": "view",
      "type": "function",
      "constant": true
    },
    {
      "inputs": [
        {
          "internalType": "address",
          "name": "owner",
          "type": "address"
        },
        {
          "internalType": "uint256",
          "name": "index",
          "type": "uint256"
        }
      ],
      "name": "tokenOfOwnerByIndex",
      "outputs": [
        {
          "internalType": "uint256",
          "name": "",
          "type": "uint256"
        }
      ],
      "stateMutability": "view",
      "type": "function",
      "constant": true
    },
    {
      "inputs": [],
      "name": "totalSupply",
      "outputs": [
        {
          "internalType": "uint256",
          "name": "",
          "type": "uint256"
        }
      ],
      "stateMutability": "view",
      "type": "function",
      "constant": true
    },
    {
      "inputs": [
        {
          "internalType": "address",
          "name": "from",
          "type": "address"
        },
        {
          "internalType": "address",
          "name": "to",
          "type": "address"
        },
        {
          "internalType": "uint256",
          "name": "tokenId",
          "type": "uint256"
        }
      ],
      "name": "transferFrom",
      "outputs": [],
      "stateMutability": "nonpayable",
      "type": "function"
    },
    {
      "inputs": [
        {
          "internalType": "address",
          "name": "newOwner",
          "type": "address"
        }
      ],
      "name": "transferOwnership",
      "outputs": [],
      "stateMutability": "nonpayable",
      "type": "function"
    },
    {
      "inputs": [
        {
          "internalType": "address",
          "name": "",
          "type": "address"
        }
      ],
      "name": "whitelisted",
      "outputs": [
        {
          "internalType": "bool",
          "name": "",
          "type": "bool"
        }
      ],
      "stateMutability": "view",
      "type": "function",
      "constant": true
    },
    {
      "inputs": [
        {
          "internalType": "uint256",
          "name": "_mintQuantity",
          "type": "uint256"
        }
      ],
      "name": "mint",
      "outputs": [],
      "stateMutability": "payable",
      "type": "function",
      "payable": true
    },
    {
      "inputs": [],
      "name": "withdrawMatic",
      "outputs": [],
      "stateMutability": "nonpayable",
      "type": "function"
    },
    {
      "inputs": [
        {
          "internalType": "uint256",
          "name": "tokenId",
          "type": "uint256"
        }
      ],
      "name": "tokenURI",
      "outputs": [
        {
          "internalType": "string",
          "name": "",
          "type": "string"
        }
      ],
      "stateMutability": "view",
      "type": "function",
      "constant": true
    },
    {
      "inputs": [
        {
          "internalType": "address",
          "name": "_owner",
          "type": "address"
        }
      ],
      "name": "getUserTokens",
      "outputs": [
        {
          "components": [
            {
              "internalType": "uint256",
              "name": "id",
              "type": "uint256"
            },
            {
              "internalType": "string",
              "name": "uri",
              "type": "string"
            }
          ],
          "internalType": "struct nAnimals.RenderUserToken[]",
          "name": "",
          "type": "tuple[]"
        }
      ],
      "stateMutability": "view",
      "type": "function",
      "constant": true
    },
    {
      "inputs": [
        {
          "internalType": "bytes4",
          "name": "interfaceId",
          "type": "bytes4"
        }
      ],
      "name": "supportsInterface",
      "outputs": [
        {
          "internalType": "bool",
          "name": "",
          "type": "bool"
        }
      ],
      "stateMutability": "view",
      "type": "function",
      "constant": true
    },
    {
      "inputs": [
        {
          "internalType": "string",
          "name": "_newBaseURI",
          "type": "string"
        }
      ],
      "name": "setBaseURI",
      "outputs": [],
      "stateMutability": "nonpayable",
      "type": "function"
    },
    {
      "inputs": [
        {
          "internalType": "bool",
          "name": "_state",
          "type": "bool"
        }
      ],
      "name": "pause",
      "outputs": [],
      "stateMutability": "nonpayable",
      "type": "function"
    },
    {
      "inputs": [
        {
          "internalType": "uint256",
          "name": "newPrice",
          "type": "uint256"
        }
      ],
      "name": "setMintPrice",
      "outputs": [],
      "stateMutability": "nonpayable",
      "type": "function"
    },
    {
      "inputs": [
        {
          "internalType": "uint256",
          "name": "_newmaxMintQuantity",
          "type": "uint256"
        }
      ],
      "name": "setmaxMintAmount",
      "outputs": [],
      "stateMutability": "nonpayable",
      "type": "function"
    },
    {
      "inputs": [
        {
          "internalType": "address",
          "name": "_user",
          "type": "address"
        }
      ],
      "name": "whitelistUser",
      "outputs": [],
      "stateMutability": "nonpayable",
      "type": "function"
    },
    {
      "inputs": [
        {
          "internalType": "address",
          "name": "_user",
          "type": "address"
        }
      ],
      "name": "removeWhitelistUser",
      "outputs": [],
      "stateMutability": "nonpayable",
      "type": "function"
    }
  ],
  "bytecode": "0x6080604052600c80546001600160a01b03191630179055671bc16d674ec80000600d556107d0600e55600a600f556010805460ff191690553480156200004457600080fd5b5060405162002e3638038062002e3683398101604081905262000067916200026b565b60408051808201825260088152676e416e696d616c7360c01b6020808301918252835180850190945260048452634e414e4960e01b908401528151919291620000b391600091620001c5565b508051620000c9906001906020840190620001c5565b505050620000e6620000e0620000f860201b60201c565b620000fc565b620000f1816200014e565b50620003c2565b3390565b600a80546001600160a01b038381166001600160a01b0319831681179093556040519116919082907f8be0079c531659141344cd1fd0a4f28419497f9722a3daafe3b4186f6b6457e090600090a35050565b62000158620000f8565b6001600160a01b03166200016b620001b6565b6001600160a01b0316146200019d5760405162461bcd60e51b815260040162000194906200033a565b60405180910390fd5b8051620001b290600b906020840190620001c5565b5050565b600a546001600160a01b031690565b828054620001d3906200036f565b90600052602060002090601f016020900481019282620001f7576000855562000242565b82601f106200021257805160ff191683800117855562000242565b8280016001018555821562000242579182015b828111156200024257825182559160200191906001019062000225565b506200025092915062000254565b5090565b5b8082111562000250576000815560010162000255565b600060208083850312156200027e578182fd5b82516001600160401b038082111562000295578384fd5b818501915085601f830112620002a9578384fd5b815181811115620002be57620002be620003ac565b604051601f8201601f1916810185018381118282101715620002e457620002e4620003ac565b6040528181528382018501881015620002fb578586fd5b8592505b818310156200031e5783830185015181840186015291840191620002ff565b818311156200032f57858583830101525b979650505050505050565b6020808252818101527f4f776e61626c653a2063616c6c6572206973206e6f7420746865206f776e6572604082015260600190565b6002810460018216806200038457607f821691505b60208210811415620003a657634e487b7160e01b600052602260045260246000fd5b50919050565b634e487b7160e01b600052604160045260246000fd5b612a6480620003d26000396000f3fe6080604052600436106102045760003560e01c80636c0360eb11610118578063ae9aea6d116100a0578063d936547e1161006f578063d936547e1461058f578063e985e9c5146105af578063f2fde38b146105cf578063f4a0a528146105ef578063f6b4dfb41461060f57610204565b8063ae9aea6d14610525578063b88d4fde1461053a578063c285e1071461055a578063c87b56dd1461056f57610204565b8063810074c6116100e7578063810074c6146104b35780638da5cb5b146104c857806395d89b41146104dd578063a0712d68146104f2578063a22cb4651461050557610204565b80636c0360eb1461044957806370a082311461045e578063715018a61461047e5780637f00c7a61461049357610204565b806330cc7ae01161019b578063519dc8d21161016a578063519dc8d2146103b257806355f804b3146103df5780635c975abb146103ff5780636352211e146104145780636817c76c1461043457610204565b806330cc7ae01461033257806342842e0e146103525780634a4c560d146103725780634f6ccce71461039257610204565b8063095ea7b3116101d7578063095ea7b3146102b057806318160ddd146102d057806323b872dd146102f25780632f745c591461031257610204565b806301ffc9a71461020957806302329a291461023f57806306fdde0314610261578063081812fc14610283575b600080fd5b34801561021557600080fd5b50610229610224366004611fb5565b610624565b60405161023691906121bb565b60405180910390f35b34801561024b57600080fd5b5061025f61025a366004611f9b565b610637565b005b34801561026d57600080fd5b50610276610692565b60405161023691906121c6565b34801561028f57600080fd5b506102a361029e366004612033565b610724565b60405161023691906120f9565b3480156102bc57600080fd5b5061025f6102cb366004611f72565b610767565b3480156102dc57600080fd5b506102e56107ff565b60405161023691906128b3565b3480156102fe57600080fd5b5061025f61030d366004611e95565b610805565b34801561031e57600080fd5b506102e561032d366004611f72565b61083d565b34801561033e57600080fd5b5061025f61034d366004611e42565b61088f565b34801561035e57600080fd5b5061025f61036d366004611e95565b6108ef565b34801561037e57600080fd5b5061025f61038d366004611e42565b61090a565b34801561039e57600080fd5b506102e56103ad366004612033565b61096d565b3480156103be57600080fd5b506103d26103cd366004611e42565b6109c8565b604051610236919061214a565b3480156103eb57600080fd5b5061025f6103fa366004611fed565b610ab9565b34801561040b57600080fd5b50610229610b0f565b34801561042057600080fd5b506102a361042f366004612033565b610b18565b34801561044057600080fd5b506102e5610b4d565b34801561045557600080fd5b50610276610b53565b34801561046a57600080fd5b506102e5610479366004611e42565b610be1565b34801561048a57600080fd5b5061025f610c25565b34801561049f57600080fd5b5061025f6104ae366004612033565b610c70565b3480156104bf57600080fd5b5061025f610cb4565b3480156104d457600080fd5b506102a3610d22565b3480156104e957600080fd5b50610276610d31565b61025f610500366004612033565b610d40565b34801561051157600080fd5b5061025f610520366004611f49565b61103d565b34801561053157600080fd5b506102e561110b565b34801561054657600080fd5b5061025f610555366004611ed0565b611111565b34801561056657600080fd5b506102e5611150565b34801561057b57600080fd5b5061027661058a366004612033565b611156565b34801561059b57600080fd5b506102296105aa366004611e42565b61121c565b3480156105bb57600080fd5b506102296105ca366004611e63565b611231565b3480156105db57600080fd5b5061025f6105ea366004611e42565b61125f565b3480156105fb57600080fd5b5061025f61060a366004612033565b6112d0565b34801561061b57600080fd5b506102a3611314565b600061062f82611323565b90505b919050565b61063f611348565b6001600160a01b0316610650610d22565b6001600160a01b03161461067f5760405162461bcd60e51b815260040161067690612686565b60405180910390fd5b6010805460ff1916911515919091179055565b6060600080546106a19061294a565b80601f01602080910402602001604051908101604052809291908181526020018280546106cd9061294a565b801561071a5780601f106106ef5761010080835404028352916020019161071a565b820191906000526020600020905b8154815290600101906020018083116106fd57829003601f168201915b5050505050905090565b600061072f8261134c565b61074b5760405162461bcd60e51b81526004016106769061263a565b506000908152600460205260409020546001600160a01b031690565b600061077282610b18565b9050806001600160a01b0316836001600160a01b031614156107a65760405162461bcd60e51b81526004016106769061279e565b806001600160a01b03166107b8611348565b6001600160a01b031614806107d457506107d4816105ca611348565b6107f05760405162461bcd60e51b815260040161067690612480565b6107fa8383611369565b505050565b60085490565b610816610810611348565b826113d7565b6108325760405162461bcd60e51b815260040161067690612816565b6107fa83838361145c565b600061084883610be1565b82106108665760405162461bcd60e51b8152600401610676906121d9565b506001600160a01b03919091166000908152600660209081526040808320938352929052205490565b610897611348565b6001600160a01b03166108a8610d22565b6001600160a01b0316146108ce5760405162461bcd60e51b815260040161067690612686565b6001600160a01b03166000908152601360205260409020805460ff19169055565b6107fa83838360405180602001604052806000815250611111565b610912611348565b6001600160a01b0316610923610d22565b6001600160a01b0316146109495760405162461bcd60e51b815260040161067690612686565b6001600160a01b03166000908152601360205260409020805460ff19166001179055565b60006109776107ff565b82106109955760405162461bcd60e51b815260040161067690612867565b600882815481106109b657634e487b7160e01b600052603260045260246000fd5b90600052602060002001549050919050565b606060006109d583610be1565b905060008167ffffffffffffffff811115610a0057634e487b7160e01b600052604160045260246000fd5b604051908082528060200260200182016040528015610a3957816020015b610a26611cf8565b815260200190600190039081610a1e5790505b50905060005b82811015610ab1576000610a53868361083d565b90506040518060400160405280828152602001610a6f83611156565b815250838381518110610a9257634e487b7160e01b600052603260045260246000fd5b6020026020010181905250508080610aa990612985565b915050610a3f565b509392505050565b610ac1611348565b6001600160a01b0316610ad2610d22565b6001600160a01b031614610af85760405162461bcd60e51b815260040161067690612686565b8051610b0b90600b906020840190611d12565b5050565b60105460ff1681565b6000818152600260205260408120546001600160a01b03168061062f5760405162461bcd60e51b815260040161067690612527565b600d5481565b600b8054610b609061294a565b80601f0160208091040260200160405190810160405280929190818152602001828054610b8c9061294a565b8015610bd95780601f10610bae57610100808354040283529160200191610bd9565b820191906000526020600020905b815481529060010190602001808311610bbc57829003601f168201915b505050505081565b60006001600160a01b038216610c095760405162461bcd60e51b8152600401610676906124dd565b506001600160a01b031660009081526003602052604090205490565b610c2d611348565b6001600160a01b0316610c3e610d22565b6001600160a01b031614610c645760405162461bcd60e51b815260040161067690612686565b610c6e6000611589565b565b610c78611348565b6001600160a01b0316610c89610d22565b6001600160a01b031614610caf5760405162461bcd60e51b815260040161067690612686565b600f55565b610cbc611348565b6001600160a01b0316610ccd610d22565b6001600160a01b031614610cf35760405162461bcd60e51b815260040161067690612686565b6040514790339082156108fc029083906000818181858888f19350505050158015610b0b573d6000803e3d6000fd5b600a546001600160a01b031690565b6060600180546106a19061294a565b6000610d4a6107ff565b90506000610d57836115db565b90506000600b8054610d689061294a565b80601f0160208091040260200160405190810160405280929190818152602001828054610d949061294a565b8015610de15780601f10610db657610100808354040283529160200191610de1565b820191906000526020600020905b815481529060010190602001808311610dc457829003601f168201915b5050601054939450505060ff909116159050610e0f5760405162461bcd60e51b8152600401610676906127df565b60008411610e2f5760405162461bcd60e51b815260040161067690612570565b600f54841115610e80604051806060016040528060228152602001612a0d60229139610e5c600f546115eb565b60405180604001604052806006815260200165206e4567677360d01b815250611706565b90610e9e5760405162461bcd60e51b815260040161067691906121c6565b50610ea7610d22565b6001600160a01b0316336001600160a01b031614610ef357600a84610ecb33610be1565b610ed591906128bc565b1115610ef35760405162461bcd60e51b815260040161067690612704565b600e54610f0085856128bc565b1115610f1e5760405162461bcd60e51b8152600401610676906125b2565b610f26610d22565b6001600160a01b0316336001600160a01b031614610fca573360009081526013602052604090205460ff161515600114610fca573331821115610f7b5760405162461bcd60e51b8152600401610676906122bc565b81341015610f9b5760405162461bcd60e51b815260040161067690612350565b604051339083156108fc029084906000818181858888f19350505050158015610fc8573d6000803e3d6000fd5b505b60005b84811015611036576000610fe16011611735565b9050600061100184610ffc610ff78560016128bc565b6115eb565b611739565b905061100d3383611765565b611017828261177f565b611021601161179e565b5050808061102e90612985565b915050610fcd565b5050505050565b611045611348565b6001600160a01b0316826001600160a01b031614156110765760405162461bcd60e51b8152600401610676906123fd565b8060056000611083611348565b6001600160a01b03908116825260208083019390935260409182016000908120918716808252919093529120805460ff1916921515929092179091556110c7611348565b6001600160a01b03167f17307eab39ab6107e8899845ad3d59bd9653f200f220920489ca2b5937696c31836040516110ff91906121bb565b60405180910390a35050565b600f5481565b61112261111c611348565b836113d7565b61113e5760405162461bcd60e51b815260040161067690612816565b61114a848484846117a7565b50505050565b600e5481565b60606111618261134c565b61117d5760405162461bcd60e51b81526004016106769061274f565b600082815260126020526040812080546111969061294a565b80601f01602080910402602001604051908101604052809291908181526020018280546111c29061294a565b801561120f5780601f106111e45761010080835404028352916020019161120f565b820191906000526020600020905b8154815290600101906020018083116111f257829003601f168201915b5093979650505050505050565b60136020526000908152604090205460ff1681565b6001600160a01b03918216600090815260056020908152604080832093909416825291909152205460ff1690565b611267611348565b6001600160a01b0316611278610d22565b6001600160a01b03161461129e5760405162461bcd60e51b815260040161067690612686565b6001600160a01b0381166112c45760405162461bcd60e51b815260040161067690612276565b6112cd81611589565b50565b6112d8611348565b6001600160a01b03166112e9610d22565b6001600160a01b03161461130f5760405162461bcd60e51b815260040161067690612686565b600d55565b600c546001600160a01b031681565b60006001600160e01b0319821663780e9d6360e01b148061062f575061062f826117da565b3390565b6000908152600260205260409020546001600160a01b0316151590565b600081815260046020526040902080546001600160a01b0319166001600160a01b038416908117909155819061139e82610b18565b6001600160a01b03167f8c5be1e5ebec7d5bd14f71427d1e84f3dd0314c0f7b2291e5b200ac8c7c3b92560405160405180910390a45050565b60006113e28261134c565b6113fe5760405162461bcd60e51b815260040161067690612434565b600061140983610b18565b9050806001600160a01b0316846001600160a01b031614806114445750836001600160a01b031661143984610724565b6001600160a01b0316145b8061145457506114548185611231565b949350505050565b826001600160a01b031661146f82610b18565b6001600160a01b0316146114955760405162461bcd60e51b8152600401610676906126bb565b6001600160a01b0382166114bb5760405162461bcd60e51b8152600401610676906123b9565b6114c683838361181a565b6114d1600082611369565b6001600160a01b03831660009081526003602052604081208054600192906114fa908490612907565b90915550506001600160a01b03821660009081526003602052604081208054600192906115289084906128bc565b909155505060008181526002602052604080822080546001600160a01b0319166001600160a01b0386811691821790925591518493918716917fddf252ad1be2c89b69c2b068fc378daa952ba7f163c4a11628f55a4df523b3ef91a4505050565b600a80546001600160a01b038381166001600160a01b0319831681179093556040519116919082907f8be0079c531659141344cd1fd0a4f28419497f9722a3daafe3b4186f6b6457e090600090a35050565b600081600d5461062f91906128e8565b60608161161057506040805180820190915260018152600360fc1b6020820152610632565b8160005b811561163a578061162481612985565b91506116339050600a836128d4565b9150611614565b60008167ffffffffffffffff81111561166357634e487b7160e01b600052604160045260246000fd5b6040519080825280601f01601f19166020018201604052801561168d576020820181803683370190505b5090505b8415611454576116a2600183612907565b91506116af600a866129a0565b6116ba9060306128bc565b60f81b8183815181106116dd57634e487b7160e01b600052603260045260246000fd5b60200101906001600160f81b031916908160001a9053506116ff600a866128d4565b9450611691565b606083838360405160200161171d93929190612077565b60405160208183030381529060405290509392505050565b5490565b6060828260405160200161174e9291906120ba565b604051602081830303815290604052905092915050565b610b0b828260405180602001604052806000815250611825565b600082815260126020908152604090912082516107fa92840190611d12565b80546001019055565b6117b284848461145c565b6117be84848484611858565b61114a5760405162461bcd60e51b815260040161067690612224565b60006001600160e01b031982166380ac58cd60e01b148061180b57506001600160e01b03198216635b5e139f60e01b145b8061062f575061062f82611973565b6107fa83838361198c565b61182f8383611a15565b61183c6000848484611858565b6107fa5760405162461bcd60e51b815260040161067690612224565b600061186c846001600160a01b0316611af4565b1561196857836001600160a01b031663150b7a02611888611348565b8786866040518563ffffffff1660e01b81526004016118aa949392919061210d565b602060405180830381600087803b1580156118c457600080fd5b505af19250505080156118f4575060408051601f3d908101601f191682019092526118f191810190611fd1565b60015b61194e573d808015611922576040519150601f19603f3d011682016040523d82523d6000602084013e611927565b606091505b5080516119465760405162461bcd60e51b815260040161067690612224565b805181602001fd5b6001600160e01b031916630a85bd0160e11b149050611454565b506001949350505050565b6001600160e01b031981166301ffc9a760e01b14919050565b6119978383836107fa565b6001600160a01b0383166119b3576119ae81611afa565b6119d6565b816001600160a01b0316836001600160a01b0316146119d6576119d68382611b3e565b6001600160a01b0382166119f2576119ed81611bdb565b6107fa565b826001600160a01b0316826001600160a01b0316146107fa576107fa8282611cb4565b6001600160a01b038216611a3b5760405162461bcd60e51b815260040161067690612605565b611a448161134c565b15611a615760405162461bcd60e51b815260040161067690612319565b611a6d6000838361181a565b6001600160a01b0382166000908152600360205260408120805460019290611a969084906128bc565b909155505060008181526002602052604080822080546001600160a01b0319166001600160a01b03861690811790915590518392907fddf252ad1be2c89b69c2b068fc378daa952ba7f163c4a11628f55a4df523b3ef908290a45050565b3b151590565b600880546000838152600960205260408120829055600182018355919091527ff3f7a9fe364faab93b216da50a3214154f22a0a2b415b23a84c8169e8b636ee30155565b60006001611b4b84610be1565b611b559190612907565b600083815260076020526040902054909150808214611ba8576001600160a01b03841660009081526006602090815260408083208584528252808320548484528184208190558352600790915290208190555b5060009182526007602090815260408084208490556001600160a01b039094168352600681528383209183525290812055565b600854600090611bed90600190612907565b60008381526009602052604081205460088054939450909284908110611c2357634e487b7160e01b600052603260045260246000fd5b906000526020600020015490508060088381548110611c5257634e487b7160e01b600052603260045260246000fd5b6000918252602080832090910192909255828152600990915260408082208490558582528120556008805480611c9857634e487b7160e01b600052603160045260246000fd5b6001900381819060005260206000200160009055905550505050565b6000611cbf83610be1565b6001600160a01b039093166000908152600660209081526040808320868452825280832085905593825260079052919091209190915550565b604051806040016040528060008152602001606081525090565b828054611d1e9061294a565b90600052602060002090601f016020900481019282611d405760008555611d86565b82601f10611d5957805160ff1916838001178555611d86565b82800160010185558215611d86579182015b82811115611d86578251825591602001919060010190611d6b565b50611d92929150611d96565b5090565b5b80821115611d925760008155600101611d97565b600067ffffffffffffffff80841115611dc657611dc66129e0565b604051601f8501601f191681016020018281118282101715611dea57611dea6129e0565b604052848152915081838501861015611e0257600080fd5b8484602083013760006020868301015250509392505050565b80356001600160a01b038116811461063257600080fd5b8035801515811461063257600080fd5b600060208284031215611e53578081fd5b611e5c82611e1b565b9392505050565b60008060408385031215611e75578081fd5b611e7e83611e1b565b9150611e8c60208401611e1b565b90509250929050565b600080600060608486031215611ea9578081fd5b611eb284611e1b565b9250611ec060208501611e1b565b9150604084013590509250925092565b60008060008060808587031215611ee5578081fd5b611eee85611e1b565b9350611efc60208601611e1b565b925060408501359150606085013567ffffffffffffffff811115611f1e578182fd5b8501601f81018713611f2e578182fd5b611f3d87823560208401611dab565b91505092959194509250565b60008060408385031215611f5b578182fd5b611f6483611e1b565b9150611e8c60208401611e32565b60008060408385031215611f84578182fd5b611f8d83611e1b565b946020939093013593505050565b600060208284031215611fac578081fd5b611e5c82611e32565b600060208284031215611fc6578081fd5b8135611e5c816129f6565b600060208284031215611fe2578081fd5b8151611e5c816129f6565b600060208284031215611ffe578081fd5b813567ffffffffffffffff811115612014578182fd5b8201601f81018413612024578182fd5b61145484823560208401611dab565b600060208284031215612044578081fd5b5035919050565b6000815180845261206381602086016020860161291e565b601f01601f19169290920160200192915050565b6000845161208981846020890161291e565b84519083019061209d81836020890161291e565b84519101906120b081836020880161291e565b0195945050505050565b600083516120cc81846020880161291e565b8351908301906120e081836020880161291e565b64173539b7b760d91b9101908152600501949350505050565b6001600160a01b0391909116815260200190565b6001600160a01b03858116825284166020820152604081018390526080606082018190526000906121409083018461204b565b9695505050505050565b60208082528251828201819052600091906040908185019080840286018301878501865b838110156121ad57888303603f1901855281518051845287015187840187905261219a8785018261204b565b958801959350509086019060010161216e565b509098975050505050505050565b901515815260200190565b600060208252611e5c602083018461204b565b6020808252602b908201527f455243373231456e756d657261626c653a206f776e657220696e646578206f7560408201526a74206f6620626f756e647360a81b606082015260800190565b60208082526032908201527f4552433732313a207472616e7366657220746f206e6f6e20455243373231526560408201527131b2b4bb32b91034b6b83632b6b2b73a32b960711b606082015260800190565b60208082526026908201527f4f776e61626c653a206e6577206f776e657220697320746865207a65726f206160408201526564647265737360d01b606082015260800190565b6020808252603a908201527f596f75722077616c6c657420646f65736e2774206861766520656e6f7567682060408201527f4d4154494320666f7220796f7572207472616e73616374696f6e000000000000606082015260800190565b6020808252601c908201527f4552433732313a20746f6b656e20616c7265616479206d696e74656400000000604082015260600190565b60208082526043908201527f596f7520686176656e27742073656e7420656e6f756768204d4154494320696e60408201527f20746865207472616e73616374696f6e20746f206d696e7420796f7572206e4560608201526267677360e81b608082015260a00190565b60208082526024908201527f4552433732313a207472616e7366657220746f20746865207a65726f206164646040820152637265737360e01b606082015260800190565b60208082526019908201527f4552433732313a20617070726f766520746f2063616c6c657200000000000000604082015260600190565b6020808252602c908201527f4552433732313a206f70657261746f7220717565727920666f72206e6f6e657860408201526b34b9ba32b73a103a37b5b2b760a11b606082015260800190565b60208082526038908201527f4552433732313a20617070726f76652063616c6c6572206973206e6f74206f7760408201527f6e6572206e6f7220617070726f76656420666f7220616c6c0000000000000000606082015260800190565b6020808252602a908201527f4552433732313a2062616c616e636520717565727920666f7220746865207a65604082015269726f206164647265737360b01b606082015260800190565b60208082526029908201527f4552433732313a206f776e657220717565727920666f72206e6f6e657869737460408201526832b73a103a37b5b2b760b91b606082015260800190565b60208082526022908201527f4d696e7420616d6f756e74206d7573742062652067726561746572207468616e604082015261020360f41b606082015260800190565b60208082526033908201527f596f7527726520747279696e6720746f206d696e74206d6f7265206e45676773604082015272207468616e2077652068617665206c6566742160681b606082015260800190565b6020808252818101527f4552433732313a206d696e7420746f20746865207a65726f2061646472657373604082015260600190565b6020808252602c908201527f4552433732313a20617070726f76656420717565727920666f72206e6f6e657860408201526b34b9ba32b73a103a37b5b2b760a11b606082015260800190565b6020808252818101527f4f776e61626c653a2063616c6c6572206973206e6f7420746865206f776e6572604082015260600190565b60208082526029908201527f4552433732313a207472616e73666572206f6620746f6b656e2074686174206960408201526839903737ba1037bbb760b91b606082015260800190565b6020808252602b908201527f596f752063616e206f6e6c79206d696e7420757020746f203130206e4567677360408201526a081c195c881dd85b1b195d60aa1b606082015260800190565b6020808252602f908201527f4552433732314d657461646174613a2055524920717565727920666f72206e6f60408201526e3732bc34b9ba32b73a103a37b5b2b760891b606082015260800190565b60208082526021908201527f4552433732313a20617070726f76616c20746f2063757272656e74206f776e656040820152603960f91b606082015260800190565b6020808252601b908201527f4d696e74696e672069732063757272656e746c79207061757365640000000000604082015260600190565b60208082526031908201527f4552433732313a207472616e736665722063616c6c6572206973206e6f74206f6040820152701ddb995c881b9bdc88185c1c1c9bdd9959607a1b606082015260800190565b6020808252602c908201527f455243373231456e756d657261626c653a20676c6f62616c20696e646578206f60408201526b7574206f6620626f756e647360a01b606082015260800190565b90815260200190565b600082198211156128cf576128cf6129b4565b500190565b6000826128e3576128e36129ca565b500490565b6000816000190483118215151615612902576129026129b4565b500290565b600082821015612919576129196129b4565b500390565b60005b83811015612939578181015183820152602001612921565b8381111561114a5750506000910152565b60028104600182168061295e57607f821691505b6020821081141561297f57634e487b7160e01b600052602260045260246000fd5b50919050565b6000600019821415612999576129996129b4565b5060010190565b6000826129af576129af6129ca565b500690565b634e487b7160e01b600052601160045260246000fd5b634e487b7160e01b600052601260045260246000fd5b634e487b7160e01b600052604160045260246000fd5b6001600160e01b0319811681146112cd57600080fdfe596f752063616e2063757272656e746c79206f6e6c79206d696e7420757020746f20a264697066735822122036e8f0fc9b1b0a3411ca55b53183b3b9816f7661f4f839d1fcc0e4f08c1d643964736f6c63430008000033",
  "immutableReferences": {},
  "source": "// SPDX-License-Identifier: MIT\n\npragma solidity ^0.8.0;\nimport \"@openzeppelin/contracts/token/ERC721/ERC721.sol\";\nimport \"@openzeppelin/contracts/token/ERC721/extensions/ERC721Enumerable.sol\";\nimport \"@openzeppelin/contracts/utils/Counters.sol\";\nimport \"@openzeppelin/contracts/access/Ownable.sol\";\n\ncontract nAnimals is ERC721, ERC721Enumerable, Ownable {\n    using Counters for Counters.Counter;\n    using Strings for uint256;\n    \n    string public baseURI;\n    address public contractAddress = address(this);\n    uint256 public mintPrice = 2 ether;\n    uint256 public maxMintSupply = 2000;\n    uint256 public maxMintQuantity = 10;\n    bool public paused = false;\n    Counters.Counter _tokenIds;\n    \n    mapping(uint256 => string) _tokenURIs;\n    mapping (address => bool) public whitelisted;\n    \n    struct RenderUserToken {\n        uint256 id;\n        string uri;\n    }\n    \n    constructor(string memory _initBaseURI) ERC721(\"nAnimals\", \"NANI\") {\n        setBaseURI(_initBaseURI);\n    }\n    \n    // internal\n    function _baseURI() internal view virtual override returns (string memory) {\n        return baseURI;\n    }\n    \n    function _setTokenURI(uint256 tokenId, string memory _tokenURI) internal {\n        _tokenURIs[tokenId] = _tokenURI;\n    }\n    \n    function calculatePrice(uint256 numberOfTokens) internal view returns (uint256)\n    {\n      return mintPrice * numberOfTokens;\n    }\n\n    function concatJSON(string memory strOne, string memory strTwo) private pure returns (string memory) {\n        return string(abi.encodePacked(strOne, strTwo, \".json\"));\n    }\n    \n    function concatStrings(string memory strOne, string memory strTwo, string memory strThree) private pure returns (string memory) {\n        return string(abi.encodePacked(strOne, strTwo, strThree));\n    }\n    \n    function _beforeTokenTransfer(address from, address to, uint256 tokenId) internal virtual override(ERC721, ERC721Enumerable) {\n        super._beforeTokenTransfer(from, to, tokenId);\n    }\n\n    // public\n    function mint(uint256 _mintQuantity) public payable {\n        uint256 supply = totalSupply();\n        uint256 mintCost = calculatePrice(_mintQuantity);\n        string memory uri = baseURI;\n        require(!paused, \"Minting is currently paused\");\n        require(_mintQuantity > 0, \"Mint amount must be greater than 0\");\n        require(_mintQuantity <= maxMintQuantity, concatStrings(\"You can currently only mint up to \", Strings.toString(maxMintQuantity), \" nEggs\"));\n        if (msg.sender != owner()) {\n            require(balanceOf(msg.sender) + _mintQuantity <=10, \"You can only mint up to 10 nEggs per wallet\");\n        }\n        require(supply + _mintQuantity <= maxMintSupply, \"You're trying to mint more nEggs than we have left!\");\n        if (msg.sender != owner()) {\n            if(whitelisted[msg.sender] != true) {\n                require(msg.sender.balance >= mintCost, \"Your wallet doesn't have enough MATIC for your transaction\");\n                require(msg.value >= mintCost, \"You haven't sent enough MATIC in the transaction to mint your nEggs\");\n                payable(msg.sender).transfer(mintCost);\n            }\n        }\n        for (uint256 i = 0; i < _mintQuantity; i++) {\n            uint256 newId = _tokenIds.current();\n            string memory newUri = concatJSON(uri, Strings.toString(newId+1));\n            _safeMint(msg.sender, newId);\n            _setTokenURI(newId, newUri);\n            _tokenIds.increment();\n        }\n    }\n\n    function withdrawMatic() public onlyOwner {\n        uint256 balance = address(this).balance;\n        payable(msg.sender).transfer(balance);\n    }\n\n    function tokenURI(uint256 tokenId) public view virtual override returns(string memory) {\n        require(_exists(tokenId), \"ERC721Metadata: URI query for nonexistent token\");\n        string memory _tokenURI = _tokenURIs[tokenId];\n        return _tokenURI;\n    }\n\n    function getUserTokens(address _owner) public view returns(RenderUserToken[] memory) {\n        uint256 ownerTokenCount = balanceOf(_owner);\n        RenderUserToken[] memory res = new RenderUserToken[](ownerTokenCount);\n        for(uint256 i = 0; i < ownerTokenCount; i++) {\n            uint256 tokenId = tokenOfOwnerByIndex(_owner, i);\n            res[i] = RenderUserToken(tokenId, tokenURI(tokenId));\n        }\n        return res;\n    }\n    \n    function supportsInterface(bytes4 interfaceId) public view virtual override(ERC721, ERC721Enumerable) returns (bool) {\n        return super.supportsInterface(interfaceId);\n    }\n\n    // only owner\n    function setBaseURI(string memory _newBaseURI) public onlyOwner {\n        baseURI = _newBaseURI;\n    }\n        \n    function pause(bool _state) public onlyOwner {\n        paused = _state;\n    }\n    \n    function setMintPrice(uint256 newPrice) public onlyOwner {\n        mintPrice = newPrice;\n    }\n      \n    function setmaxMintAmount(uint256 _newmaxMintQuantity) public onlyOwner() {\n        maxMintQuantity = _newmaxMintQuantity;\n    }\n  \n    function whitelistUser(address _user) public onlyOwner {\n        whitelisted[_user] = true;\n    }\n     \n    function removeWhitelistUser(address _user) public onlyOwner {\n        whitelisted[_user] = false;\n    }\n}",
  "sourcePath": "/Users/sean/Documents/Coding/nAnimals/dApp/contracts/nAnimals.sol",
  "compiler": {
    "name": "solc",
    "version": "0.8.0+commit.c7dfd78e.Emscripten.clang"
  },
  "schemaVersion": "3.4.3",
  "updatedAt": "2021-10-16T21:35:59.148Z",
  "networkType": "ethereum",
  "devdoc": {
    "kind": "dev",
    "methods": {
      "approve(address,uint256)": {
        "details": "See {IERC721-approve}."
      },
      "balanceOf(address)": {
        "details": "See {IERC721-balanceOf}."
      },
      "getApproved(uint256)": {
        "details": "See {IERC721-getApproved}."
      },
      "isApprovedForAll(address,address)": {
        "details": "See {IERC721-isApprovedForAll}."
      },
      "name()": {
        "details": "See {IERC721Metadata-name}."
      },
      "owner()": {
        "details": "Returns the address of the current owner."
      },
      "ownerOf(uint256)": {
        "details": "See {IERC721-ownerOf}."
      },
      "renounceOwnership()": {
        "details": "Leaves the contract without owner. It will not be possible to call `onlyOwner` functions anymore. Can only be called by the current owner. NOTE: Renouncing ownership will leave the contract without an owner, thereby removing any functionality that is only available to the owner."
      },
      "safeTransferFrom(address,address,uint256)": {
        "details": "See {IERC721-safeTransferFrom}."
      },
      "safeTransferFrom(address,address,uint256,bytes)": {
        "details": "See {IERC721-safeTransferFrom}."
      },
      "setApprovalForAll(address,bool)": {
        "details": "See {IERC721-setApprovalForAll}."
      },
      "symbol()": {
        "details": "See {IERC721Metadata-symbol}."
      },
      "tokenByIndex(uint256)": {
        "details": "See {IERC721Enumerable-tokenByIndex}."
      },
      "tokenOfOwnerByIndex(address,uint256)": {
        "details": "See {IERC721Enumerable-tokenOfOwnerByIndex}."
      },
      "tokenURI(uint256)": {
        "details": "See {IERC721Metadata-tokenURI}."
      },
      "totalSupply()": {
        "details": "See {IERC721Enumerable-totalSupply}."
      },
      "transferFrom(address,address,uint256)": {
        "details": "See {IERC721-transferFrom}."
      },
      "transferOwnership(address)": {
        "details": "Transfers ownership of the contract to a new account (`newOwner`). Can only be called by the current owner."
      }
    },
    "version": 1
  },
  "userdoc": {
    "kind": "user",
    "methods": {},
    "version": 1
  }
}