{
  "contractName": "nAnimals",
  "abi": [
    {
      "inputs": [
        {
          "internalType": "string",
          "name": "_initBaseURI",
          "type": "string"
        }
      ],
      "stateMutability": "nonpayable",
      "type": "constructor"
    },
    {
      "anonymous": false,
      "inputs": [
        {
          "indexed": true,
          "internalType": "address",
          "name": "owner",
          "type": "address"
        },
        {
          "indexed": true,
          "internalType": "address",
          "name": "approved",
          "type": "address"
        },
        {
          "indexed": true,
          "internalType": "uint256",
          "name": "tokenId",
          "type": "uint256"
        }
      ],
      "name": "Approval",
      "type": "event"
    },
    {
      "anonymous": false,
      "inputs": [
        {
          "indexed": true,
          "internalType": "address",
          "name": "owner",
          "type": "address"
        },
        {
          "indexed": true,
          "internalType": "address",
          "name": "operator",
          "type": "address"
        },
        {
          "indexed": false,
          "internalType": "bool",
          "name": "approved",
          "type": "bool"
        }
      ],
      "name": "ApprovalForAll",
      "type": "event"
    },
    {
      "anonymous": false,
      "inputs": [
        {
          "indexed": true,
          "internalType": "address",
          "name": "previousOwner",
          "type": "address"
        },
        {
          "indexed": true,
          "internalType": "address",
          "name": "newOwner",
          "type": "address"
        }
      ],
      "name": "OwnershipTransferred",
      "type": "event"
    },
    {
      "anonymous": false,
      "inputs": [
        {
          "indexed": false,
          "internalType": "address",
          "name": "account",
          "type": "address"
        }
      ],
      "name": "Paused",
      "type": "event"
    },
    {
      "anonymous": false,
      "inputs": [
        {
          "indexed": true,
          "internalType": "address",
          "name": "from",
          "type": "address"
        },
        {
          "indexed": true,
          "internalType": "address",
          "name": "to",
          "type": "address"
        },
        {
          "indexed": true,
          "internalType": "uint256",
          "name": "tokenId",
          "type": "uint256"
        }
      ],
      "name": "Transfer",
      "type": "event"
    },
    {
      "anonymous": false,
      "inputs": [
        {
          "indexed": false,
          "internalType": "address",
          "name": "account",
          "type": "address"
        }
      ],
      "name": "Unpaused",
      "type": "event"
    },
    {
      "inputs": [
        {
          "internalType": "address",
          "name": "to",
          "type": "address"
        },
        {
          "internalType": "uint256",
          "name": "tokenId",
          "type": "uint256"
        }
      ],
      "name": "approve",
      "outputs": [],
      "stateMutability": "nonpayable",
      "type": "function"
    },
    {
      "inputs": [
        {
          "internalType": "address",
          "name": "owner",
          "type": "address"
        }
      ],
      "name": "balanceOf",
      "outputs": [
        {
          "internalType": "uint256",
          "name": "",
          "type": "uint256"
        }
      ],
      "stateMutability": "view",
      "type": "function",
      "constant": true
    },
    {
      "inputs": [],
      "name": "baseURI",
      "outputs": [
        {
          "internalType": "string",
          "name": "",
          "type": "string"
        }
      ],
      "stateMutability": "view",
      "type": "function",
      "constant": true
    },
    {
      "inputs": [],
      "name": "contractAddress",
      "outputs": [
        {
          "internalType": "address",
          "name": "",
          "type": "address"
        }
      ],
      "stateMutability": "view",
      "type": "function",
      "constant": true
    },
    {
      "inputs": [],
      "name": "genStart",
      "outputs": [
        {
          "internalType": "uint256",
          "name": "",
          "type": "uint256"
        }
      ],
      "stateMutability": "view",
      "type": "function",
      "constant": true
    },
    {
      "inputs": [
        {
          "internalType": "uint256",
          "name": "tokenId",
          "type": "uint256"
        }
      ],
      "name": "getApproved",
      "outputs": [
        {
          "internalType": "address",
          "name": "",
          "type": "address"
        }
      ],
      "stateMutability": "view",
      "type": "function",
      "constant": true
    },
    {
      "inputs": [],
      "name": "hatchPrice",
      "outputs": [
        {
          "internalType": "uint256",
          "name": "",
          "type": "uint256"
        }
      ],
      "stateMutability": "view",
      "type": "function",
      "constant": true
    },
    {
      "inputs": [],
      "name": "hatchURI",
      "outputs": [
        {
          "internalType": "string",
          "name": "",
          "type": "string"
        }
      ],
      "stateMutability": "view",
      "type": "function",
      "constant": true
    },
    {
      "inputs": [],
      "name": "hatchingActive",
      "outputs": [
        {
          "internalType": "bool",
          "name": "",
          "type": "bool"
        }
      ],
      "stateMutability": "view",
      "type": "function",
      "constant": true
    },
    {
      "inputs": [
        {
          "internalType": "address",
          "name": "owner",
          "type": "address"
        },
        {
          "internalType": "address",
          "name": "operator",
          "type": "address"
        }
      ],
      "name": "isApprovedForAll",
      "outputs": [
        {
          "internalType": "bool",
          "name": "",
          "type": "bool"
        }
      ],
      "stateMutability": "view",
      "type": "function",
      "constant": true
    },
    {
      "inputs": [],
      "name": "maxMintQuantity",
      "outputs": [
        {
          "internalType": "uint256",
          "name": "",
          "type": "uint256"
        }
      ],
      "stateMutability": "view",
      "type": "function",
      "constant": true
    },
    {
      "inputs": [],
      "name": "maxMintSupply",
      "outputs": [
        {
          "internalType": "uint256",
          "name": "",
          "type": "uint256"
        }
      ],
      "stateMutability": "view",
      "type": "function",
      "constant": true
    },
    {
      "inputs": [],
      "name": "mintPrice",
      "outputs": [
        {
          "internalType": "uint256",
          "name": "",
          "type": "uint256"
        }
      ],
      "stateMutability": "view",
      "type": "function",
      "constant": true
    },
    {
      "inputs": [],
      "name": "name",
      "outputs": [
        {
          "internalType": "string",
          "name": "",
          "type": "string"
        }
      ],
      "stateMutability": "view",
      "type": "function",
      "constant": true
    },
    {
      "inputs": [],
      "name": "owner",
      "outputs": [
        {
          "internalType": "address",
          "name": "",
          "type": "address"
        }
      ],
      "stateMutability": "view",
      "type": "function",
      "constant": true
    },
    {
      "inputs": [
        {
          "internalType": "uint256",
          "name": "tokenId",
          "type": "uint256"
        }
      ],
      "name": "ownerOf",
      "outputs": [
        {
          "internalType": "address",
          "name": "",
          "type": "address"
        }
      ],
      "stateMutability": "view",
      "type": "function",
      "constant": true
    },
    {
      "inputs": [],
      "name": "paused",
      "outputs": [
        {
          "internalType": "bool",
          "name": "",
          "type": "bool"
        }
      ],
      "stateMutability": "view",
      "type": "function",
      "constant": true
    },
    {
      "inputs": [],
      "name": "renounceOwnership",
      "outputs": [],
      "stateMutability": "nonpayable",
      "type": "function"
    },
    {
      "inputs": [
        {
          "internalType": "address",
          "name": "from",
          "type": "address"
        },
        {
          "internalType": "address",
          "name": "to",
          "type": "address"
        },
        {
          "internalType": "uint256",
          "name": "tokenId",
          "type": "uint256"
        }
      ],
      "name": "safeTransferFrom",
      "outputs": [],
      "stateMutability": "nonpayable",
      "type": "function"
    },
    {
      "inputs": [
        {
          "internalType": "address",
          "name": "from",
          "type": "address"
        },
        {
          "internalType": "address",
          "name": "to",
          "type": "address"
        },
        {
          "internalType": "uint256",
          "name": "tokenId",
          "type": "uint256"
        },
        {
          "internalType": "bytes",
          "name": "_data",
          "type": "bytes"
        }
      ],
      "name": "safeTransferFrom",
      "outputs": [],
      "stateMutability": "nonpayable",
      "type": "function"
    },
    {
      "inputs": [
        {
          "internalType": "address",
          "name": "operator",
          "type": "address"
        },
        {
          "internalType": "bool",
          "name": "approved",
          "type": "bool"
        }
      ],
      "name": "setApprovalForAll",
      "outputs": [],
      "stateMutability": "nonpayable",
      "type": "function"
    },
    {
      "inputs": [],
      "name": "symbol",
      "outputs": [
        {
          "internalType": "string",
          "name": "",
          "type": "string"
        }
      ],
      "stateMutability": "view",
      "type": "function",
      "constant": true
    },
    {
      "inputs": [
        {
          "internalType": "uint256",
          "name": "index",
          "type": "uint256"
        }
      ],
      "name": "tokenByIndex",
      "outputs": [
        {
          "internalType": "uint256",
          "name": "",
          "type": "uint256"
        }
      ],
      "stateMutability": "view",
      "type": "function",
      "constant": true
    },
    {
      "inputs": [
        {
          "internalType": "address",
          "name": "owner",
          "type": "address"
        },
        {
          "internalType": "uint256",
          "name": "index",
          "type": "uint256"
        }
      ],
      "name": "tokenOfOwnerByIndex",
      "outputs": [
        {
          "internalType": "uint256",
          "name": "",
          "type": "uint256"
        }
      ],
      "stateMutability": "view",
      "type": "function",
      "constant": true
    },
    {
      "inputs": [],
      "name": "totalSupply",
      "outputs": [
        {
          "internalType": "uint256",
          "name": "",
          "type": "uint256"
        }
      ],
      "stateMutability": "view",
      "type": "function",
      "constant": true
    },
    {
      "inputs": [
        {
          "internalType": "address",
          "name": "from",
          "type": "address"
        },
        {
          "internalType": "address",
          "name": "to",
          "type": "address"
        },
        {
          "internalType": "uint256",
          "name": "tokenId",
          "type": "uint256"
        }
      ],
      "name": "transferFrom",
      "outputs": [],
      "stateMutability": "nonpayable",
      "type": "function"
    },
    {
      "inputs": [
        {
          "internalType": "address",
          "name": "newOwner",
          "type": "address"
        }
      ],
      "name": "transferOwnership",
      "outputs": [],
      "stateMutability": "nonpayable",
      "type": "function"
    },
    {
      "inputs": [
        {
          "internalType": "address",
          "name": "",
          "type": "address"
        }
      ],
      "name": "whitelisted",
      "outputs": [
        {
          "internalType": "bool",
          "name": "",
          "type": "bool"
        }
      ],
      "stateMutability": "view",
      "type": "function",
      "constant": true
    },
    {
      "inputs": [
        {
          "internalType": "uint256",
          "name": "_mintQuantity",
          "type": "uint256"
        }
      ],
      "name": "mint",
      "outputs": [],
      "stateMutability": "payable",
      "type": "function",
      "payable": true
    },
    {
      "inputs": [
        {
          "internalType": "uint256",
          "name": "tokenId",
          "type": "uint256"
        }
      ],
      "name": "hatch",
      "outputs": [],
      "stateMutability": "payable",
      "type": "function",
      "payable": true
    },
    {
      "inputs": [
        {
          "internalType": "uint256",
          "name": "tokenId",
          "type": "uint256"
        }
      ],
      "name": "tokenURI",
      "outputs": [
        {
          "internalType": "string",
          "name": "",
          "type": "string"
        }
      ],
      "stateMutability": "view",
      "type": "function",
      "constant": true
    },
    {
      "inputs": [
        {
          "internalType": "address",
          "name": "_owner",
          "type": "address"
        }
      ],
      "name": "getUserTokens",
      "outputs": [
        {
          "components": [
            {
              "internalType": "uint256",
              "name": "id",
              "type": "uint256"
            },
            {
              "internalType": "string",
              "name": "uri",
              "type": "string"
            }
          ],
          "internalType": "struct nAnimals.RenderUserToken[]",
          "name": "",
          "type": "tuple[]"
        }
      ],
      "stateMutability": "view",
      "type": "function",
      "constant": true
    },
    {
      "inputs": [
        {
          "internalType": "bytes4",
          "name": "interfaceId",
          "type": "bytes4"
        }
      ],
      "name": "supportsInterface",
      "outputs": [
        {
          "internalType": "bool",
          "name": "",
          "type": "bool"
        }
      ],
      "stateMutability": "view",
      "type": "function",
      "constant": true
    },
    {
      "inputs": [
        {
          "internalType": "string",
          "name": "_newBaseURI",
          "type": "string"
        }
      ],
      "name": "setBaseURI",
      "outputs": [],
      "stateMutability": "nonpayable",
      "type": "function"
    },
    {
      "inputs": [
        {
          "internalType": "uint256",
          "name": "_newGenStart",
          "type": "uint256"
        }
      ],
      "name": "setGenStart",
      "outputs": [],
      "stateMutability": "nonpayable",
      "type": "function"
    },
    {
      "inputs": [
        {
          "internalType": "string",
          "name": "_newHatchURI",
          "type": "string"
        }
      ],
      "name": "setHatchURI",
      "outputs": [],
      "stateMutability": "nonpayable",
      "type": "function"
    },
    {
      "inputs": [],
      "name": "pause",
      "outputs": [],
      "stateMutability": "nonpayable",
      "type": "function"
    },
    {
      "inputs": [],
      "name": "unpause",
      "outputs": [],
      "stateMutability": "nonpayable",
      "type": "function"
    },
    {
      "inputs": [],
      "name": "hatchingOn",
      "outputs": [],
      "stateMutability": "nonpayable",
      "type": "function"
    },
    {
      "inputs": [],
      "name": "hatchingOff",
      "outputs": [],
      "stateMutability": "nonpayable",
      "type": "function"
    },
    {
      "inputs": [
        {
          "internalType": "uint256",
          "name": "newMintPrice",
          "type": "uint256"
        }
      ],
      "name": "setMintPrice",
      "outputs": [],
      "stateMutability": "nonpayable",
      "type": "function"
    },
    {
      "inputs": [
        {
          "internalType": "uint256",
          "name": "newHatchPrice",
          "type": "uint256"
        }
      ],
      "name": "setHatchPrice",
      "outputs": [],
      "stateMutability": "nonpayable",
      "type": "function"
    },
    {
      "inputs": [
        {
          "internalType": "uint256",
          "name": "_newmaxMintQuantity",
          "type": "uint256"
        }
      ],
      "name": "setmaxMintAmount",
      "outputs": [],
      "stateMutability": "nonpayable",
      "type": "function"
    },
    {
      "inputs": [
        {
          "internalType": "address",
          "name": "_user",
          "type": "address"
        }
      ],
      "name": "whitelistUser",
      "outputs": [],
      "stateMutability": "nonpayable",
      "type": "function"
    },
    {
      "inputs": [
        {
          "internalType": "address",
          "name": "_user",
          "type": "address"
        }
      ],
      "name": "removeWhitelistUser",
      "outputs": [],
      "stateMutability": "nonpayable",
      "type": "function"
    },
    {
      "inputs": [],
      "name": "withdrawMatic",
      "outputs": [],
      "stateMutability": "nonpayable",
      "type": "function"
    }
  ],
  "bytecode": "0x6080604052600e80546001600160a01b03191630179055671bc16d674ec80000600f8190556010556107d0601155600a6013556014805460ff191690553480156200004957600080fd5b50604051620037e3380380620037e38339810160408190526200006c916200027c565b60408051808201825260088152676e416e696d616c7360c01b6020808301918252835180850190945260048452634e414e4960e01b908401528151919291620000b891600091620001d6565b508051620000ce906001906020840190620001d6565b50506001600a5550620000ea620000e462000109565b6200010d565b600b805460ff60a01b1916905562000102816200015f565b50620003d3565b3390565b600b80546001600160a01b038381166001600160a01b0319831681179093556040519116919082907f8be0079c531659141344cd1fd0a4f28419497f9722a3daafe3b4186f6b6457e090600090a35050565b6200016962000109565b6001600160a01b03166200017c620001c7565b6001600160a01b031614620001ae5760405162461bcd60e51b8152600401620001a5906200034b565b60405180910390fd5b8051620001c390600c906020840190620001d6565b5050565b600b546001600160a01b031690565b828054620001e49062000380565b90600052602060002090601f01602090048101928262000208576000855562000253565b82601f106200022357805160ff191683800117855562000253565b8280016001018555821562000253579182015b828111156200025357825182559160200191906001019062000236565b506200026192915062000265565b5090565b5b8082111562000261576000815560010162000266565b600060208083850312156200028f578182fd5b82516001600160401b0380821115620002a6578384fd5b818501915085601f830112620002ba578384fd5b815181811115620002cf57620002cf620003bd565b604051601f8201601f1916810185018381118282101715620002f557620002f5620003bd565b60405281815283820185018810156200030c578586fd5b8592505b818310156200032f578383018501518184018601529184019162000310565b818311156200034057858583830101525b979650505050505050565b6020808252818101527f4f776e61626c653a2063616c6c6572206973206e6f7420746865206f776e6572604082015260600190565b6002810460018216806200039557607f821691505b60208210811415620003b757634e487b7160e01b600052602260045260246000fd5b50919050565b634e487b7160e01b600052604160045260246000fd5b61340080620003e36000396000f3fe60806040526004361061027d5760003560e01c80636c0360eb1161014f578063b2801de4116100c1578063d936547e1161007a578063d936547e146106e3578063e985e9c514610703578063eeb2f3c614610723578063f2fde38b14610743578063f4a0a52814610763578063f6b4dfb4146107835761027d565b8063b2801de414610646578063b88d4fde14610666578063c285e10714610686578063c87b56dd1461069b578063c8c18842146106bb578063d20ae6ed146106ce5761027d565b80638456cb59116101135780638456cb59146105bf5780638da5cb5b146105d457806395d89b41146105e9578063a0712d68146105fe578063a22cb46514610611578063ae9aea6d146106315761027d565b80636c0360eb1461054057806370a0823114610555578063715018a6146105755780637f00c7a61461058a578063810074c6146105aa5761027d565b80633f4ba83a116101f357806356982e30116101ac57806356982e30146104ac5780635c975abb146104c15780636352211e146104d65780636633b12d146104f65780636817c76c1461050b57806369074dfa146105205761027d565b80633f4ba83a146103ea57806342842e0e146103ff5780634a4c560d1461041f5780634f6ccce71461043f578063519dc8d21461045f57806355f804b31461048c5761027d565b806318160ddd1161024557806318160ddd1461033e57806318ecf365146103605780631aa2948a1461037557806323b872dd1461038a5780632f745c59146103aa57806330cc7ae0146103ca5761027d565b806301ffc9a714610282578063055f6341146102b857806306fdde03146102cf578063081812fc146102f1578063095ea7b31461031e575b600080fd5b34801561028e57600080fd5b506102a261029d3660046126c7565b610798565b6040516102af919061296b565b60405180910390f35b3480156102c457600080fd5b506102cd6107ab565b005b3480156102db57600080fd5b506102e46108a6565b6040516102af9190612976565b3480156102fd57600080fd5b5061031161030c366004612745565b610938565b6040516102af91906128a9565b34801561032a57600080fd5b506102cd61033936600461269e565b61097b565b34801561034a57600080fd5b50610353610a13565b6040516102af9190613243565b34801561036c57600080fd5b50610353610a19565b34801561038157600080fd5b50610353610a1f565b34801561039657600080fd5b506102cd6103a53660046125b0565b610a25565b3480156103b657600080fd5b506103536103c536600461269e565b610a5d565b3480156103d657600080fd5b506102cd6103e536600461255d565b610aaf565b3480156103f657600080fd5b506102cd610b0f565b34801561040b57600080fd5b506102cd61041a3660046125b0565b610b58565b34801561042b57600080fd5b506102cd61043a36600461255d565b610b73565b34801561044b57600080fd5b5061035361045a366004612745565b610bd6565b34801561046b57600080fd5b5061047f61047a36600461255d565b610c31565b6040516102af91906128fa565b34801561049857600080fd5b506102cd6104a73660046126ff565b610d22565b3480156104b857600080fd5b506102e4610d78565b3480156104cd57600080fd5b506102a2610e06565b3480156104e257600080fd5b506103116104f1366004612745565b610e16565b34801561050257600080fd5b506102cd610e4b565b34801561051757600080fd5b50610353610e96565b34801561052c57600080fd5b506102cd61053b366004612745565b610e9c565b34801561054c57600080fd5b506102e4610ee0565b34801561056157600080fd5b5061035361057036600461255d565b610eed565b34801561058157600080fd5b506102cd610f31565b34801561059657600080fd5b506102cd6105a5366004612745565b610f7a565b3480156105b657600080fd5b506102cd610fbe565b3480156105cb57600080fd5b506102cd61102c565b3480156105e057600080fd5b50610311611073565b3480156105f557600080fd5b506102e4611082565b6102cd61060c366004612745565b611091565b34801561061d57600080fd5b506102cd61062c366004612664565b611382565b34801561063d57600080fd5b50610353611450565b34801561065257600080fd5b506102cd6106613660046126ff565b611456565b34801561067257600080fd5b506102cd6106813660046125eb565b6114a8565b34801561069257600080fd5b506103536114e7565b3480156106a757600080fd5b506102e46106b6366004612745565b6114ed565b6102cd6106c9366004612745565b6115b3565b3480156106da57600080fd5b506102a2611828565b3480156106ef57600080fd5b506102a26106fe36600461255d565b611831565b34801561070f57600080fd5b506102a261071e36600461257e565b611846565b34801561072f57600080fd5b506102cd61073e366004612745565b611874565b34801561074f57600080fd5b506102cd61075e36600461255d565b6118b8565b34801561076f57600080fd5b506102cd61077e366004612745565b611929565b34801561078f57600080fd5b5061031161196d565b60006107a38261197c565b90505b919050565b6107b36119a1565b6001600160a01b03166107c4611073565b6001600160a01b0316146107f35760405162461bcd60e51b81526004016107ea90612fad565b60405180910390fd5b6107fb610a13565b6012541015801561081057506107d060125410155b61082c5760405162461bcd60e51b81526004016107ea90612b2e565b60405160200161083b906128a6565b60405160208183030381529060405280519060200120600d604051602001610863919061280b565b6040516020818303038152906040528051906020012014156108975760405162461bcd60e51b81526004016107ea90612ba8565b6014805460ff19166001179055565b6060600080546108b5906132e6565b80601f01602080910402602001604051908101604052809291908181526020018280546108e1906132e6565b801561092e5780601f106109035761010080835404028352916020019161092e565b820191906000526020600020905b81548152906001019060200180831161091157829003601f168201915b5050505050905090565b6000610943826119a5565b61095f5760405162461bcd60e51b81526004016107ea90612f61565b506000908152600460205260409020546001600160a01b031690565b600061098682610e16565b9050806001600160a01b0316836001600160a01b031614156109ba5760405162461bcd60e51b81526004016107ea9061307a565b806001600160a01b03166109cc6119a1565b6001600160a01b031614806109e857506109e88161071e6119a1565b610a045760405162461bcd60e51b81526004016107ea90612da7565b610a0e83836119c2565b505050565b60085490565b60105481565b60125481565b610a36610a306119a1565b82611a30565b610a525760405162461bcd60e51b81526004016107ea9061316f565b610a0e838383611ab5565b6000610a6883610eed565b8210610a865760405162461bcd60e51b81526004016107ea906129b7565b506001600160a01b03919091166000908152600660209081526040808320938352929052205490565b610ab76119a1565b6001600160a01b0316610ac8611073565b6001600160a01b031614610aee5760405162461bcd60e51b81526004016107ea90612fad565b6001600160a01b03166000908152601760205260409020805460ff19169055565b610b176119a1565b6001600160a01b0316610b28611073565b6001600160a01b031614610b4e5760405162461bcd60e51b81526004016107ea90612fad565b610b56611be2565b565b610a0e838383604051806020016040528060008152506114a8565b610b7b6119a1565b6001600160a01b0316610b8c611073565b6001600160a01b031614610bb25760405162461bcd60e51b81526004016107ea90612fad565b6001600160a01b03166000908152601760205260409020805460ff19166001179055565b6000610be0610a13565b8210610bfe5760405162461bcd60e51b81526004016107ea906131c0565b60088281548110610c1f57634e487b7160e01b600052603260045260246000fd5b90600052602060002001549050919050565b60606000610c3e83610eed565b905060008167ffffffffffffffff811115610c6957634e487b7160e01b600052604160045260246000fd5b604051908082528060200260200182016040528015610ca257816020015b610c8f612423565b815260200190600190039081610c875790505b50905060005b82811015610d1a576000610cbc8683610a5d565b90506040518060400160405280828152602001610cd8836114ed565b815250838381518110610cfb57634e487b7160e01b600052603260045260246000fd5b6020026020010181905250508080610d1290613321565b915050610ca8565b509392505050565b610d2a6119a1565b6001600160a01b0316610d3b611073565b6001600160a01b031614610d615760405162461bcd60e51b81526004016107ea90612fad565b8051610d7490600c90602084019061243d565b5050565b600d8054610d85906132e6565b80601f0160208091040260200160405190810160405280929190818152602001828054610db1906132e6565b8015610dfe5780601f10610dd357610100808354040283529160200191610dfe565b820191906000526020600020905b815481529060010190602001808311610de157829003601f168201915b505050505081565b600b54600160a01b900460ff1690565b6000818152600260205260408120546001600160a01b0316806107a35760405162461bcd60e51b81526004016107ea90612e4e565b610e536119a1565b6001600160a01b0316610e64611073565b6001600160a01b031614610e8a5760405162461bcd60e51b81526004016107ea90612fad565b6014805460ff19169055565b600f5481565b610ea46119a1565b6001600160a01b0316610eb5611073565b6001600160a01b031614610edb5760405162461bcd60e51b81526004016107ea90612fad565b601055565b600c8054610d85906132e6565b60006001600160a01b038216610f155760405162461bcd60e51b81526004016107ea90612e04565b506001600160a01b031660009081526003602052604090205490565b610f396119a1565b6001600160a01b0316610f4a611073565b6001600160a01b031614610f705760405162461bcd60e51b81526004016107ea90612fad565b610b566000611c53565b610f826119a1565b6001600160a01b0316610f93611073565b6001600160a01b031614610fb95760405162461bcd60e51b81526004016107ea90612fad565b601355565b610fc66119a1565b6001600160a01b0316610fd7611073565b6001600160a01b031614610ffd5760405162461bcd60e51b81526004016107ea90612fad565b6040514790339082156108fc029083906000818181858888f19350505050158015610d74573d6000803e3d6000fd5b6110346119a1565b6001600160a01b0316611045611073565b6001600160a01b03161461106b5760405162461bcd60e51b81526004016107ea90612fad565b610b56611ca5565b600b546001600160a01b031690565b6060600180546108b5906132e6565b611099610e06565b156110b65760405162461bcd60e51b81526004016107ea90612d14565b60006110c0610a13565b905060006110cd83611d06565b90506000600c80546110de906132e6565b80601f016020809104026020016040519081016040528092919081815260200182805461110a906132e6565b80156111575780601f1061112c57610100808354040283529160200191611157565b820191906000526020600020905b81548152906001019060200180831161113a57829003601f168201915b505050505090506000841161117e5760405162461bcd60e51b81526004016107ea90612e97565b6013548411156111cf6040518060600160405280602281526020016133a9602291396111ab601354611d16565b60405180604001604052806006815260200165206e4547477360d01b815250611e31565b906111ed5760405162461bcd60e51b81526004016107ea9190612976565b506111f6611073565b6001600160a01b0316336001600160a01b03161461124257600a8461121a33610eed565b6112249190613258565b11156112425760405162461bcd60e51b81526004016107ea906130bb565b60115461124f8585613258565b111561126d5760405162461bcd60e51b81526004016107ea90612f0e565b611275611073565b6001600160a01b0316336001600160a01b031614611319573360009081526017602052604090205460ff1615156001146113195733318211156112ca5760405162461bcd60e51b81526004016107ea90612a9a565b813410156112ea5760405162461bcd60e51b81526004016107ea90612d3e565b604051339083156108fc029084906000818181858888f19350505050158015611317573d6000803e3d6000fd5b505b60005b8481101561137b5760006113306015611e60565b905060006113468461134184611d16565b611e64565b90506113523383611e90565b61135c8282611eaa565b6113666015611ec9565b5050808061137390613321565b91505061131c565b5050505050565b61138a6119a1565b6001600160a01b0316826001600160a01b031614156113bb5760405162461bcd60e51b81526004016107ea90612c23565b80600560006113c86119a1565b6001600160a01b03908116825260208083019390935260409182016000908120918716808252919093529120805460ff19169215159290921790915561140c6119a1565b6001600160a01b03167f17307eab39ab6107e8899845ad3d59bd9653f200f220920489ca2b5937696c3183604051611444919061296b565b60405180910390a35050565b60135481565b61145e6119a1565b6001600160a01b031661146f611073565b6001600160a01b0316146114955760405162461bcd60e51b81526004016107ea90612fad565b8051610d7490600d90602084019061243d565b6114b96114b36119a1565b83611a30565b6114d55760405162461bcd60e51b81526004016107ea9061316f565b6114e184848484611ed2565b50505050565b60115481565b60606114f8826119a5565b6115145760405162461bcd60e51b81526004016107ea9061302b565b6000828152601660205260408120805461152d906132e6565b80601f0160208091040260200160405190810160405280929190818152602001828054611559906132e6565b80156115a65780601f1061157b576101008083540402835291602001916115a6565b820191906000526020600020905b81548152906001019060200180831161158957829003601f168201915b5093979650505050505050565b6115bb610e06565b156115d85760405162461bcd60e51b81526004016107ea90612d14565b6002600a5414156115fb5760405162461bcd60e51b81526004016107ea9061320c565b6002600a55600d805460009161169b91611614906132e6565b80601f0160208091040260200160405190810160405280929190818152602001828054611640906132e6565b801561168d5780601f106116625761010080835404028352916020019161168d565b820191906000526020600020905b81548152906001019060200180831161167057829003601f168201915b505050505061134184611d16565b6014805460ff1916600117905590506107d08211156116cc5760405162461bcd60e51b81526004016107ea90612b7d565b60006116d96105706119a1565b116116f65760405162461bcd60e51b81526004016107ea90612c5a565b6116ff82610e16565b6001600160a01b03166117106119a1565b6001600160a01b0316146117365760405162461bcd60e51b81526004016107ea90612cdd565b61173e611073565b6001600160a01b0316336001600160a01b0316146117e7573360009081526017602052604090205460ff1615156001146117e757601054333110156117955760405162461bcd60e51b81526004016107ea90612a9a565b6010543410156117b75760405162461bcd60e51b81526004016107ea90613106565b601054604051339180156108fc02916000818181858888f193505050501580156117e5573d6000803e3d6000fd5b505b6117fe33601254846117f99190613258565b611e90565b6118156012548361180f9190613258565b82611eaa565b61181f6015611ec9565b50506001600a55565b60145460ff1681565b60176020526000908152604090205460ff1681565b6001600160a01b03918216600090815260056020908152604080832093909416825291909152205460ff1690565b61187c6119a1565b6001600160a01b031661188d611073565b6001600160a01b0316146118b35760405162461bcd60e51b81526004016107ea90612fad565b601255565b6118c06119a1565b6001600160a01b03166118d1611073565b6001600160a01b0316146118f75760405162461bcd60e51b81526004016107ea90612fad565b6001600160a01b03811661191d5760405162461bcd60e51b81526004016107ea90612a54565b61192681611c53565b50565b6119316119a1565b6001600160a01b0316611942611073565b6001600160a01b0316146119685760405162461bcd60e51b81526004016107ea90612fad565b600f55565b600e546001600160a01b031681565b60006001600160e01b0319821663780e9d6360e01b14806107a357506107a382611f05565b3390565b6000908152600260205260409020546001600160a01b0316151590565b600081815260046020526040902080546001600160a01b0319166001600160a01b03841690811790915581906119f782610e16565b6001600160a01b03167f8c5be1e5ebec7d5bd14f71427d1e84f3dd0314c0f7b2291e5b200ac8c7c3b92560405160405180910390a45050565b6000611a3b826119a5565b611a575760405162461bcd60e51b81526004016107ea90612c91565b6000611a6283610e16565b9050806001600160a01b0316846001600160a01b03161480611a9d5750836001600160a01b0316611a9284610938565b6001600160a01b0316145b80611aad5750611aad8185611846565b949350505050565b826001600160a01b0316611ac882610e16565b6001600160a01b031614611aee5760405162461bcd60e51b81526004016107ea90612fe2565b6001600160a01b038216611b145760405162461bcd60e51b81526004016107ea90612bdf565b611b1f838383611f45565b611b2a6000826119c2565b6001600160a01b0383166000908152600360205260408120805460019290611b539084906132a3565b90915550506001600160a01b0382166000908152600360205260408120805460019290611b81908490613258565b909155505060008181526002602052604080822080546001600160a01b0319166001600160a01b0386811691821790925591518493918716917fddf252ad1be2c89b69c2b068fc378daa952ba7f163c4a11628f55a4df523b3ef91a4505050565b611bea610e06565b611c065760405162461bcd60e51b81526004016107ea90612989565b600b805460ff60a01b191690557f5db9ee0a495bf2e6ff9c91a7834c1ba4fdd244a5e8aa4e537bd38aeae4b073aa611c3c6119a1565b604051611c4991906128a9565b60405180910390a1565b600b80546001600160a01b038381166001600160a01b0319831681179093556040519116919082907f8be0079c531659141344cd1fd0a4f28419497f9722a3daafe3b4186f6b6457e090600090a35050565b611cad610e06565b15611cca5760405162461bcd60e51b81526004016107ea90612d14565b600b805460ff60a01b1916600160a01b1790557f62e78cea01bee320cd4e420270b5ea74000d11b0c9f74754ebdbfc544b05a258611c3c6119a1565b600081600f546107a39190613284565b606081611d3b57506040805180820190915260018152600360fc1b60208201526107a6565b8160005b8115611d655780611d4f81613321565b9150611d5e9050600a83613270565b9150611d3f565b60008167ffffffffffffffff811115611d8e57634e487b7160e01b600052604160045260246000fd5b6040519080825280601f01601f191660200182016040528015611db8576020820181803683370190505b5090505b8415611aad57611dcd6001836132a3565b9150611dda600a8661333c565b611de5906030613258565b60f81b818381518110611e0857634e487b7160e01b600052603260045260246000fd5b60200101906001600160f81b031916908160001a905350611e2a600a86613270565b9450611dbc565b6060838383604051602001611e4893929190612789565b60405160208183030381529060405290509392505050565b5490565b60608282604051602001611e799291906127cc565b604051602081830303815290604052905092915050565b610d74828260405180602001604052806000815250611f50565b60008281526016602090815260409091208251610a0e9284019061243d565b80546001019055565b611edd848484611ab5565b611ee984848484611f83565b6114e15760405162461bcd60e51b81526004016107ea90612a02565b60006001600160e01b031982166380ac58cd60e01b1480611f3657506001600160e01b03198216635b5e139f60e01b145b806107a357506107a38261209e565b610a0e8383836120b7565b611f5a8383612140565b611f676000848484611f83565b610a0e5760405162461bcd60e51b81526004016107ea90612a02565b6000611f97846001600160a01b031661221f565b1561209357836001600160a01b031663150b7a02611fb36119a1565b8786866040518563ffffffff1660e01b8152600401611fd594939291906128bd565b602060405180830381600087803b158015611fef57600080fd5b505af192505050801561201f575060408051601f3d908101601f1916820190925261201c918101906126e3565b60015b612079573d80801561204d576040519150601f19603f3d011682016040523d82523d6000602084013e612052565b606091505b5080516120715760405162461bcd60e51b81526004016107ea90612a02565b805181602001fd5b6001600160e01b031916630a85bd0160e11b149050611aad565b506001949350505050565b6001600160e01b031981166301ffc9a760e01b14919050565b6120c2838383610a0e565b6001600160a01b0383166120de576120d981612225565b612101565b816001600160a01b0316836001600160a01b031614612101576121018382612269565b6001600160a01b03821661211d5761211881612306565b610a0e565b826001600160a01b0316826001600160a01b031614610a0e57610a0e82826123df565b6001600160a01b0382166121665760405162461bcd60e51b81526004016107ea90612ed9565b61216f816119a5565b1561218c5760405162461bcd60e51b81526004016107ea90612af7565b61219860008383611f45565b6001600160a01b03821660009081526003602052604081208054600192906121c1908490613258565b909155505060008181526002602052604080822080546001600160a01b0319166001600160a01b03861690811790915590518392907fddf252ad1be2c89b69c2b068fc378daa952ba7f163c4a11628f55a4df523b3ef908290a45050565b3b151590565b600880546000838152600960205260408120829055600182018355919091527ff3f7a9fe364faab93b216da50a3214154f22a0a2b415b23a84c8169e8b636ee30155565b6000600161227684610eed565b61228091906132a3565b6000838152600760205260409020549091508082146122d3576001600160a01b03841660009081526006602090815260408083208584528252808320548484528184208190558352600790915290208190555b5060009182526007602090815260408084208490556001600160a01b039094168352600681528383209183525290812055565b600854600090612318906001906132a3565b6000838152600960205260408120546008805493945090928490811061234e57634e487b7160e01b600052603260045260246000fd5b90600052602060002001549050806008838154811061237d57634e487b7160e01b600052603260045260246000fd5b60009182526020808320909101929092558281526009909152604080822084905585825281205560088054806123c357634e487b7160e01b600052603160045260246000fd5b6001900381819060005260206000200160009055905550505050565b60006123ea83610eed565b6001600160a01b039093166000908152600660209081526040808320868452825280832085905593825260079052919091209190915550565b604051806040016040528060008152602001606081525090565b828054612449906132e6565b90600052602060002090601f01602090048101928261246b57600085556124b1565b82601f1061248457805160ff19168380011785556124b1565b828001600101855582156124b1579182015b828111156124b1578251825591602001919060010190612496565b506124bd9291506124c1565b5090565b5b808211156124bd57600081556001016124c2565b600067ffffffffffffffff808411156124f1576124f161337c565b604051601f8501601f1916810160200182811182821017156125155761251561337c565b60405284815291508183850186101561252d57600080fd5b8484602083013760006020868301015250509392505050565b80356001600160a01b03811681146107a657600080fd5b60006020828403121561256e578081fd5b61257782612546565b9392505050565b60008060408385031215612590578081fd5b61259983612546565b91506125a760208401612546565b90509250929050565b6000806000606084860312156125c4578081fd5b6125cd84612546565b92506125db60208501612546565b9150604084013590509250925092565b60008060008060808587031215612600578081fd5b61260985612546565b935061261760208601612546565b925060408501359150606085013567ffffffffffffffff811115612639578182fd5b8501601f81018713612649578182fd5b612658878235602084016124d6565b91505092959194509250565b60008060408385031215612676578182fd5b61267f83612546565b915060208301358015158114612693578182fd5b809150509250929050565b600080604083850312156126b0578182fd5b6126b983612546565b946020939093013593505050565b6000602082840312156126d8578081fd5b813561257781613392565b6000602082840312156126f4578081fd5b815161257781613392565b600060208284031215612710578081fd5b813567ffffffffffffffff811115612726578182fd5b8201601f81018413612736578182fd5b611aad848235602084016124d6565b600060208284031215612756578081fd5b5035919050565b600081518084526127758160208601602086016132ba565b601f01601f19169290920160200192915050565b6000845161279b8184602089016132ba565b8451908301906127af8183602089016132ba565b84519101906127c28183602088016132ba565b0195945050505050565b600083516127de8184602088016132ba565b8351908301906127f28183602088016132ba565b64173539b7b760d91b9101908152600501949350505050565b815460009081906002810460018083168061282757607f831692505b602080841082141561284757634e487b7160e01b87526022600452602487fd5b81801561285b576001811461286c57612898565b60ff19861689528489019650612898565b6128758a61324c565b885b868110156128905781548b820152908501908301612877565b505084890196505b509498975050505050505050565b90565b6001600160a01b0391909116815260200190565b6001600160a01b03858116825284166020820152604081018390526080606082018190526000906128f09083018461275d565b9695505050505050565b60208082528251828201819052600091906040908185019080840286018301878501865b8381101561295d57888303603f1901855281518051845287015187840187905261294a8785018261275d565b958801959350509086019060010161291e565b509098975050505050505050565b901515815260200190565b600060208252612577602083018461275d565b60208082526014908201527314185d5cd8589b194e881b9bdd081c185d5cd95960621b604082015260600190565b6020808252602b908201527f455243373231456e756d657261626c653a206f776e657220696e646578206f7560408201526a74206f6620626f756e647360a81b606082015260800190565b60208082526032908201527f4552433732313a207472616e7366657220746f206e6f6e20455243373231526560408201527131b2b4bb32b91034b6b83632b6b2b73a32b960711b606082015260800190565b60208082526026908201527f4f776e61626c653a206e6577206f776e657220697320746865207a65726f206160408201526564647265737360d01b606082015260800190565b6020808252603a908201527f596f75722077616c6c657420646f65736e2774206861766520656e6f7567682060408201527f4d4154494320666f7220796f7572207472616e73616374696f6e000000000000606082015260800190565b6020808252601c908201527f4552433732313a20746f6b656e20616c7265616479206d696e74656400000000604082015260600190565b6020808252602f908201527f67656e5374617274206d75737420626520686967686572207468616e2074686560408201526e2063757272656e7420737570706c7960881b606082015260800190565b6020808252601190820152706e454747206f7574206f662072616e676560781b604082015260600190565b6020808252601c908201527f52656d656d62657220746f207365742074686520686174636855524900000000604082015260600190565b60208082526024908201527f4552433732313a207472616e7366657220746f20746865207a65726f206164646040820152637265737360e01b606082015260800190565b60208082526019908201527f4552433732313a20617070726f766520746f2063616c6c657200000000000000604082015260600190565b6020808252601f908201527f6e454747206e656564656420746f2062652061626c6520746f20686174636800604082015260600190565b6020808252602c908201527f4552433732313a206f70657261746f7220717565727920666f72206e6f6e657860408201526b34b9ba32b73a103a37b5b2b760a11b606082015260800190565b60208082526017908201527f596f7520646f6e2774206f776e2074686973206e454747000000000000000000604082015260600190565b60208082526010908201526f14185d5cd8589b194e881c185d5cd95960821b604082015260600190565b60208082526043908201527f596f7520686176656e27742073656e7420656e6f756768204d4154494320696e60408201527f20746865207472616e73616374696f6e20746f206d696e7420796f7572206e4560608201526247477360e81b608082015260a00190565b60208082526038908201527f4552433732313a20617070726f76652063616c6c6572206973206e6f74206f7760408201527f6e6572206e6f7220617070726f76656420666f7220616c6c0000000000000000606082015260800190565b6020808252602a908201527f4552433732313a2062616c616e636520717565727920666f7220746865207a65604082015269726f206164647265737360b01b606082015260800190565b60208082526029908201527f4552433732313a206f776e657220717565727920666f72206e6f6e657869737460408201526832b73a103a37b5b2b760b91b606082015260800190565b60208082526022908201527f4d696e7420616d6f756e74206d7573742062652067726561746572207468616e604082015261020360f41b606082015260800190565b6020808252818101527f4552433732313a206d696e7420746f20746865207a65726f2061646472657373604082015260600190565b60208082526033908201527f596f7527726520747279696e6720746f206d696e74206d6f7265206e45474773604082015272207468616e2077652068617665206c6566742160681b606082015260800190565b6020808252602c908201527f4552433732313a20617070726f76656420717565727920666f72206e6f6e657860408201526b34b9ba32b73a103a37b5b2b760a11b606082015260800190565b6020808252818101527f4f776e61626c653a2063616c6c6572206973206e6f7420746865206f776e6572604082015260600190565b60208082526029908201527f4552433732313a207472616e73666572206f6620746f6b656e2074686174206960408201526839903737ba1037bbb760b91b606082015260800190565b6020808252602f908201527f4552433732314d657461646174613a2055524920717565727920666f72206e6f60408201526e3732bc34b9ba32b73a103a37b5b2b760891b606082015260800190565b60208082526021908201527f4552433732313a20617070726f76616c20746f2063757272656e74206f776e656040820152603960f91b606082015260800190565b6020808252602b908201527f596f752063616e206f6e6c79206d696e7420757020746f203130206e4547477360408201526a081c195c881dd85b1b195d60aa1b606082015260800190565b60208082526043908201527f596f7520686176656e27742073656e7420656e6f756768204d4154494320696e60408201527f20746865207472616e73616374696f6e20746f20686174636820796f7572206e60608201526245474760e81b608082015260a00190565b60208082526031908201527f4552433732313a207472616e736665722063616c6c6572206973206e6f74206f6040820152701ddb995c881b9bdc88185c1c1c9bdd9959607a1b606082015260800190565b6020808252602c908201527f455243373231456e756d657261626c653a20676c6f62616c20696e646578206f60408201526b7574206f6620626f756e647360a01b606082015260800190565b6020808252601f908201527f5265656e7472616e637947756172643a207265656e7472616e742063616c6c00604082015260600190565b90815260200190565b60009081526020902090565b6000821982111561326b5761326b613350565b500190565b60008261327f5761327f613366565b500490565b600081600019048311821515161561329e5761329e613350565b500290565b6000828210156132b5576132b5613350565b500390565b60005b838110156132d55781810151838201526020016132bd565b838111156114e15750506000910152565b6002810460018216806132fa57607f821691505b6020821081141561331b57634e487b7160e01b600052602260045260246000fd5b50919050565b600060001982141561333557613335613350565b5060010190565b60008261334b5761334b613366565b500690565b634e487b7160e01b600052601160045260246000fd5b634e487b7160e01b600052601260045260246000fd5b634e487b7160e01b600052604160045260246000fd5b6001600160e01b03198116811461192657600080fdfe596f752063616e2063757272656e746c79206f6e6c79206d696e7420757020746f20a264697066735822122002be8ba8a8a44b60e55c10caf8085947a37d733cb7c7d63e3e84b1f6608443ad64736f6c63430008000033",
  "immutableReferences": {},
  "source": "// SPDX-License-Identifier: MIT\n\npragma solidity ^0.8.0;\nimport \"@openzeppelin/contracts/token/ERC721/ERC721.sol\";\nimport \"@openzeppelin/contracts/token/ERC721/extensions/ERC721Enumerable.sol\";\nimport \"@openzeppelin/contracts/security/ReentrancyGuard.sol\";\nimport \"@openzeppelin/contracts/utils/Counters.sol\";\nimport \"@openzeppelin/contracts/access/Ownable.sol\";\nimport \"@openzeppelin/contracts/security/Pausable.sol\";\n\ncontract nAnimals is ERC721, ERC721Enumerable, ReentrancyGuard, Ownable, Pausable {\n    using Counters for Counters.Counter;\n    using Strings for uint256;\n    \n    string public baseURI;\n    string public hatchURI;\n    address public contractAddress = address(this);\n    uint256 public mintPrice = 2 ether;\n    uint256 public hatchPrice = 2 ether;\n    uint256 public maxMintSupply = 2000;\n    uint256 public genStart;\n    uint256 public maxMintQuantity = 10;\n    bool public hatchingActive = false;\n    Counters.Counter _tokenIds;\n    \n    mapping(uint256 => string) _tokenURIs;\n    mapping (address => bool) public whitelisted;\n    \n    struct RenderUserToken {\n        uint256 id;\n        string uri;\n    }\n    \n    constructor(string memory _initBaseURI) ERC721(\"nAnimals\", \"NANI\") {\n        setBaseURI(_initBaseURI);\n    }\n    \n    // internal\n    function _baseURI() internal view virtual override returns (string memory) {\n        return baseURI;\n    }\n    \n    function _setTokenURI(uint256 tokenId, string memory _tokenURI) internal {\n        _tokenURIs[tokenId] = _tokenURI;\n    }\n    \n    function calculatePrice(uint256 numberOfTokens) internal view returns (uint256)\n    {\n      return mintPrice * numberOfTokens;\n    }\n\n    function concatJSON(string memory strOne, string memory strTwo) private pure returns (string memory) {\n        return string(abi.encodePacked(strOne, strTwo, \".json\"));\n    }\n    \n    function concatStrings(string memory strOne, string memory strTwo, string memory strThree) private pure returns (string memory) {\n        return string(abi.encodePacked(strOne, strTwo, strThree));\n    }\n    \n    function _beforeTokenTransfer(address from, address to, uint256 tokenId) internal virtual override(ERC721, ERC721Enumerable) {\n        super._beforeTokenTransfer(from, to, tokenId);\n    }\n\n    // public\n    function mint(uint256 _mintQuantity) public payable whenNotPaused {\n        uint256 supply = totalSupply();\n        uint256 mintCost = calculatePrice(_mintQuantity);\n        string memory uri = baseURI;\n        require(_mintQuantity > 0, \"Mint amount must be greater than 0\");\n        require(_mintQuantity <= maxMintQuantity, concatStrings(\"You can currently only mint up to \", Strings.toString(maxMintQuantity), \" nEGGs\"));\n        if (msg.sender != owner()) {\n            require(balanceOf(msg.sender) + _mintQuantity <=10, \"You can only mint up to 10 nEGGs per wallet\");\n        }\n        require(supply + _mintQuantity <= maxMintSupply, \"You're trying to mint more nEGGs than we have left!\");\n        if (msg.sender != owner()) {\n            if(whitelisted[msg.sender] != true) {\n                require(msg.sender.balance >= mintCost, \"Your wallet doesn't have enough MATIC for your transaction\");\n                require(msg.value >= mintCost, \"You haven't sent enough MATIC in the transaction to mint your nEGGs\");\n                payable(msg.sender).transfer(mintCost);\n            }\n        }\n        for (uint256 i = 0; i < _mintQuantity; i++) {\n            uint256 newId = _tokenIds.current();\n            string memory newUri = concatJSON(uri, Strings.toString(newId));\n            _safeMint(msg.sender, newId);\n            _setTokenURI(newId, newUri);\n            _tokenIds.increment();\n        }\n    }\n    \n    function hatch(uint256 tokenId) public payable whenNotPaused nonReentrant {\n        string memory uri = concatJSON(hatchURI, Strings.toString(tokenId));\n        require(hatchingActive = true);\n        require(0 <= tokenId && tokenId <= 2000, \"nEGG out of range\");\n        require(balanceOf(_msgSender()) > 0, \"nEGG needed to be able to hatch\");\n        require(_msgSender() == ownerOf(tokenId), \"You don't own this nEGG\");\n        if (msg.sender != owner()) {\n            if(whitelisted[msg.sender] != true) {\n                require(msg.sender.balance >= hatchPrice, \"Your wallet doesn't have enough MATIC for your transaction\");\n                require(msg.value >= hatchPrice, \"You haven't sent enough MATIC in the transaction to hatch your nEGG\");\n                payable(msg.sender).transfer(hatchPrice);\n            }\n        }\n        _safeMint(msg.sender, tokenId+genStart);\n        _setTokenURI(tokenId+genStart, uri);\n        _tokenIds.increment();\n    }\n\n    function tokenURI(uint256 tokenId) public view virtual override returns(string memory) {\n        require(_exists(tokenId), \"ERC721Metadata: URI query for nonexistent token\");\n        string memory _tokenURI = _tokenURIs[tokenId];\n        return _tokenURI;\n    }\n\n    function getUserTokens(address _owner) public view returns(RenderUserToken[] memory) {\n        uint256 ownerTokenCount = balanceOf(_owner);\n        RenderUserToken[] memory res = new RenderUserToken[](ownerTokenCount);\n        for(uint256 i = 0; i < ownerTokenCount; i++) {\n            uint256 tokenId = tokenOfOwnerByIndex(_owner, i);\n            res[i] = RenderUserToken(tokenId, tokenURI(tokenId));\n        }\n        return res;\n    }\n    \n    function supportsInterface(bytes4 interfaceId) public view virtual override(ERC721, ERC721Enumerable) returns (bool) {\n        return super.supportsInterface(interfaceId);\n    }\n\n    // only owner\n    function setBaseURI(string memory _newBaseURI) public onlyOwner {\n        baseURI = _newBaseURI;\n    }\n    \n    function setGenStart(uint256 _newGenStart) public onlyOwner {\n        genStart = _newGenStart;\n    }\n    \n    function setHatchURI(string memory _newHatchURI) public onlyOwner {\n        hatchURI = _newHatchURI;\n    }\n        \n    function pause() public onlyOwner {\n        _pause();\n    }\n    \n    function unpause() public onlyOwner {\n        _unpause();\n    }\n    \n    function hatchingOn() public onlyOwner {\n        require(genStart >= totalSupply() && genStart >= 2000, \"genStart must be higher than the current supply\");\n        require (keccak256(abi.encodePacked(hatchURI)) != keccak256(abi.encodePacked(\"\")), \"Remember to set the hatchURI\");\n        hatchingActive = true;\n    }\n\n    function hatchingOff() public onlyOwner {\n        hatchingActive = false;\n    }\n    \n    function setMintPrice(uint256 newMintPrice) public onlyOwner {\n        mintPrice = newMintPrice;\n    }\n    \n    function setHatchPrice(uint256 newHatchPrice) public onlyOwner {\n        hatchPrice = newHatchPrice;\n    }\n      \n    function setmaxMintAmount(uint256 _newmaxMintQuantity) public onlyOwner() {\n        maxMintQuantity = _newmaxMintQuantity;\n    }\n  \n    function whitelistUser(address _user) public onlyOwner {\n        whitelisted[_user] = true;\n    }\n     \n    function removeWhitelistUser(address _user) public onlyOwner {\n        whitelisted[_user] = false;\n    }\n    \n    function withdrawMatic() public onlyOwner {\n        uint256 balance = address(this).balance;\n        payable(msg.sender).transfer(balance);\n    }\n\n}",
  "sourcePath": "/Users/sean/Documents/Coding/nAnimals/dApp/contracts/nAnimals.sol",
  "compiler": {
    "name": "solc",
    "version": "0.8.0+commit.c7dfd78e.Emscripten.clang"
  },
  "schemaVersion": "3.4.3",
  "updatedAt": "2021-10-17T13:11:09.791Z",
  "networkType": "ethereum",
  "devdoc": {
    "kind": "dev",
    "methods": {
      "approve(address,uint256)": {
        "details": "See {IERC721-approve}."
      },
      "balanceOf(address)": {
        "details": "See {IERC721-balanceOf}."
      },
      "getApproved(uint256)": {
        "details": "See {IERC721-getApproved}."
      },
      "isApprovedForAll(address,address)": {
        "details": "See {IERC721-isApprovedForAll}."
      },
      "name()": {
        "details": "See {IERC721Metadata-name}."
      },
      "owner()": {
        "details": "Returns the address of the current owner."
      },
      "ownerOf(uint256)": {
        "details": "See {IERC721-ownerOf}."
      },
      "paused()": {
        "details": "Returns true if the contract is paused, and false otherwise."
      },
      "renounceOwnership()": {
        "details": "Leaves the contract without owner. It will not be possible to call `onlyOwner` functions anymore. Can only be called by the current owner. NOTE: Renouncing ownership will leave the contract without an owner, thereby removing any functionality that is only available to the owner."
      },
      "safeTransferFrom(address,address,uint256)": {
        "details": "See {IERC721-safeTransferFrom}."
      },
      "safeTransferFrom(address,address,uint256,bytes)": {
        "details": "See {IERC721-safeTransferFrom}."
      },
      "setApprovalForAll(address,bool)": {
        "details": "See {IERC721-setApprovalForAll}."
      },
      "symbol()": {
        "details": "See {IERC721Metadata-symbol}."
      },
      "tokenByIndex(uint256)": {
        "details": "See {IERC721Enumerable-tokenByIndex}."
      },
      "tokenOfOwnerByIndex(address,uint256)": {
        "details": "See {IERC721Enumerable-tokenOfOwnerByIndex}."
      },
      "tokenURI(uint256)": {
        "details": "See {IERC721Metadata-tokenURI}."
      },
      "totalSupply()": {
        "details": "See {IERC721Enumerable-totalSupply}."
      },
      "transferFrom(address,address,uint256)": {
        "details": "See {IERC721-transferFrom}."
      },
      "transferOwnership(address)": {
        "details": "Transfers ownership of the contract to a new account (`newOwner`). Can only be called by the current owner."
      }
    },
    "version": 1
  },
  "userdoc": {
    "kind": "user",
    "methods": {},
    "version": 1
  }
}