{
  "contractName": "SmartContract",
  "abi": [
    {
      "inputs": [],
      "stateMutability": "nonpayable",
      "type": "constructor"
    },
    {
      "anonymous": false,
      "inputs": [
        {
          "indexed": true,
          "internalType": "address",
          "name": "owner",
          "type": "address"
        },
        {
          "indexed": true,
          "internalType": "address",
          "name": "approved",
          "type": "address"
        },
        {
          "indexed": true,
          "internalType": "uint256",
          "name": "tokenId",
          "type": "uint256"
        }
      ],
      "name": "Approval",
      "type": "event"
    },
    {
      "anonymous": false,
      "inputs": [
        {
          "indexed": true,
          "internalType": "address",
          "name": "owner",
          "type": "address"
        },
        {
          "indexed": true,
          "internalType": "address",
          "name": "operator",
          "type": "address"
        },
        {
          "indexed": false,
          "internalType": "bool",
          "name": "approved",
          "type": "bool"
        }
      ],
      "name": "ApprovalForAll",
      "type": "event"
    },
    {
      "anonymous": false,
      "inputs": [
        {
          "indexed": true,
          "internalType": "address",
          "name": "previousOwner",
          "type": "address"
        },
        {
          "indexed": true,
          "internalType": "address",
          "name": "newOwner",
          "type": "address"
        }
      ],
      "name": "OwnershipTransferred",
      "type": "event"
    },
    {
      "anonymous": false,
      "inputs": [
        {
          "indexed": true,
          "internalType": "address",
          "name": "from",
          "type": "address"
        },
        {
          "indexed": true,
          "internalType": "address",
          "name": "to",
          "type": "address"
        },
        {
          "indexed": true,
          "internalType": "uint256",
          "name": "tokenId",
          "type": "uint256"
        }
      ],
      "name": "Transfer",
      "type": "event"
    },
    {
      "inputs": [
        {
          "internalType": "address",
          "name": "to",
          "type": "address"
        },
        {
          "internalType": "uint256",
          "name": "tokenId",
          "type": "uint256"
        }
      ],
      "name": "approve",
      "outputs": [],
      "stateMutability": "nonpayable",
      "type": "function"
    },
    {
      "inputs": [
        {
          "internalType": "address",
          "name": "owner",
          "type": "address"
        }
      ],
      "name": "balanceOf",
      "outputs": [
        {
          "internalType": "uint256",
          "name": "",
          "type": "uint256"
        }
      ],
      "stateMutability": "view",
      "type": "function",
      "constant": true
    },
    {
      "inputs": [
        {
          "internalType": "uint256",
          "name": "tokenId",
          "type": "uint256"
        }
      ],
      "name": "getApproved",
      "outputs": [
        {
          "internalType": "address",
          "name": "",
          "type": "address"
        }
      ],
      "stateMutability": "view",
      "type": "function",
      "constant": true
    },
    {
      "inputs": [
        {
          "internalType": "address",
          "name": "owner",
          "type": "address"
        },
        {
          "internalType": "address",
          "name": "operator",
          "type": "address"
        }
      ],
      "name": "isApprovedForAll",
      "outputs": [
        {
          "internalType": "bool",
          "name": "",
          "type": "bool"
        }
      ],
      "stateMutability": "view",
      "type": "function",
      "constant": true
    },
    {
      "inputs": [],
      "name": "maxMintAmount",
      "outputs": [
        {
          "internalType": "uint256",
          "name": "",
          "type": "uint256"
        }
      ],
      "stateMutability": "view",
      "type": "function",
      "constant": true
    },
    {
      "inputs": [],
      "name": "name",
      "outputs": [
        {
          "internalType": "string",
          "name": "",
          "type": "string"
        }
      ],
      "stateMutability": "view",
      "type": "function",
      "constant": true
    },
    {
      "inputs": [],
      "name": "owner",
      "outputs": [
        {
          "internalType": "address",
          "name": "",
          "type": "address"
        }
      ],
      "stateMutability": "view",
      "type": "function",
      "constant": true
    },
    {
      "inputs": [
        {
          "internalType": "uint256",
          "name": "tokenId",
          "type": "uint256"
        }
      ],
      "name": "ownerOf",
      "outputs": [
        {
          "internalType": "address",
          "name": "",
          "type": "address"
        }
      ],
      "stateMutability": "view",
      "type": "function",
      "constant": true
    },
    {
      "inputs": [],
      "name": "renounceOwnership",
      "outputs": [],
      "stateMutability": "nonpayable",
      "type": "function"
    },
    {
      "inputs": [
        {
          "internalType": "address",
          "name": "from",
          "type": "address"
        },
        {
          "internalType": "address",
          "name": "to",
          "type": "address"
        },
        {
          "internalType": "uint256",
          "name": "tokenId",
          "type": "uint256"
        }
      ],
      "name": "safeTransferFrom",
      "outputs": [],
      "stateMutability": "nonpayable",
      "type": "function"
    },
    {
      "inputs": [
        {
          "internalType": "address",
          "name": "from",
          "type": "address"
        },
        {
          "internalType": "address",
          "name": "to",
          "type": "address"
        },
        {
          "internalType": "uint256",
          "name": "tokenId",
          "type": "uint256"
        },
        {
          "internalType": "bytes",
          "name": "_data",
          "type": "bytes"
        }
      ],
      "name": "safeTransferFrom",
      "outputs": [],
      "stateMutability": "nonpayable",
      "type": "function"
    },
    {
      "inputs": [
        {
          "internalType": "address",
          "name": "operator",
          "type": "address"
        },
        {
          "internalType": "bool",
          "name": "approved",
          "type": "bool"
        }
      ],
      "name": "setApprovalForAll",
      "outputs": [],
      "stateMutability": "nonpayable",
      "type": "function"
    },
    {
      "inputs": [],
      "name": "symbol",
      "outputs": [
        {
          "internalType": "string",
          "name": "",
          "type": "string"
        }
      ],
      "stateMutability": "view",
      "type": "function",
      "constant": true
    },
    {
      "inputs": [
        {
          "internalType": "uint256",
          "name": "index",
          "type": "uint256"
        }
      ],
      "name": "tokenByIndex",
      "outputs": [
        {
          "internalType": "uint256",
          "name": "",
          "type": "uint256"
        }
      ],
      "stateMutability": "view",
      "type": "function",
      "constant": true
    },
    {
      "inputs": [
        {
          "internalType": "address",
          "name": "owner",
          "type": "address"
        },
        {
          "internalType": "uint256",
          "name": "index",
          "type": "uint256"
        }
      ],
      "name": "tokenOfOwnerByIndex",
      "outputs": [
        {
          "internalType": "uint256",
          "name": "",
          "type": "uint256"
        }
      ],
      "stateMutability": "view",
      "type": "function",
      "constant": true
    },
    {
      "inputs": [],
      "name": "totalSupply",
      "outputs": [
        {
          "internalType": "uint256",
          "name": "",
          "type": "uint256"
        }
      ],
      "stateMutability": "view",
      "type": "function",
      "constant": true
    },
    {
      "inputs": [
        {
          "internalType": "address",
          "name": "from",
          "type": "address"
        },
        {
          "internalType": "address",
          "name": "to",
          "type": "address"
        },
        {
          "internalType": "uint256",
          "name": "tokenId",
          "type": "uint256"
        }
      ],
      "name": "transferFrom",
      "outputs": [],
      "stateMutability": "nonpayable",
      "type": "function"
    },
    {
      "inputs": [
        {
          "internalType": "address",
          "name": "newOwner",
          "type": "address"
        }
      ],
      "name": "transferOwnership",
      "outputs": [],
      "stateMutability": "nonpayable",
      "type": "function"
    },
    {
      "inputs": [
        {
          "internalType": "address",
          "name": "",
          "type": "address"
        }
      ],
      "name": "whitelisted",
      "outputs": [
        {
          "internalType": "bool",
          "name": "",
          "type": "bool"
        }
      ],
      "stateMutability": "view",
      "type": "function",
      "constant": true
    },
    {
      "inputs": [
        {
          "internalType": "uint256",
          "name": "_mintAmount",
          "type": "uint256"
        }
      ],
      "name": "mint",
      "outputs": [],
      "stateMutability": "payable",
      "type": "function",
      "payable": true
    },
    {
      "inputs": [
        {
          "internalType": "uint256",
          "name": "tokenId",
          "type": "uint256"
        }
      ],
      "name": "tokenURI",
      "outputs": [
        {
          "internalType": "string",
          "name": "",
          "type": "string"
        }
      ],
      "stateMutability": "view",
      "type": "function",
      "constant": true
    },
    {
      "inputs": [
        {
          "internalType": "address",
          "name": "_owner",
          "type": "address"
        }
      ],
      "name": "getUserTokens",
      "outputs": [
        {
          "components": [
            {
              "internalType": "uint256",
              "name": "id",
              "type": "uint256"
            },
            {
              "internalType": "string",
              "name": "uri",
              "type": "string"
            }
          ],
          "internalType": "struct SmartContract.RenderUserToken[]",
          "name": "",
          "type": "tuple[]"
        }
      ],
      "stateMutability": "view",
      "type": "function",
      "constant": true
    },
    {
      "inputs": [
        {
          "internalType": "bytes4",
          "name": "interfaceId",
          "type": "bytes4"
        }
      ],
      "name": "supportsInterface",
      "outputs": [
        {
          "internalType": "bool",
          "name": "",
          "type": "bool"
        }
      ],
      "stateMutability": "view",
      "type": "function",
      "constant": true
    }
  ],
  "bytecode": "0x6080604052600a600b553480156200001657600080fd5b5060408051808201825260088152676e416e696d616c7360c01b6020808301918252835180850190945260048452634e414e4960e01b9084015281519192916200006391600091620000f2565b50805162000079906001906020840190620000f2565b50505062000096620000906200009c60201b60201c565b620000a0565b620001d5565b3390565b600a80546001600160a01b038381166001600160a01b0319831681179093556040519116919082907f8be0079c531659141344cd1fd0a4f28419497f9722a3daafe3b4186f6b6457e090600090a35050565b828054620001009062000198565b90600052602060002090601f0160209004810192826200012457600085556200016f565b82601f106200013f57805160ff19168380011785556200016f565b828001600101855582156200016f579182015b828111156200016f57825182559160200191906001019062000152565b506200017d92915062000181565b5090565b5b808211156200017d576000815560010162000182565b600281046001821680620001ad57607f821691505b60208210811415620001cf57634e487b7160e01b600052602260045260246000fd5b50919050565b611f8080620001e56000396000f3fe6080604052600436106101405760003560e01c80636352211e116100b6578063a22cb4651161006f578063a22cb46514610362578063b88d4fde14610382578063c87b56dd146103a2578063d936547e146103c2578063e985e9c5146103e2578063f2fde38b1461040257610140565b80636352211e146102d057806370a08231146102f0578063715018a6146103105780638da5cb5b1461032557806395d89b411461033a578063a0712d681461034f57610140565b8063239c70ae11610108578063239c70ae1461020e57806323b872dd146102235780632f745c591461024357806342842e0e146102635780634f6ccce714610283578063519dc8d2146102a357610140565b806301ffc9a71461014557806306fdde031461017b578063081812fc1461019d578063095ea7b3146101ca57806318160ddd146101ec575b600080fd5b34801561015157600080fd5b50610165610160366004611773565b610422565b60405161017291906118f0565b60405180910390f35b34801561018757600080fd5b50610190610435565b60405161017291906118fb565b3480156101a957600080fd5b506101bd6101b83660046117ab565b6104c7565b604051610172919061182e565b3480156101d657600080fd5b506101ea6101e536600461174a565b610513565b005b3480156101f857600080fd5b506102016105ab565b6040516101729190611dbc565b34801561021a57600080fd5b506102016105b1565b34801561022f57600080fd5b506101ea61023e366004611609565b6105b7565b34801561024f57600080fd5b5061020161025e36600461174a565b6105ef565b34801561026f57600080fd5b506101ea61027e366004611609565b610641565b34801561028f57600080fd5b5061020161029e3660046117ab565b61065c565b3480156102af57600080fd5b506102c36102be3660046115b6565b6106b7565b604051610172919061187f565b3480156102dc57600080fd5b506101bd6102eb3660046117ab565b6107a8565b3480156102fc57600080fd5b5061020161030b3660046115b6565b6107dd565b34801561031c57600080fd5b506101ea610821565b34801561033157600080fd5b506101bd61086c565b34801561034657600080fd5b5061019061087b565b6101ea61035d3660046117ab565b61088a565b34801561036e57600080fd5b506101ea61037d366004611710565b61092f565b34801561038e57600080fd5b506101ea61039d366004611644565b6109fd565b3480156103ae57600080fd5b506101906103bd3660046117ab565b610a3c565b3480156103ce57600080fd5b506101656103dd3660046115b6565b610aef565b3480156103ee57600080fd5b506101656103fd3660046115d7565b610b04565b34801561040e57600080fd5b506101ea61041d3660046115b6565b610b32565b600061042d82610ba3565b90505b919050565b60606000805461044490611e34565b80601f016020809104026020016040519081016040528092919081815260200182805461047090611e34565b80156104bd5780601f10610492576101008083540402835291602001916104bd565b820191906000526020600020905b8154815290600101906020018083116104a057829003601f168201915b5050505050905090565b60006104d282610bc8565b6104f75760405162461bcd60e51b81526004016104ee90611c14565b60405180910390fd5b506000908152600460205260409020546001600160a01b031690565b600061051e826107a8565b9050806001600160a01b0316836001600160a01b031614156105525760405162461bcd60e51b81526004016104ee90611cde565b806001600160a01b0316610564610be5565b6001600160a01b031614806105805750610580816103fd610be5565b61059c5760405162461bcd60e51b81526004016104ee90611aef565b6105a68383610be9565b505050565b60085490565b600b5481565b6105c86105c2610be5565b82610c57565b6105e45760405162461bcd60e51b81526004016104ee90611d1f565b6105a6838383610cdc565b60006105fa836107dd565b82106106185760405162461bcd60e51b81526004016104ee9061190e565b506001600160a01b03919091166000908152600660209081526040808320938352929052205490565b6105a6838383604051806020016040528060008152506109fd565b60006106666105ab565b82106106845760405162461bcd60e51b81526004016104ee90611d70565b600882815481106106a557634e487b7160e01b600052603260045260246000fd5b90600052602060002001549050919050565b606060006106c4836107dd565b905060008167ffffffffffffffff8111156106ef57634e487b7160e01b600052604160045260246000fd5b60405190808252806020026020018201604052801561072857816020015b6107156114ec565b81526020019060019003908161070d5790505b50905060005b828110156107a057600061074286836105ef565b9050604051806040016040528082815260200161075e83610a3c565b81525083838151811061078157634e487b7160e01b600052603260045260246000fd5b602002602001018190525050808061079890611e6f565b91505061072e565b509392505050565b6000818152600260205260408120546001600160a01b03168061042d5760405162461bcd60e51b81526004016104ee90611b96565b60006001600160a01b0382166108055760405162461bcd60e51b81526004016104ee90611b4c565b506001600160a01b031660009081526003602052604090205490565b610829610be5565b6001600160a01b031661083a61086c565b6001600160a01b0316146108605760405162461bcd60e51b81526004016104ee90611c60565b61086a6000610e09565b565b600a546001600160a01b031690565b60606001805461044490611e34565b6000811161089757600080fd5b600b548111156108a657600080fd5b6000604051806080016040528060548152602001611ef760549139905060005b828110156105a65760006108da600c610e5b565b905060006108fa846108f56108f0856001611dc5565b610e5f565b610f7a565b90506109063383610fa6565b6109108282611085565b61091a600c6110a4565b5050808061092790611e6f565b9150506108c6565b610937610be5565b6001600160a01b0316826001600160a01b031614156109685760405162461bcd60e51b81526004016104ee90611a6c565b8060056000610975610be5565b6001600160a01b03908116825260208083019390935260409182016000908120918716808252919093529120805460ff1916921515929092179091556109b9610be5565b6001600160a01b03167f17307eab39ab6107e8899845ad3d59bd9653f200f220920489ca2b5937696c31836040516109f191906118f0565b60405180910390a35050565b610a0e610a08610be5565b83610c57565b610a2a5760405162461bcd60e51b81526004016104ee90611d1f565b610a36848484846110ad565b50505050565b6060610a4782610bc8565b610a5057600080fd5b6000828152600d602052604081208054610a6990611e34565b80601f0160208091040260200160405190810160405280929190818152602001828054610a9590611e34565b8015610ae25780601f10610ab757610100808354040283529160200191610ae2565b820191906000526020600020905b815481529060010190602001808311610ac557829003601f168201915b5093979650505050505050565b600e6020526000908152604090205460ff1681565b6001600160a01b03918216600090815260056020908152604080832093909416825291909152205460ff1690565b610b3a610be5565b6001600160a01b0316610b4b61086c565b6001600160a01b031614610b715760405162461bcd60e51b81526004016104ee90611c60565b6001600160a01b038116610b975760405162461bcd60e51b81526004016104ee906119ab565b610ba081610e09565b50565b60006001600160e01b0319821663780e9d6360e01b148061042d575061042d826110e0565b6000908152600260205260409020546001600160a01b0316151590565b3390565b600081815260046020526040902080546001600160a01b0319166001600160a01b0384169081179091558190610c1e826107a8565b6001600160a01b03167f8c5be1e5ebec7d5bd14f71427d1e84f3dd0314c0f7b2291e5b200ac8c7c3b92560405160405180910390a45050565b6000610c6282610bc8565b610c7e5760405162461bcd60e51b81526004016104ee90611aa3565b6000610c89836107a8565b9050806001600160a01b0316846001600160a01b03161480610cc45750836001600160a01b0316610cb9846104c7565b6001600160a01b0316145b80610cd45750610cd48185610b04565b949350505050565b826001600160a01b0316610cef826107a8565b6001600160a01b031614610d155760405162461bcd60e51b81526004016104ee90611c95565b6001600160a01b038216610d3b5760405162461bcd60e51b81526004016104ee90611a28565b610d46838383611120565b610d51600082610be9565b6001600160a01b0383166000908152600360205260408120805460019290610d7a908490611df1565b90915550506001600160a01b0382166000908152600360205260408120805460019290610da8908490611dc5565b909155505060008181526002602052604080822080546001600160a01b0319166001600160a01b0386811691821790925591518493918716917fddf252ad1be2c89b69c2b068fc378daa952ba7f163c4a11628f55a4df523b3ef91a4505050565b600a80546001600160a01b038381166001600160a01b0319831681179093556040519116919082907f8be0079c531659141344cd1fd0a4f28419497f9722a3daafe3b4186f6b6457e090600090a35050565b5490565b606081610e8457506040805180820190915260018152600360fc1b6020820152610430565b8160005b8115610eae5780610e9881611e6f565b9150610ea79050600a83611ddd565b9150610e88565b60008167ffffffffffffffff811115610ed757634e487b7160e01b600052604160045260246000fd5b6040519080825280601f01601f191660200182016040528015610f01576020820181803683370190505b5090505b8415610cd457610f16600183611df1565b9150610f23600a86611e8a565b610f2e906030611dc5565b60f81b818381518110610f5157634e487b7160e01b600052603260045260246000fd5b60200101906001600160f81b031916908160001a905350610f73600a86611ddd565b9450610f05565b60608282604051602001610f8f9291906117ef565b604051602081830303815290604052905092915050565b6001600160a01b038216610fcc5760405162461bcd60e51b81526004016104ee90611bdf565b610fd581610bc8565b15610ff25760405162461bcd60e51b81526004016104ee906119f1565b610ffe60008383611120565b6001600160a01b0382166000908152600360205260408120805460019290611027908490611dc5565b909155505060008181526002602052604080822080546001600160a01b0319166001600160a01b03861690811790915590518392907fddf252ad1be2c89b69c2b068fc378daa952ba7f163c4a11628f55a4df523b3ef908290a45050565b6000828152600d6020908152604090912082516105a692840190611506565b80546001019055565b6110b8848484610cdc565b6110c48484848461112b565b610a365760405162461bcd60e51b81526004016104ee90611959565b60006001600160e01b031982166380ac58cd60e01b148061111157506001600160e01b03198216635b5e139f60e01b145b8061042d575061042d82611246565b6105a683838361125f565b600061113f846001600160a01b03166112e8565b1561123b57836001600160a01b031663150b7a0261115b610be5565b8786866040518563ffffffff1660e01b815260040161117d9493929190611842565b602060405180830381600087803b15801561119757600080fd5b505af19250505080156111c7575060408051601f3d908101601f191682019092526111c49181019061178f565b60015b611221573d8080156111f5576040519150601f19603f3d011682016040523d82523d6000602084013e6111fa565b606091505b5080516112195760405162461bcd60e51b81526004016104ee90611959565b805181602001fd5b6001600160e01b031916630a85bd0160e11b149050610cd4565b506001949350505050565b6001600160e01b031981166301ffc9a760e01b14919050565b61126a8383836105a6565b6001600160a01b03831661128657611281816112ee565b6112a9565b816001600160a01b0316836001600160a01b0316146112a9576112a98382611332565b6001600160a01b0382166112c5576112c0816113cf565b6105a6565b826001600160a01b0316826001600160a01b0316146105a6576105a682826114a8565b3b151590565b600880546000838152600960205260408120829055600182018355919091527ff3f7a9fe364faab93b216da50a3214154f22a0a2b415b23a84c8169e8b636ee30155565b6000600161133f846107dd565b6113499190611df1565b60008381526007602052604090205490915080821461139c576001600160a01b03841660009081526006602090815260408083208584528252808320548484528184208190558352600790915290208190555b5060009182526007602090815260408084208490556001600160a01b039094168352600681528383209183525290812055565b6008546000906113e190600190611df1565b6000838152600960205260408120546008805493945090928490811061141757634e487b7160e01b600052603260045260246000fd5b90600052602060002001549050806008838154811061144657634e487b7160e01b600052603260045260246000fd5b600091825260208083209091019290925582815260099091526040808220849055858252812055600880548061148c57634e487b7160e01b600052603160045260246000fd5b6001900381819060005260206000200160009055905550505050565b60006114b3836107dd565b6001600160a01b039093166000908152600660209081526040808320868452825280832085905593825260079052919091209190915550565b604051806040016040528060008152602001606081525090565b82805461151290611e34565b90600052602060002090601f016020900481019282611534576000855561157a565b82601f1061154d57805160ff191683800117855561157a565b8280016001018555821561157a579182015b8281111561157a57825182559160200191906001019061155f565b5061158692915061158a565b5090565b5b80821115611586576000815560010161158b565b80356001600160a01b038116811461043057600080fd5b6000602082840312156115c7578081fd5b6115d08261159f565b9392505050565b600080604083850312156115e9578081fd5b6115f28361159f565b91506116006020840161159f565b90509250929050565b60008060006060848603121561161d578081fd5b6116268461159f565b92506116346020850161159f565b9150604084013590509250925092565b60008060008060808587031215611659578081fd5b6116628561159f565b9350602061167181870161159f565b935060408601359250606086013567ffffffffffffffff80821115611694578384fd5b818801915088601f8301126116a7578384fd5b8135818111156116b9576116b9611eca565b604051601f8201601f19168101850183811182821017156116dc576116dc611eca565b60405281815283820185018b10156116f2578586fd5b81858501868301379081019093019390935250939692955090935050565b60008060408385031215611722578182fd5b61172b8361159f565b91506020830135801515811461173f578182fd5b809150509250929050565b6000806040838503121561175c578182fd5b6117658361159f565b946020939093013593505050565b600060208284031215611784578081fd5b81356115d081611ee0565b6000602082840312156117a0578081fd5b81516115d081611ee0565b6000602082840312156117bc578081fd5b5035919050565b600081518084526117db816020860160208601611e08565b601f01601f19169290920160200192915050565b60008351611801818460208801611e08565b835190830190611815818360208801611e08565b64173539b7b760d91b9101908152600501949350505050565b6001600160a01b0391909116815260200190565b6001600160a01b0385811682528416602082015260408101839052608060608201819052600090611875908301846117c3565b9695505050505050565b60208082528251828201819052600091906040908185019080840286018301878501865b838110156118e257888303603f190185528151805184528701518784018790526118cf878501826117c3565b95880195935050908601906001016118a3565b509098975050505050505050565b901515815260200190565b6000602082526115d060208301846117c3565b6020808252602b908201527f455243373231456e756d657261626c653a206f776e657220696e646578206f7560408201526a74206f6620626f756e647360a81b606082015260800190565b60208082526032908201527f4552433732313a207472616e7366657220746f206e6f6e20455243373231526560408201527131b2b4bb32b91034b6b83632b6b2b73a32b960711b606082015260800190565b60208082526026908201527f4f776e61626c653a206e6577206f776e657220697320746865207a65726f206160408201526564647265737360d01b606082015260800190565b6020808252601c908201527f4552433732313a20746f6b656e20616c7265616479206d696e74656400000000604082015260600190565b60208082526024908201527f4552433732313a207472616e7366657220746f20746865207a65726f206164646040820152637265737360e01b606082015260800190565b60208082526019908201527f4552433732313a20617070726f766520746f2063616c6c657200000000000000604082015260600190565b6020808252602c908201527f4552433732313a206f70657261746f7220717565727920666f72206e6f6e657860408201526b34b9ba32b73a103a37b5b2b760a11b606082015260800190565b60208082526038908201527f4552433732313a20617070726f76652063616c6c6572206973206e6f74206f7760408201527f6e6572206e6f7220617070726f76656420666f7220616c6c0000000000000000606082015260800190565b6020808252602a908201527f4552433732313a2062616c616e636520717565727920666f7220746865207a65604082015269726f206164647265737360b01b606082015260800190565b60208082526029908201527f4552433732313a206f776e657220717565727920666f72206e6f6e657869737460408201526832b73a103a37b5b2b760b91b606082015260800190565b6020808252818101527f4552433732313a206d696e7420746f20746865207a65726f2061646472657373604082015260600190565b6020808252602c908201527f4552433732313a20617070726f76656420717565727920666f72206e6f6e657860408201526b34b9ba32b73a103a37b5b2b760a11b606082015260800190565b6020808252818101527f4f776e61626c653a2063616c6c6572206973206e6f7420746865206f776e6572604082015260600190565b60208082526029908201527f4552433732313a207472616e73666572206f6620746f6b656e2074686174206960408201526839903737ba1037bbb760b91b606082015260800190565b60208082526021908201527f4552433732313a20617070726f76616c20746f2063757272656e74206f776e656040820152603960f91b606082015260800190565b60208082526031908201527f4552433732313a207472616e736665722063616c6c6572206973206e6f74206f6040820152701ddb995c881b9bdc88185c1c1c9bdd9959607a1b606082015260800190565b6020808252602c908201527f455243373231456e756d657261626c653a20676c6f62616c20696e646578206f60408201526b7574206f6620626f756e647360a01b606082015260800190565b90815260200190565b60008219821115611dd857611dd8611e9e565b500190565b600082611dec57611dec611eb4565b500490565b600082821015611e0357611e03611e9e565b500390565b60005b83811015611e23578181015183820152602001611e0b565b83811115610a365750506000910152565b600281046001821680611e4857607f821691505b60208210811415611e6957634e487b7160e01b600052602260045260246000fd5b50919050565b6000600019821415611e8357611e83611e9e565b5060010190565b600082611e9957611e99611eb4565b500690565b634e487b7160e01b600052601160045260246000fd5b634e487b7160e01b600052601260045260246000fd5b634e487b7160e01b600052604160045260246000fd5b6001600160e01b031981168114610ba057600080fdfe68747470733a2f2f6e616e696d616c732e6d7970696e6174612e636c6f75642f697066732f516d57377736736779594e66784c554b536f64624171456d6f6144384c59776452637738746d50466836397554462fa2646970667358221220b9cc49c606f88aad30d0a9d5864599dd753639868596a76fda9af0b891a59b5264736f6c63430008000033",
  "immutableReferences": {},
  "source": "// SPDX-License-Identifier: MIT\n\npragma solidity ^0.8.0;\nimport \"@openzeppelin/contracts/token/ERC721/ERC721.sol\";\nimport \"@openzeppelin/contracts/token/ERC721/extensions/ERC721Enumerable.sol\";\nimport \"@openzeppelin/contracts/utils/Counters.sol\";\nimport \"@openzeppelin/contracts/access/Ownable.sol\";\n\ncontract SmartContract is ERC721, ERC721Enumerable, Ownable {\n    using Counters for Counters.Counter;\n    using Strings for uint256;\n    \n    uint256 public maxMintAmount = 10;\n    Counters.Counter _tokenIds;\n    \n    mapping(uint256 => string) _tokenURIs;\n    mapping (address => bool) public whitelisted;\n    \n    struct RenderUserToken {\n        uint256 id;\n        string uri;\n    }\n    \n    constructor() ERC721(\"nAnimals\", \"NANI\") {}\n    \n    // internal\n    function _setTokenURI(uint256 tokenId, string memory _tokenURI) internal {\n        _tokenURIs[tokenId] = _tokenURI;\n    }\n\n    function concat(string memory strOne, string memory strTwo) private pure returns (string memory) {\n        return string(abi.encodePacked(strOne, strTwo, \".json\"));\n    }\n    \n    function _beforeTokenTransfer(address from, address to, uint256 tokenId) internal virtual override(ERC721, ERC721Enumerable) {\n        super._beforeTokenTransfer(from, to, tokenId);\n    }\n\n    // public\n    // function mint(uint256 _mintAmount) public payable returns(uint256) {\n    function mint(uint256 _mintAmount) public payable {\n        require(_mintAmount > 0);\n        require(_mintAmount <= maxMintAmount);\n        string memory uri = \"https://nanimals.mypinata.cloud/ipfs/QmW7w6sgyYNfxLUKSodbAqEmoaD8LYwdRcw8tmPFh69uTF/\";\n        for (uint256 i = 0; i < _mintAmount; i++) {\n            uint256 newId = _tokenIds.current();\n            string memory newUri = concat(uri, Strings.toString(newId+1));\n            _mint(msg.sender, newId);\n            _setTokenURI(newId, newUri);\n            _tokenIds.increment();\n        }\n        // return newId;\n    }\n\n    function tokenURI(uint256 tokenId) public view virtual override returns(string memory) {\n        require(_exists(tokenId));\n        string memory _tokenURI = _tokenURIs[tokenId];\n        return _tokenURI;\n    }\n\n    function getUserTokens(address _owner) public view returns(RenderUserToken[] memory) {\n        uint256 ownerTokenCount = balanceOf(_owner);\n        RenderUserToken[] memory res = new RenderUserToken[](ownerTokenCount);\n        for(uint256 i = 0; i < ownerTokenCount; i++) {\n            uint256 tokenId = tokenOfOwnerByIndex(_owner, i);\n            res[i] = RenderUserToken(tokenId, tokenURI(tokenId));\n        }\n        return res;\n    }\n    \n    function supportsInterface(bytes4 interfaceId) public view virtual override(ERC721, ERC721Enumerable) returns (bool) {\n        return super.supportsInterface(interfaceId);\n    }\n\n    // only owner\n}",
  "sourcePath": "/Users/sean/Documents/Coding/nAnimals/dApp/contracts/SmartContract.sol",
  "compiler": {
    "name": "solc",
    "version": "0.8.0+commit.c7dfd78e.Emscripten.clang"
  },
  "schemaVersion": "3.4.3",
  "updatedAt": "2021-10-16T09:32:39.337Z",
  "networkType": "ethereum",
  "devdoc": {
    "kind": "dev",
    "methods": {
      "approve(address,uint256)": {
        "details": "See {IERC721-approve}."
      },
      "balanceOf(address)": {
        "details": "See {IERC721-balanceOf}."
      },
      "getApproved(uint256)": {
        "details": "See {IERC721-getApproved}."
      },
      "isApprovedForAll(address,address)": {
        "details": "See {IERC721-isApprovedForAll}."
      },
      "name()": {
        "details": "See {IERC721Metadata-name}."
      },
      "owner()": {
        "details": "Returns the address of the current owner."
      },
      "ownerOf(uint256)": {
        "details": "See {IERC721-ownerOf}."
      },
      "renounceOwnership()": {
        "details": "Leaves the contract without owner. It will not be possible to call `onlyOwner` functions anymore. Can only be called by the current owner. NOTE: Renouncing ownership will leave the contract without an owner, thereby removing any functionality that is only available to the owner."
      },
      "safeTransferFrom(address,address,uint256)": {
        "details": "See {IERC721-safeTransferFrom}."
      },
      "safeTransferFrom(address,address,uint256,bytes)": {
        "details": "See {IERC721-safeTransferFrom}."
      },
      "setApprovalForAll(address,bool)": {
        "details": "See {IERC721-setApprovalForAll}."
      },
      "symbol()": {
        "details": "See {IERC721Metadata-symbol}."
      },
      "tokenByIndex(uint256)": {
        "details": "See {IERC721Enumerable-tokenByIndex}."
      },
      "tokenOfOwnerByIndex(address,uint256)": {
        "details": "See {IERC721Enumerable-tokenOfOwnerByIndex}."
      },
      "tokenURI(uint256)": {
        "details": "See {IERC721Metadata-tokenURI}."
      },
      "totalSupply()": {
        "details": "See {IERC721Enumerable-totalSupply}."
      },
      "transferFrom(address,address,uint256)": {
        "details": "See {IERC721-transferFrom}."
      },
      "transferOwnership(address)": {
        "details": "Transfers ownership of the contract to a new account (`newOwner`). Can only be called by the current owner."
      }
    },
    "version": 1
  },
  "userdoc": {
    "kind": "user",
    "methods": {},
    "version": 1
  }
}