{
  "contractName": "SmartContract",
  "abi": [
    {
      "inputs": [],
      "stateMutability": "nonpayable",
      "type": "constructor"
    },
    {
      "anonymous": false,
      "inputs": [
        {
          "indexed": true,
          "internalType": "address",
          "name": "owner",
          "type": "address"
        },
        {
          "indexed": true,
          "internalType": "address",
          "name": "approved",
          "type": "address"
        },
        {
          "indexed": true,
          "internalType": "uint256",
          "name": "tokenId",
          "type": "uint256"
        }
      ],
      "name": "Approval",
      "type": "event"
    },
    {
      "anonymous": false,
      "inputs": [
        {
          "indexed": true,
          "internalType": "address",
          "name": "owner",
          "type": "address"
        },
        {
          "indexed": true,
          "internalType": "address",
          "name": "operator",
          "type": "address"
        },
        {
          "indexed": false,
          "internalType": "bool",
          "name": "approved",
          "type": "bool"
        }
      ],
      "name": "ApprovalForAll",
      "type": "event"
    },
    {
      "anonymous": false,
      "inputs": [
        {
          "indexed": true,
          "internalType": "address",
          "name": "previousOwner",
          "type": "address"
        },
        {
          "indexed": true,
          "internalType": "address",
          "name": "newOwner",
          "type": "address"
        }
      ],
      "name": "OwnershipTransferred",
      "type": "event"
    },
    {
      "anonymous": false,
      "inputs": [
        {
          "indexed": true,
          "internalType": "address",
          "name": "from",
          "type": "address"
        },
        {
          "indexed": true,
          "internalType": "address",
          "name": "to",
          "type": "address"
        },
        {
          "indexed": true,
          "internalType": "uint256",
          "name": "tokenId",
          "type": "uint256"
        }
      ],
      "name": "Transfer",
      "type": "event"
    },
    {
      "inputs": [
        {
          "internalType": "address",
          "name": "to",
          "type": "address"
        },
        {
          "internalType": "uint256",
          "name": "tokenId",
          "type": "uint256"
        }
      ],
      "name": "approve",
      "outputs": [],
      "stateMutability": "nonpayable",
      "type": "function"
    },
    {
      "inputs": [
        {
          "internalType": "address",
          "name": "owner",
          "type": "address"
        }
      ],
      "name": "balanceOf",
      "outputs": [
        {
          "internalType": "uint256",
          "name": "",
          "type": "uint256"
        }
      ],
      "stateMutability": "view",
      "type": "function",
      "constant": true
    },
    {
      "inputs": [
        {
          "internalType": "uint256",
          "name": "tokenId",
          "type": "uint256"
        }
      ],
      "name": "getApproved",
      "outputs": [
        {
          "internalType": "address",
          "name": "",
          "type": "address"
        }
      ],
      "stateMutability": "view",
      "type": "function",
      "constant": true
    },
    {
      "inputs": [
        {
          "internalType": "address",
          "name": "owner",
          "type": "address"
        },
        {
          "internalType": "address",
          "name": "operator",
          "type": "address"
        }
      ],
      "name": "isApprovedForAll",
      "outputs": [
        {
          "internalType": "bool",
          "name": "",
          "type": "bool"
        }
      ],
      "stateMutability": "view",
      "type": "function",
      "constant": true
    },
    {
      "inputs": [],
      "name": "name",
      "outputs": [
        {
          "internalType": "string",
          "name": "",
          "type": "string"
        }
      ],
      "stateMutability": "view",
      "type": "function",
      "constant": true
    },
    {
      "inputs": [],
      "name": "owner",
      "outputs": [
        {
          "internalType": "address",
          "name": "",
          "type": "address"
        }
      ],
      "stateMutability": "view",
      "type": "function",
      "constant": true
    },
    {
      "inputs": [
        {
          "internalType": "uint256",
          "name": "tokenId",
          "type": "uint256"
        }
      ],
      "name": "ownerOf",
      "outputs": [
        {
          "internalType": "address",
          "name": "",
          "type": "address"
        }
      ],
      "stateMutability": "view",
      "type": "function",
      "constant": true
    },
    {
      "inputs": [],
      "name": "renounceOwnership",
      "outputs": [],
      "stateMutability": "nonpayable",
      "type": "function"
    },
    {
      "inputs": [
        {
          "internalType": "address",
          "name": "from",
          "type": "address"
        },
        {
          "internalType": "address",
          "name": "to",
          "type": "address"
        },
        {
          "internalType": "uint256",
          "name": "tokenId",
          "type": "uint256"
        }
      ],
      "name": "safeTransferFrom",
      "outputs": [],
      "stateMutability": "nonpayable",
      "type": "function"
    },
    {
      "inputs": [
        {
          "internalType": "address",
          "name": "from",
          "type": "address"
        },
        {
          "internalType": "address",
          "name": "to",
          "type": "address"
        },
        {
          "internalType": "uint256",
          "name": "tokenId",
          "type": "uint256"
        },
        {
          "internalType": "bytes",
          "name": "_data",
          "type": "bytes"
        }
      ],
      "name": "safeTransferFrom",
      "outputs": [],
      "stateMutability": "nonpayable",
      "type": "function"
    },
    {
      "inputs": [
        {
          "internalType": "address",
          "name": "operator",
          "type": "address"
        },
        {
          "internalType": "bool",
          "name": "approved",
          "type": "bool"
        }
      ],
      "name": "setApprovalForAll",
      "outputs": [],
      "stateMutability": "nonpayable",
      "type": "function"
    },
    {
      "inputs": [
        {
          "internalType": "bytes4",
          "name": "interfaceId",
          "type": "bytes4"
        }
      ],
      "name": "supportsInterface",
      "outputs": [
        {
          "internalType": "bool",
          "name": "",
          "type": "bool"
        }
      ],
      "stateMutability": "view",
      "type": "function",
      "constant": true
    },
    {
      "inputs": [],
      "name": "symbol",
      "outputs": [
        {
          "internalType": "string",
          "name": "",
          "type": "string"
        }
      ],
      "stateMutability": "view",
      "type": "function",
      "constant": true
    },
    {
      "inputs": [
        {
          "internalType": "address",
          "name": "from",
          "type": "address"
        },
        {
          "internalType": "address",
          "name": "to",
          "type": "address"
        },
        {
          "internalType": "uint256",
          "name": "tokenId",
          "type": "uint256"
        }
      ],
      "name": "transferFrom",
      "outputs": [],
      "stateMutability": "nonpayable",
      "type": "function"
    },
    {
      "inputs": [
        {
          "internalType": "address",
          "name": "newOwner",
          "type": "address"
        }
      ],
      "name": "transferOwnership",
      "outputs": [],
      "stateMutability": "nonpayable",
      "type": "function"
    },
    {
      "inputs": [
        {
          "internalType": "address",
          "name": "",
          "type": "address"
        }
      ],
      "name": "whitelisted",
      "outputs": [
        {
          "internalType": "bool",
          "name": "",
          "type": "bool"
        }
      ],
      "stateMutability": "view",
      "type": "function",
      "constant": true
    },
    {
      "inputs": [
        {
          "internalType": "address",
          "name": "recipient",
          "type": "address"
        },
        {
          "internalType": "string",
          "name": "uri",
          "type": "string"
        }
      ],
      "name": "mint",
      "outputs": [
        {
          "internalType": "uint256",
          "name": "",
          "type": "uint256"
        }
      ],
      "stateMutability": "payable",
      "type": "function",
      "payable": true
    },
    {
      "inputs": [
        {
          "internalType": "uint256",
          "name": "tokenId",
          "type": "uint256"
        }
      ],
      "name": "tokenURI",
      "outputs": [
        {
          "internalType": "string",
          "name": "",
          "type": "string"
        }
      ],
      "stateMutability": "view",
      "type": "function",
      "constant": true
    },
    {
      "inputs": [
        {
          "internalType": "address",
          "name": "_owner",
          "type": "address"
        }
      ],
      "name": "getUserTokens",
      "outputs": [
        {
          "components": [
            {
              "internalType": "uint256",
              "name": "id",
              "type": "uint256"
            },
            {
              "internalType": "string",
              "name": "uri",
              "type": "string"
            }
          ],
          "internalType": "struct SmartContract.RenderUserToken[]",
          "name": "",
          "type": "tuple[]"
        }
      ],
      "stateMutability": "view",
      "type": "function",
      "constant": true
    }
  ],
  "bytecode": "0x60806040523480156200001157600080fd5b5060408051808201825260088152676e416e696d616c7360c01b6020808301918252835180850190945260048452634e414e4960e01b9084015281519192916200005e91600091620000ed565b50805162000074906001906020840190620000ed565b505050620000916200008b6200009760201b60201c565b6200009b565b620001d0565b3390565b600680546001600160a01b038381166001600160a01b0319831681179093556040519116919082907f8be0079c531659141344cd1fd0a4f28419497f9722a3daafe3b4186f6b6457e090600090a35050565b828054620000fb9062000193565b90600052602060002090601f0160209004810192826200011f57600085556200016a565b82601f106200013a57805160ff19168380011785556200016a565b828001600101855582156200016a579182015b828111156200016a5782518255916020019190600101906200014d565b50620001789291506200017c565b5090565b5b808211156200017857600081556001016200017d565b600281046001821680620001a857607f821691505b60208210811415620001ca57634e487b7160e01b600052602260045260246000fd5b50919050565b611ac580620001e06000396000f3fe6080604052600436106101145760003560e01c8063715018a6116100a0578063c87b56dd11610064578063c87b56dd146102f9578063d0def52114610319578063d936547e1461032c578063e985e9c51461034c578063f2fde38b1461036c57610114565b8063715018a61461027a5780638da5cb5b1461028f57806395d89b41146102a4578063a22cb465146102b9578063b88d4fde146102d957610114565b806323b872dd116100e757806323b872dd146101c057806342842e0e146101e0578063519dc8d2146102005780636352211e1461022d57806370a082311461024d57610114565b806301ffc9a71461011957806306fdde031461014f578063081812fc14610171578063095ea7b31461019e575b600080fd5b34801561012557600080fd5b506101396101343660046113a3565b61038c565b6040516101469190611520565b60405180910390f35b34801561015b57600080fd5b506101646103d4565b604051610146919061152b565b34801561017d57600080fd5b5061019161018c3660046113db565b610466565b604051610146919061145e565b3480156101aa57600080fd5b506101be6101b936600461137a565b6104b2565b005b3480156101cc57600080fd5b506101be6101db36600461122d565b61054a565b3480156101ec57600080fd5b506101be6101fb36600461122d565b610582565b34801561020c57600080fd5b5061022061021b3660046111da565b61059d565b60405161014691906114af565b34801561023957600080fd5b506101916102483660046113db565b6106a3565b34801561025957600080fd5b5061026d6102683660046111da565b6106d8565b6040516101469190611955565b34801561028657600080fd5b506101be61071c565b34801561029b57600080fd5b50610191610767565b3480156102b057600080fd5b50610164610776565b3480156102c557600080fd5b506101be6102d43660046112e1565b610785565b3480156102e557600080fd5b506101be6102f4366004611268565b610853565b34801561030557600080fd5b506101646103143660046113db565b610892565b61026d61032736600461131b565b610945565b34801561033857600080fd5b506101396103473660046111da565b61099a565b34801561035857600080fd5b506101396103673660046111fb565b6109af565b34801561037857600080fd5b506101be6103873660046111da565b6109dd565b60006001600160e01b031982166380ac58cd60e01b14806103bd57506001600160e01b03198216635b5e139f60e01b145b806103cc57506103cc82610a4e565b90505b919050565b6060600080546103e3906119cd565b80601f016020809104026020016040519081016040528092919081815260200182805461040f906119cd565b801561045c5780601f106104315761010080835404028352916020019161045c565b820191906000526020600020905b81548152906001019060200180831161043f57829003601f168201915b5050505050905090565b600061047182610a67565b6104965760405162461bcd60e51b815260040161048d906117f9565b60405180910390fd5b506000908152600460205260409020546001600160a01b031690565b60006104bd826106a3565b9050806001600160a01b0316836001600160a01b031614156104f15760405162461bcd60e51b815260040161048d906118c3565b806001600160a01b0316610503610a84565b6001600160a01b0316148061051f575061051f81610367610a84565b61053b5760405162461bcd60e51b815260040161048d906116d4565b6105458383610a88565b505050565b61055b610555610a84565b82610af6565b6105775760405162461bcd60e51b815260040161048d90611904565b610545838383610b7b565b61054583838360405180602001604052806000815250610853565b606060006105aa836106d8565b90506000808267ffffffffffffffff8111156105d657634e487b7160e01b600052604160045260246000fd5b60405190808252806020026020018201604052801561060f57816020015b6105fc6110a0565b8152602001906001900390816105f45790505b50905060005b8381101561069a5761062683610a67565b1561067a57600061063684610892565b905060405180604001604052808581526020018281525083858151811061066d57634e487b7160e01b600052603260045260246000fd5b6020026020010181905250505b8261068481611a08565b935050808061069290611a08565b915050610615565b50949350505050565b6000818152600260205260408120546001600160a01b0316806103cc5760405162461bcd60e51b815260040161048d9061177b565b60006001600160a01b0382166107005760405162461bcd60e51b815260040161048d90611731565b506001600160a01b031660009081526003602052604090205490565b610724610a84565b6001600160a01b0316610735610767565b6001600160a01b03161461075b5760405162461bcd60e51b815260040161048d90611845565b6107656000610ca8565b565b6006546001600160a01b031690565b6060600180546103e3906119cd565b61078d610a84565b6001600160a01b0316826001600160a01b031614156107be5760405162461bcd60e51b815260040161048d90611651565b80600560006107cb610a84565b6001600160a01b03908116825260208083019390935260409182016000908120918716808252919093529120805460ff19169215159290921790915561080f610a84565b6001600160a01b03167f17307eab39ab6107e8899845ad3d59bd9653f200f220920489ca2b5937696c31836040516108479190611520565b60405180910390a35050565b61086461085e610a84565b83610af6565b6108805760405162461bcd60e51b815260040161048d90611904565b61088c84848484610cfa565b50505050565b606061089d82610a67565b6108a657600080fd5b600082815260086020526040812080546108bf906119cd565b80601f01602080910402602001604051908101604052809291908181526020018280546108eb906119cd565b80156109385780601f1061090d57610100808354040283529160200191610938565b820191906000526020600020905b81548152906001019060200180831161091b57829003601f168201915b5093979650505050505050565b6000806109526007610d2d565b905060006109728461096d61096885600161195e565b610d31565b610e4c565b905061097e8583610e78565b6109888282610f57565b6109926007610f76565b509392505050565b60096020526000908152604090205460ff1681565b6001600160a01b03918216600090815260056020908152604080832093909416825291909152205460ff1690565b6109e5610a84565b6001600160a01b03166109f6610767565b6001600160a01b031614610a1c5760405162461bcd60e51b815260040161048d90611845565b6001600160a01b038116610a425760405162461bcd60e51b815260040161048d90611590565b610a4b81610ca8565b50565b6001600160e01b031981166301ffc9a760e01b14919050565b6000908152600260205260409020546001600160a01b0316151590565b3390565b600081815260046020526040902080546001600160a01b0319166001600160a01b0384169081179091558190610abd826106a3565b6001600160a01b03167f8c5be1e5ebec7d5bd14f71427d1e84f3dd0314c0f7b2291e5b200ac8c7c3b92560405160405180910390a45050565b6000610b0182610a67565b610b1d5760405162461bcd60e51b815260040161048d90611688565b6000610b28836106a3565b9050806001600160a01b0316846001600160a01b03161480610b635750836001600160a01b0316610b5884610466565b6001600160a01b0316145b80610b735750610b7381856109af565b949350505050565b826001600160a01b0316610b8e826106a3565b6001600160a01b031614610bb45760405162461bcd60e51b815260040161048d9061187a565b6001600160a01b038216610bda5760405162461bcd60e51b815260040161048d9061160d565b610be5838383610545565b610bf0600082610a88565b6001600160a01b0383166000908152600360205260408120805460019290610c1990849061198a565b90915550506001600160a01b0382166000908152600360205260408120805460019290610c4790849061195e565b909155505060008181526002602052604080822080546001600160a01b0319166001600160a01b0386811691821790925591518493918716917fddf252ad1be2c89b69c2b068fc378daa952ba7f163c4a11628f55a4df523b3ef91a4505050565b600680546001600160a01b038381166001600160a01b0319831681179093556040519116919082907f8be0079c531659141344cd1fd0a4f28419497f9722a3daafe3b4186f6b6457e090600090a35050565b610d05848484610b7b565b610d1184848484610f7f565b61088c5760405162461bcd60e51b815260040161048d9061153e565b5490565b606081610d5657506040805180820190915260018152600360fc1b60208201526103cf565b8160005b8115610d805780610d6a81611a08565b9150610d799050600a83611976565b9150610d5a565b60008167ffffffffffffffff811115610da957634e487b7160e01b600052604160045260246000fd5b6040519080825280601f01601f191660200182016040528015610dd3576020820181803683370190505b5090505b8415610b7357610de860018361198a565b9150610df5600a86611a23565b610e0090603061195e565b60f81b818381518110610e2357634e487b7160e01b600052603260045260246000fd5b60200101906001600160f81b031916908160001a905350610e45600a86611976565b9450610dd7565b60608282604051602001610e6192919061141f565b604051602081830303815290604052905092915050565b6001600160a01b038216610e9e5760405162461bcd60e51b815260040161048d906117c4565b610ea781610a67565b15610ec45760405162461bcd60e51b815260040161048d906115d6565b610ed060008383610545565b6001600160a01b0382166000908152600360205260408120805460019290610ef990849061195e565b909155505060008181526002602052604080822080546001600160a01b0319166001600160a01b03861690811790915590518392907fddf252ad1be2c89b69c2b068fc378daa952ba7f163c4a11628f55a4df523b3ef908290a45050565b60008281526008602090815260409091208251610545928401906110ba565b80546001019055565b6000610f93846001600160a01b031661109a565b1561108f57836001600160a01b031663150b7a02610faf610a84565b8786866040518563ffffffff1660e01b8152600401610fd19493929190611472565b602060405180830381600087803b158015610feb57600080fd5b505af192505050801561101b575060408051601f3d908101601f19168201909252611018918101906113bf565b60015b611075573d808015611049576040519150601f19603f3d011682016040523d82523d6000602084013e61104e565b606091505b50805161106d5760405162461bcd60e51b815260040161048d9061153e565b805181602001fd5b6001600160e01b031916630a85bd0160e11b149050610b73565b506001949350505050565b3b151590565b604051806040016040528060008152602001606081525090565b8280546110c6906119cd565b90600052602060002090601f0160209004810192826110e8576000855561112e565b82601f1061110157805160ff191683800117855561112e565b8280016001018555821561112e579182015b8281111561112e578251825591602001919060010190611113565b5061113a92915061113e565b5090565b5b8082111561113a576000815560010161113f565b600067ffffffffffffffff8084111561116e5761116e611a63565b604051601f8501601f19168101602001828111828210171561119257611192611a63565b6040528481529150818385018610156111aa57600080fd5b8484602083013760006020868301015250509392505050565b80356001600160a01b03811681146103cf57600080fd5b6000602082840312156111eb578081fd5b6111f4826111c3565b9392505050565b6000806040838503121561120d578081fd5b611216836111c3565b9150611224602084016111c3565b90509250929050565b600080600060608486031215611241578081fd5b61124a846111c3565b9250611258602085016111c3565b9150604084013590509250925092565b6000806000806080858703121561127d578081fd5b611286856111c3565b9350611294602086016111c3565b925060408501359150606085013567ffffffffffffffff8111156112b6578182fd5b8501601f810187136112c6578182fd5b6112d587823560208401611153565b91505092959194509250565b600080604083850312156112f3578182fd5b6112fc836111c3565b915060208301358015158114611310578182fd5b809150509250929050565b6000806040838503121561132d578182fd5b611336836111c3565b9150602083013567ffffffffffffffff811115611351578182fd5b8301601f81018513611361578182fd5b61137085823560208401611153565b9150509250929050565b6000806040838503121561138c578182fd5b611395836111c3565b946020939093013593505050565b6000602082840312156113b4578081fd5b81356111f481611a79565b6000602082840312156113d0578081fd5b81516111f481611a79565b6000602082840312156113ec578081fd5b5035919050565b6000815180845261140b8160208601602086016119a1565b601f01601f19169290920160200192915050565b600083516114318184602088016119a1565b8351908301906114458183602088016119a1565b64173539b7b760d91b9101908152600501949350505050565b6001600160a01b0391909116815260200190565b6001600160a01b03858116825284166020820152604081018390526080606082018190526000906114a5908301846113f3565b9695505050505050565b60208082528251828201819052600091906040908185019080840286018301878501865b8381101561151257888303603f190185528151805184528701518784018790526114ff878501826113f3565b95880195935050908601906001016114d3565b509098975050505050505050565b901515815260200190565b6000602082526111f460208301846113f3565b60208082526032908201527f4552433732313a207472616e7366657220746f206e6f6e20455243373231526560408201527131b2b4bb32b91034b6b83632b6b2b73a32b960711b606082015260800190565b60208082526026908201527f4f776e61626c653a206e6577206f776e657220697320746865207a65726f206160408201526564647265737360d01b606082015260800190565b6020808252601c908201527f4552433732313a20746f6b656e20616c7265616479206d696e74656400000000604082015260600190565b60208082526024908201527f4552433732313a207472616e7366657220746f20746865207a65726f206164646040820152637265737360e01b606082015260800190565b60208082526019908201527f4552433732313a20617070726f766520746f2063616c6c657200000000000000604082015260600190565b6020808252602c908201527f4552433732313a206f70657261746f7220717565727920666f72206e6f6e657860408201526b34b9ba32b73a103a37b5b2b760a11b606082015260800190565b60208082526038908201527f4552433732313a20617070726f76652063616c6c6572206973206e6f74206f7760408201527f6e6572206e6f7220617070726f76656420666f7220616c6c0000000000000000606082015260800190565b6020808252602a908201527f4552433732313a2062616c616e636520717565727920666f7220746865207a65604082015269726f206164647265737360b01b606082015260800190565b60208082526029908201527f4552433732313a206f776e657220717565727920666f72206e6f6e657869737460408201526832b73a103a37b5b2b760b91b606082015260800190565b6020808252818101527f4552433732313a206d696e7420746f20746865207a65726f2061646472657373604082015260600190565b6020808252602c908201527f4552433732313a20617070726f76656420717565727920666f72206e6f6e657860408201526b34b9ba32b73a103a37b5b2b760a11b606082015260800190565b6020808252818101527f4f776e61626c653a2063616c6c6572206973206e6f7420746865206f776e6572604082015260600190565b60208082526029908201527f4552433732313a207472616e73666572206f6620746f6b656e2074686174206960408201526839903737ba1037bbb760b91b606082015260800190565b60208082526021908201527f4552433732313a20617070726f76616c20746f2063757272656e74206f776e656040820152603960f91b606082015260800190565b60208082526031908201527f4552433732313a207472616e736665722063616c6c6572206973206e6f74206f6040820152701ddb995c881b9bdc88185c1c1c9bdd9959607a1b606082015260800190565b90815260200190565b6000821982111561197157611971611a37565b500190565b60008261198557611985611a4d565b500490565b60008282101561199c5761199c611a37565b500390565b60005b838110156119bc5781810151838201526020016119a4565b8381111561088c5750506000910152565b6002810460018216806119e157607f821691505b60208210811415611a0257634e487b7160e01b600052602260045260246000fd5b50919050565b6000600019821415611a1c57611a1c611a37565b5060010190565b600082611a3257611a32611a4d565b500690565b634e487b7160e01b600052601160045260246000fd5b634e487b7160e01b600052601260045260246000fd5b634e487b7160e01b600052604160045260246000fd5b6001600160e01b031981168114610a4b57600080fdfea2646970667358221220d6f9f78016b0dfcdef7d27031bd6a958ebb65923138e33dec7676cfc7e60f47b64736f6c63430008000033",
  "immutableReferences": {},
  "source": "// SPDX-License-Identifier: MIT\n\npragma solidity ^0.8.0;\nimport \"@openzeppelin/contracts/token/ERC721/ERC721.sol\";\nimport \"@openzeppelin/contracts/utils/Counters.sol\";\nimport \"@openzeppelin/contracts/access/Ownable.sol\";\n\ncontract SmartContract is ERC721, Ownable {\n    using Counters for Counters.Counter;\n    using Strings for uint256;\n    Counters.Counter _tokenIds;\n    mapping(uint256 => string) _tokenURIs;\n\n    mapping (address => bool) public whitelisted;\n    \n    struct RenderUserToken {\n        uint256 id;\n        string uri;\n    }\n    \n    constructor() ERC721(\"nAnimals\", \"NANI\") {}\n    \n    // internal\n    function _setTokenURI(uint256 tokenId, string memory _tokenURI) internal {\n        _tokenURIs[tokenId] = _tokenURI;\n    }\n\n    function concat(string memory strOne, string memory strTwo) private pure returns (string memory) {\n        return string(abi.encodePacked(strOne, strTwo, \".json\"));\n    }\n\n    // public\n    function mint(address recipient, string memory uri) public payable returns(uint256) {\n        uint256 newId = _tokenIds.current();\n        string memory newUri = concat(uri, Strings.toString(newId+1));\n        _mint(recipient, newId);\n        _setTokenURI(newId, newUri);\n        _tokenIds.increment();\n        return newId;\n    }\n\n    function tokenURI(uint256 tokenId) public view virtual override returns(string memory) {\n        require(_exists(tokenId));\n        string memory _tokenURI = _tokenURIs[tokenId];\n        return _tokenURI;\n    }\n\n    function getUserTokens(address _owner) public view returns(RenderUserToken[] memory) {\n        uint256 ownerTokenCount = balanceOf(_owner);\n        uint256 counter = 0;\n        RenderUserToken[] memory res = new RenderUserToken[](ownerTokenCount);\n        for(uint256 i = 0; i < ownerTokenCount; i++) {\n            if(_exists(counter)) {\n                string memory uri = tokenURI(counter);\n                res[counter] = RenderUserToken(counter, uri);\n            }\n            counter++;\n        }\n        return res;\n    }\n}\n",
  "sourcePath": "/Users/sean/Documents/Coding/nAnimals/dApp/contracts/SmartContract.sol",
  "compiler": {
    "name": "solc",
    "version": "0.8.0+commit.c7dfd78e.Emscripten.clang"
  },
  "schemaVersion": "3.4.3",
  "updatedAt": "2021-10-13T21:10:48.085Z",
  "networkType": "ethereum",
  "devdoc": {
    "kind": "dev",
    "methods": {
      "approve(address,uint256)": {
        "details": "See {IERC721-approve}."
      },
      "balanceOf(address)": {
        "details": "See {IERC721-balanceOf}."
      },
      "getApproved(uint256)": {
        "details": "See {IERC721-getApproved}."
      },
      "isApprovedForAll(address,address)": {
        "details": "See {IERC721-isApprovedForAll}."
      },
      "name()": {
        "details": "See {IERC721Metadata-name}."
      },
      "owner()": {
        "details": "Returns the address of the current owner."
      },
      "ownerOf(uint256)": {
        "details": "See {IERC721-ownerOf}."
      },
      "renounceOwnership()": {
        "details": "Leaves the contract without owner. It will not be possible to call `onlyOwner` functions anymore. Can only be called by the current owner. NOTE: Renouncing ownership will leave the contract without an owner, thereby removing any functionality that is only available to the owner."
      },
      "safeTransferFrom(address,address,uint256)": {
        "details": "See {IERC721-safeTransferFrom}."
      },
      "safeTransferFrom(address,address,uint256,bytes)": {
        "details": "See {IERC721-safeTransferFrom}."
      },
      "setApprovalForAll(address,bool)": {
        "details": "See {IERC721-setApprovalForAll}."
      },
      "supportsInterface(bytes4)": {
        "details": "See {IERC165-supportsInterface}."
      },
      "symbol()": {
        "details": "See {IERC721Metadata-symbol}."
      },
      "tokenURI(uint256)": {
        "details": "See {IERC721Metadata-tokenURI}."
      },
      "transferFrom(address,address,uint256)": {
        "details": "See {IERC721-transferFrom}."
      },
      "transferOwnership(address)": {
        "details": "Transfers ownership of the contract to a new account (`newOwner`). Can only be called by the current owner."
      }
    },
    "version": 1
  },
  "userdoc": {
    "kind": "user",
    "methods": {},
    "version": 1
  }
}