{
  "contractName": "SmartContract",
  "abi": [
    {
      "inputs": [],
      "stateMutability": "nonpayable",
      "type": "constructor"
    },
    {
      "anonymous": false,
      "inputs": [
        {
          "indexed": true,
          "internalType": "address",
          "name": "owner",
          "type": "address"
        },
        {
          "indexed": true,
          "internalType": "address",
          "name": "approved",
          "type": "address"
        },
        {
          "indexed": true,
          "internalType": "uint256",
          "name": "tokenId",
          "type": "uint256"
        }
      ],
      "name": "Approval",
      "type": "event"
    },
    {
      "anonymous": false,
      "inputs": [
        {
          "indexed": true,
          "internalType": "address",
          "name": "owner",
          "type": "address"
        },
        {
          "indexed": true,
          "internalType": "address",
          "name": "operator",
          "type": "address"
        },
        {
          "indexed": false,
          "internalType": "bool",
          "name": "approved",
          "type": "bool"
        }
      ],
      "name": "ApprovalForAll",
      "type": "event"
    },
    {
      "anonymous": false,
      "inputs": [
        {
          "indexed": true,
          "internalType": "address",
          "name": "previousOwner",
          "type": "address"
        },
        {
          "indexed": true,
          "internalType": "address",
          "name": "newOwner",
          "type": "address"
        }
      ],
      "name": "OwnershipTransferred",
      "type": "event"
    },
    {
      "anonymous": false,
      "inputs": [
        {
          "indexed": true,
          "internalType": "address",
          "name": "from",
          "type": "address"
        },
        {
          "indexed": true,
          "internalType": "address",
          "name": "to",
          "type": "address"
        },
        {
          "indexed": true,
          "internalType": "uint256",
          "name": "tokenId",
          "type": "uint256"
        }
      ],
      "name": "Transfer",
      "type": "event"
    },
    {
      "inputs": [
        {
          "internalType": "address",
          "name": "to",
          "type": "address"
        },
        {
          "internalType": "uint256",
          "name": "tokenId",
          "type": "uint256"
        }
      ],
      "name": "approve",
      "outputs": [],
      "stateMutability": "nonpayable",
      "type": "function"
    },
    {
      "inputs": [
        {
          "internalType": "address",
          "name": "owner",
          "type": "address"
        }
      ],
      "name": "balanceOf",
      "outputs": [
        {
          "internalType": "uint256",
          "name": "",
          "type": "uint256"
        }
      ],
      "stateMutability": "view",
      "type": "function",
      "constant": true
    },
    {
      "inputs": [
        {
          "internalType": "uint256",
          "name": "tokenId",
          "type": "uint256"
        }
      ],
      "name": "getApproved",
      "outputs": [
        {
          "internalType": "address",
          "name": "",
          "type": "address"
        }
      ],
      "stateMutability": "view",
      "type": "function",
      "constant": true
    },
    {
      "inputs": [
        {
          "internalType": "address",
          "name": "owner",
          "type": "address"
        },
        {
          "internalType": "address",
          "name": "operator",
          "type": "address"
        }
      ],
      "name": "isApprovedForAll",
      "outputs": [
        {
          "internalType": "bool",
          "name": "",
          "type": "bool"
        }
      ],
      "stateMutability": "view",
      "type": "function",
      "constant": true
    },
    {
      "inputs": [],
      "name": "name",
      "outputs": [
        {
          "internalType": "string",
          "name": "",
          "type": "string"
        }
      ],
      "stateMutability": "view",
      "type": "function",
      "constant": true
    },
    {
      "inputs": [],
      "name": "owner",
      "outputs": [
        {
          "internalType": "address",
          "name": "",
          "type": "address"
        }
      ],
      "stateMutability": "view",
      "type": "function",
      "constant": true
    },
    {
      "inputs": [
        {
          "internalType": "uint256",
          "name": "tokenId",
          "type": "uint256"
        }
      ],
      "name": "ownerOf",
      "outputs": [
        {
          "internalType": "address",
          "name": "",
          "type": "address"
        }
      ],
      "stateMutability": "view",
      "type": "function",
      "constant": true
    },
    {
      "inputs": [],
      "name": "renounceOwnership",
      "outputs": [],
      "stateMutability": "nonpayable",
      "type": "function"
    },
    {
      "inputs": [
        {
          "internalType": "address",
          "name": "from",
          "type": "address"
        },
        {
          "internalType": "address",
          "name": "to",
          "type": "address"
        },
        {
          "internalType": "uint256",
          "name": "tokenId",
          "type": "uint256"
        }
      ],
      "name": "safeTransferFrom",
      "outputs": [],
      "stateMutability": "nonpayable",
      "type": "function"
    },
    {
      "inputs": [
        {
          "internalType": "address",
          "name": "from",
          "type": "address"
        },
        {
          "internalType": "address",
          "name": "to",
          "type": "address"
        },
        {
          "internalType": "uint256",
          "name": "tokenId",
          "type": "uint256"
        },
        {
          "internalType": "bytes",
          "name": "_data",
          "type": "bytes"
        }
      ],
      "name": "safeTransferFrom",
      "outputs": [],
      "stateMutability": "nonpayable",
      "type": "function"
    },
    {
      "inputs": [
        {
          "internalType": "address",
          "name": "operator",
          "type": "address"
        },
        {
          "internalType": "bool",
          "name": "approved",
          "type": "bool"
        }
      ],
      "name": "setApprovalForAll",
      "outputs": [],
      "stateMutability": "nonpayable",
      "type": "function"
    },
    {
      "inputs": [],
      "name": "symbol",
      "outputs": [
        {
          "internalType": "string",
          "name": "",
          "type": "string"
        }
      ],
      "stateMutability": "view",
      "type": "function",
      "constant": true
    },
    {
      "inputs": [
        {
          "internalType": "uint256",
          "name": "index",
          "type": "uint256"
        }
      ],
      "name": "tokenByIndex",
      "outputs": [
        {
          "internalType": "uint256",
          "name": "",
          "type": "uint256"
        }
      ],
      "stateMutability": "view",
      "type": "function",
      "constant": true
    },
    {
      "inputs": [
        {
          "internalType": "address",
          "name": "owner",
          "type": "address"
        },
        {
          "internalType": "uint256",
          "name": "index",
          "type": "uint256"
        }
      ],
      "name": "tokenOfOwnerByIndex",
      "outputs": [
        {
          "internalType": "uint256",
          "name": "",
          "type": "uint256"
        }
      ],
      "stateMutability": "view",
      "type": "function",
      "constant": true
    },
    {
      "inputs": [],
      "name": "totalSupply",
      "outputs": [
        {
          "internalType": "uint256",
          "name": "",
          "type": "uint256"
        }
      ],
      "stateMutability": "view",
      "type": "function",
      "constant": true
    },
    {
      "inputs": [
        {
          "internalType": "address",
          "name": "from",
          "type": "address"
        },
        {
          "internalType": "address",
          "name": "to",
          "type": "address"
        },
        {
          "internalType": "uint256",
          "name": "tokenId",
          "type": "uint256"
        }
      ],
      "name": "transferFrom",
      "outputs": [],
      "stateMutability": "nonpayable",
      "type": "function"
    },
    {
      "inputs": [
        {
          "internalType": "address",
          "name": "newOwner",
          "type": "address"
        }
      ],
      "name": "transferOwnership",
      "outputs": [],
      "stateMutability": "nonpayable",
      "type": "function"
    },
    {
      "inputs": [
        {
          "internalType": "address",
          "name": "",
          "type": "address"
        }
      ],
      "name": "whitelisted",
      "outputs": [
        {
          "internalType": "bool",
          "name": "",
          "type": "bool"
        }
      ],
      "stateMutability": "view",
      "type": "function",
      "constant": true
    },
    {
      "inputs": [
        {
          "internalType": "address",
          "name": "recipient",
          "type": "address"
        },
        {
          "internalType": "string",
          "name": "uri",
          "type": "string"
        }
      ],
      "name": "mint",
      "outputs": [
        {
          "internalType": "uint256",
          "name": "",
          "type": "uint256"
        }
      ],
      "stateMutability": "payable",
      "type": "function",
      "payable": true
    },
    {
      "inputs": [
        {
          "internalType": "uint256",
          "name": "tokenId",
          "type": "uint256"
        }
      ],
      "name": "tokenURI",
      "outputs": [
        {
          "internalType": "string",
          "name": "",
          "type": "string"
        }
      ],
      "stateMutability": "view",
      "type": "function",
      "constant": true
    },
    {
      "inputs": [
        {
          "internalType": "address",
          "name": "_owner",
          "type": "address"
        }
      ],
      "name": "getUserTokens",
      "outputs": [
        {
          "components": [
            {
              "internalType": "uint256",
              "name": "id",
              "type": "uint256"
            },
            {
              "internalType": "string",
              "name": "uri",
              "type": "string"
            }
          ],
          "internalType": "struct SmartContract.RenderUserToken[]",
          "name": "",
          "type": "tuple[]"
        }
      ],
      "stateMutability": "view",
      "type": "function",
      "constant": true
    },
    {
      "inputs": [
        {
          "internalType": "bytes4",
          "name": "interfaceId",
          "type": "bytes4"
        }
      ],
      "name": "supportsInterface",
      "outputs": [
        {
          "internalType": "bool",
          "name": "",
          "type": "bool"
        }
      ],
      "stateMutability": "view",
      "type": "function",
      "constant": true
    }
  ],
  "bytecode": "0x60806040523480156200001157600080fd5b5060408051808201825260088152676e416e696d616c7360c01b6020808301918252835180850190945260048452634e414e4960e01b9084015281519192916200005e91600091620000ed565b50805162000074906001906020840190620000ed565b505050620000916200008b6200009760201b60201c565b6200009b565b620001d0565b3390565b600a80546001600160a01b038381166001600160a01b0319831681179093556040519116919082907f8be0079c531659141344cd1fd0a4f28419497f9722a3daafe3b4186f6b6457e090600090a35050565b828054620000fb9062000193565b90600052602060002090601f0160209004810192826200011f57600085556200016a565b82601f106200013a57805160ff19168380011785556200016a565b828001600101855582156200016a579182015b828111156200016a5782518255916020019190600101906200014d565b50620001789291506200017c565b5090565b5b808211156200017857600081556001016200017d565b600281046001821680620001a857607f821691505b60208210811415620001ca57634e487b7160e01b600052602260045260246000fd5b50919050565b611f2a80620001e06000396000f3fe6080604052600436106101355760003560e01c806370a08231116100ab578063b88d4fde1161006f578063b88d4fde1461034f578063c87b56dd1461036f578063d0def5211461038f578063d936547e146103a2578063e985e9c5146103c2578063f2fde38b146103e257610135565b806370a08231146102d0578063715018a6146102f05780638da5cb5b1461030557806395d89b411461031a578063a22cb4651461032f57610135565b806323b872dd116100fd57806323b872dd146102035780632f745c591461022357806342842e0e146102435780634f6ccce714610263578063519dc8d2146102835780636352211e146102b057610135565b806301ffc9a71461013a57806306fdde0314610170578063081812fc14610192578063095ea7b3146101bf57806318160ddd146101e1575b600080fd5b34801561014657600080fd5b5061015a610155366004611771565b610402565b60405161016791906118ee565b60405180910390f35b34801561017c57600080fd5b50610185610415565b60405161016791906118f9565b34801561019e57600080fd5b506101b26101ad3660046117a9565b6104a7565b604051610167919061182c565b3480156101cb57600080fd5b506101df6101da366004611748565b6104f3565b005b3480156101ed57600080fd5b506101f661058b565b6040516101679190611dba565b34801561020f57600080fd5b506101df61021e3660046115fb565b610591565b34801561022f57600080fd5b506101f661023e366004611748565b6105c9565b34801561024f57600080fd5b506101df61025e3660046115fb565b61061b565b34801561026f57600080fd5b506101f661027e3660046117a9565b610636565b34801561028f57600080fd5b506102a361029e3660046115a8565b610691565b604051610167919061187d565b3480156102bc57600080fd5b506101b26102cb3660046117a9565b610782565b3480156102dc57600080fd5b506101f66102eb3660046115a8565b6107b7565b3480156102fc57600080fd5b506101df6107fb565b34801561031157600080fd5b506101b2610846565b34801561032657600080fd5b50610185610855565b34801561033b57600080fd5b506101df61034a3660046116af565b610864565b34801561035b57600080fd5b506101df61036a366004611636565b610932565b34801561037b57600080fd5b5061018561038a3660046117a9565b610971565b6101f661039d3660046116e9565b610a24565b3480156103ae57600080fd5b5061015a6103bd3660046115a8565b610a71565b3480156103ce57600080fd5b5061015a6103dd3660046115c9565b610a86565b3480156103ee57600080fd5b506101df6103fd3660046115a8565b610ab4565b600061040d82610b25565b90505b919050565b60606000805461042490611e32565b80601f016020809104026020016040519081016040528092919081815260200182805461045090611e32565b801561049d5780601f106104725761010080835404028352916020019161049d565b820191906000526020600020905b81548152906001019060200180831161048057829003601f168201915b5050505050905090565b60006104b282610b4a565b6104d75760405162461bcd60e51b81526004016104ce90611c12565b60405180910390fd5b506000908152600460205260409020546001600160a01b031690565b60006104fe82610782565b9050806001600160a01b0316836001600160a01b031614156105325760405162461bcd60e51b81526004016104ce90611cdc565b806001600160a01b0316610544610b67565b6001600160a01b031614806105605750610560816103dd610b67565b61057c5760405162461bcd60e51b81526004016104ce90611aed565b6105868383610b6b565b505050565b60085490565b6105a261059c610b67565b82610bd9565b6105be5760405162461bcd60e51b81526004016104ce90611d1d565b610586838383610c5e565b60006105d4836107b7565b82106105f25760405162461bcd60e51b81526004016104ce9061190c565b506001600160a01b03919091166000908152600660209081526040808320938352929052205490565b61058683838360405180602001604052806000815250610932565b600061064061058b565b821061065e5760405162461bcd60e51b81526004016104ce90611d6e565b6008828154811061067f57634e487b7160e01b600052603260045260246000fd5b90600052602060002001549050919050565b6060600061069e836107b7565b905060008167ffffffffffffffff8111156106c957634e487b7160e01b600052604160045260246000fd5b60405190808252806020026020018201604052801561070257816020015b6106ef61146e565b8152602001906001900390816106e75790505b50905060005b8281101561077a57600061071c86836105c9565b9050604051806040016040528082815260200161073883610971565b81525083838151811061075b57634e487b7160e01b600052603260045260246000fd5b602002602001018190525050808061077290611e6d565b915050610708565b509392505050565b6000818152600260205260408120546001600160a01b03168061040d5760405162461bcd60e51b81526004016104ce90611b94565b60006001600160a01b0382166107df5760405162461bcd60e51b81526004016104ce90611b4a565b506001600160a01b031660009081526003602052604090205490565b610803610b67565b6001600160a01b0316610814610846565b6001600160a01b03161461083a5760405162461bcd60e51b81526004016104ce90611c5e565b6108446000610d8b565b565b600a546001600160a01b031690565b60606001805461042490611e32565b61086c610b67565b6001600160a01b0316826001600160a01b0316141561089d5760405162461bcd60e51b81526004016104ce90611a6a565b80600560006108aa610b67565b6001600160a01b03908116825260208083019390935260409182016000908120918716808252919093529120805460ff1916921515929092179091556108ee610b67565b6001600160a01b03167f17307eab39ab6107e8899845ad3d59bd9653f200f220920489ca2b5937696c318360405161092691906118ee565b60405180910390a35050565b61094361093d610b67565b83610bd9565b61095f5760405162461bcd60e51b81526004016104ce90611d1d565b61096b84848484610ddd565b50505050565b606061097c82610b4a565b61098557600080fd5b6000828152600c60205260408120805461099e90611e32565b80601f01602080910402602001604051908101604052809291908181526020018280546109ca90611e32565b8015610a175780601f106109ec57610100808354040283529160200191610a17565b820191906000526020600020905b8154815290600101906020018083116109fa57829003601f168201915b5093979650505050505050565b600080610a31600b610e10565b90506000610a5184610a4c610a47856001611dc3565b610e14565b610f2f565b9050610a5d8583610f5b565b610a67828261103a565b61077a600b611059565b600d6020526000908152604090205460ff1681565b6001600160a01b03918216600090815260056020908152604080832093909416825291909152205460ff1690565b610abc610b67565b6001600160a01b0316610acd610846565b6001600160a01b031614610af35760405162461bcd60e51b81526004016104ce90611c5e565b6001600160a01b038116610b195760405162461bcd60e51b81526004016104ce906119a9565b610b2281610d8b565b50565b60006001600160e01b0319821663780e9d6360e01b148061040d575061040d82611062565b6000908152600260205260409020546001600160a01b0316151590565b3390565b600081815260046020526040902080546001600160a01b0319166001600160a01b0384169081179091558190610ba082610782565b6001600160a01b03167f8c5be1e5ebec7d5bd14f71427d1e84f3dd0314c0f7b2291e5b200ac8c7c3b92560405160405180910390a45050565b6000610be482610b4a565b610c005760405162461bcd60e51b81526004016104ce90611aa1565b6000610c0b83610782565b9050806001600160a01b0316846001600160a01b03161480610c465750836001600160a01b0316610c3b846104a7565b6001600160a01b0316145b80610c565750610c568185610a86565b949350505050565b826001600160a01b0316610c7182610782565b6001600160a01b031614610c975760405162461bcd60e51b81526004016104ce90611c93565b6001600160a01b038216610cbd5760405162461bcd60e51b81526004016104ce90611a26565b610cc88383836110a2565b610cd3600082610b6b565b6001600160a01b0383166000908152600360205260408120805460019290610cfc908490611def565b90915550506001600160a01b0382166000908152600360205260408120805460019290610d2a908490611dc3565b909155505060008181526002602052604080822080546001600160a01b0319166001600160a01b0386811691821790925591518493918716917fddf252ad1be2c89b69c2b068fc378daa952ba7f163c4a11628f55a4df523b3ef91a4505050565b600a80546001600160a01b038381166001600160a01b0319831681179093556040519116919082907f8be0079c531659141344cd1fd0a4f28419497f9722a3daafe3b4186f6b6457e090600090a35050565b610de8848484610c5e565b610df4848484846110ad565b61096b5760405162461bcd60e51b81526004016104ce90611957565b5490565b606081610e3957506040805180820190915260018152600360fc1b6020820152610410565b8160005b8115610e635780610e4d81611e6d565b9150610e5c9050600a83611ddb565b9150610e3d565b60008167ffffffffffffffff811115610e8c57634e487b7160e01b600052604160045260246000fd5b6040519080825280601f01601f191660200182016040528015610eb6576020820181803683370190505b5090505b8415610c5657610ecb600183611def565b9150610ed8600a86611e88565b610ee3906030611dc3565b60f81b818381518110610f0657634e487b7160e01b600052603260045260246000fd5b60200101906001600160f81b031916908160001a905350610f28600a86611ddb565b9450610eba565b60608282604051602001610f449291906117ed565b604051602081830303815290604052905092915050565b6001600160a01b038216610f815760405162461bcd60e51b81526004016104ce90611bdd565b610f8a81610b4a565b15610fa75760405162461bcd60e51b81526004016104ce906119ef565b610fb3600083836110a2565b6001600160a01b0382166000908152600360205260408120805460019290610fdc908490611dc3565b909155505060008181526002602052604080822080546001600160a01b0319166001600160a01b03861690811790915590518392907fddf252ad1be2c89b69c2b068fc378daa952ba7f163c4a11628f55a4df523b3ef908290a45050565b6000828152600c60209081526040909120825161058692840190611488565b80546001019055565b60006001600160e01b031982166380ac58cd60e01b148061109357506001600160e01b03198216635b5e139f60e01b145b8061040d575061040d826111c8565b6105868383836111e1565b60006110c1846001600160a01b031661126a565b156111bd57836001600160a01b031663150b7a026110dd610b67565b8786866040518563ffffffff1660e01b81526004016110ff9493929190611840565b602060405180830381600087803b15801561111957600080fd5b505af1925050508015611149575060408051601f3d908101601f191682019092526111469181019061178d565b60015b6111a3573d808015611177576040519150601f19603f3d011682016040523d82523d6000602084013e61117c565b606091505b50805161119b5760405162461bcd60e51b81526004016104ce90611957565b805181602001fd5b6001600160e01b031916630a85bd0160e11b149050610c56565b506001949350505050565b6001600160e01b031981166301ffc9a760e01b14919050565b6111ec838383610586565b6001600160a01b0383166112085761120381611270565b61122b565b816001600160a01b0316836001600160a01b03161461122b5761122b83826112b4565b6001600160a01b0382166112475761124281611351565b610586565b826001600160a01b0316826001600160a01b03161461058657610586828261142a565b3b151590565b600880546000838152600960205260408120829055600182018355919091527ff3f7a9fe364faab93b216da50a3214154f22a0a2b415b23a84c8169e8b636ee30155565b600060016112c1846107b7565b6112cb9190611def565b60008381526007602052604090205490915080821461131e576001600160a01b03841660009081526006602090815260408083208584528252808320548484528184208190558352600790915290208190555b5060009182526007602090815260408084208490556001600160a01b039094168352600681528383209183525290812055565b60085460009061136390600190611def565b6000838152600960205260408120546008805493945090928490811061139957634e487b7160e01b600052603260045260246000fd5b9060005260206000200154905080600883815481106113c857634e487b7160e01b600052603260045260246000fd5b600091825260208083209091019290925582815260099091526040808220849055858252812055600880548061140e57634e487b7160e01b600052603160045260246000fd5b6001900381819060005260206000200160009055905550505050565b6000611435836107b7565b6001600160a01b039093166000908152600660209081526040808320868452825280832085905593825260079052919091209190915550565b604051806040016040528060008152602001606081525090565b82805461149490611e32565b90600052602060002090601f0160209004810192826114b657600085556114fc565b82601f106114cf57805160ff19168380011785556114fc565b828001600101855582156114fc579182015b828111156114fc5782518255916020019190600101906114e1565b5061150892915061150c565b5090565b5b80821115611508576000815560010161150d565b600067ffffffffffffffff8084111561153c5761153c611ec8565b604051601f8501601f19168101602001828111828210171561156057611560611ec8565b60405284815291508183850186101561157857600080fd5b8484602083013760006020868301015250509392505050565b80356001600160a01b038116811461041057600080fd5b6000602082840312156115b9578081fd5b6115c282611591565b9392505050565b600080604083850312156115db578081fd5b6115e483611591565b91506115f260208401611591565b90509250929050565b60008060006060848603121561160f578081fd5b61161884611591565b925061162660208501611591565b9150604084013590509250925092565b6000806000806080858703121561164b578081fd5b61165485611591565b935061166260208601611591565b925060408501359150606085013567ffffffffffffffff811115611684578182fd5b8501601f81018713611694578182fd5b6116a387823560208401611521565b91505092959194509250565b600080604083850312156116c1578182fd5b6116ca83611591565b9150602083013580151581146116de578182fd5b809150509250929050565b600080604083850312156116fb578182fd5b61170483611591565b9150602083013567ffffffffffffffff81111561171f578182fd5b8301601f8101851361172f578182fd5b61173e85823560208401611521565b9150509250929050565b6000806040838503121561175a578182fd5b61176383611591565b946020939093013593505050565b600060208284031215611782578081fd5b81356115c281611ede565b60006020828403121561179e578081fd5b81516115c281611ede565b6000602082840312156117ba578081fd5b5035919050565b600081518084526117d9816020860160208601611e06565b601f01601f19169290920160200192915050565b600083516117ff818460208801611e06565b835190830190611813818360208801611e06565b64173539b7b760d91b9101908152600501949350505050565b6001600160a01b0391909116815260200190565b6001600160a01b0385811682528416602082015260408101839052608060608201819052600090611873908301846117c1565b9695505050505050565b60208082528251828201819052600091906040908185019080840286018301878501865b838110156118e057888303603f190185528151805184528701518784018790526118cd878501826117c1565b95880195935050908601906001016118a1565b509098975050505050505050565b901515815260200190565b6000602082526115c260208301846117c1565b6020808252602b908201527f455243373231456e756d657261626c653a206f776e657220696e646578206f7560408201526a74206f6620626f756e647360a81b606082015260800190565b60208082526032908201527f4552433732313a207472616e7366657220746f206e6f6e20455243373231526560408201527131b2b4bb32b91034b6b83632b6b2b73a32b960711b606082015260800190565b60208082526026908201527f4f776e61626c653a206e6577206f776e657220697320746865207a65726f206160408201526564647265737360d01b606082015260800190565b6020808252601c908201527f4552433732313a20746f6b656e20616c7265616479206d696e74656400000000604082015260600190565b60208082526024908201527f4552433732313a207472616e7366657220746f20746865207a65726f206164646040820152637265737360e01b606082015260800190565b60208082526019908201527f4552433732313a20617070726f766520746f2063616c6c657200000000000000604082015260600190565b6020808252602c908201527f4552433732313a206f70657261746f7220717565727920666f72206e6f6e657860408201526b34b9ba32b73a103a37b5b2b760a11b606082015260800190565b60208082526038908201527f4552433732313a20617070726f76652063616c6c6572206973206e6f74206f7760408201527f6e6572206e6f7220617070726f76656420666f7220616c6c0000000000000000606082015260800190565b6020808252602a908201527f4552433732313a2062616c616e636520717565727920666f7220746865207a65604082015269726f206164647265737360b01b606082015260800190565b60208082526029908201527f4552433732313a206f776e657220717565727920666f72206e6f6e657869737460408201526832b73a103a37b5b2b760b91b606082015260800190565b6020808252818101527f4552433732313a206d696e7420746f20746865207a65726f2061646472657373604082015260600190565b6020808252602c908201527f4552433732313a20617070726f76656420717565727920666f72206e6f6e657860408201526b34b9ba32b73a103a37b5b2b760a11b606082015260800190565b6020808252818101527f4f776e61626c653a2063616c6c6572206973206e6f7420746865206f776e6572604082015260600190565b60208082526029908201527f4552433732313a207472616e73666572206f6620746f6b656e2074686174206960408201526839903737ba1037bbb760b91b606082015260800190565b60208082526021908201527f4552433732313a20617070726f76616c20746f2063757272656e74206f776e656040820152603960f91b606082015260800190565b60208082526031908201527f4552433732313a207472616e736665722063616c6c6572206973206e6f74206f6040820152701ddb995c881b9bdc88185c1c1c9bdd9959607a1b606082015260800190565b6020808252602c908201527f455243373231456e756d657261626c653a20676c6f62616c20696e646578206f60408201526b7574206f6620626f756e647360a01b606082015260800190565b90815260200190565b60008219821115611dd657611dd6611e9c565b500190565b600082611dea57611dea611eb2565b500490565b600082821015611e0157611e01611e9c565b500390565b60005b83811015611e21578181015183820152602001611e09565b8381111561096b5750506000910152565b600281046001821680611e4657607f821691505b60208210811415611e6757634e487b7160e01b600052602260045260246000fd5b50919050565b6000600019821415611e8157611e81611e9c565b5060010190565b600082611e9757611e97611eb2565b500690565b634e487b7160e01b600052601160045260246000fd5b634e487b7160e01b600052601260045260246000fd5b634e487b7160e01b600052604160045260246000fd5b6001600160e01b031981168114610b2257600080fdfea2646970667358221220354f9cbb275d681db1e3e625e303986fef9ee19c1e0b07e1e066a6b98162b4fc64736f6c63430008000033",
  "immutableReferences": {},
  "source": "// SPDX-License-Identifier: MIT\n\npragma solidity ^0.8.0;\nimport \"@openzeppelin/contracts/token/ERC721/ERC721.sol\";\nimport \"@openzeppelin/contracts/token/ERC721/extensions/ERC721Enumerable.sol\";\nimport \"@openzeppelin/contracts/utils/Counters.sol\";\nimport \"@openzeppelin/contracts/access/Ownable.sol\";\n\ncontract SmartContract is ERC721, ERC721Enumerable, Ownable {\n    using Counters for Counters.Counter;\n    using Strings for uint256;\n    Counters.Counter _tokenIds;\n    mapping(uint256 => string) _tokenURIs;\n\n    mapping (address => bool) public whitelisted;\n    \n    struct RenderUserToken {\n        uint256 id;\n        string uri;\n    }\n    \n    constructor() ERC721(\"nAnimals\", \"NANI\") {}\n    \n    // internal\n    function _setTokenURI(uint256 tokenId, string memory _tokenURI) internal {\n        _tokenURIs[tokenId] = _tokenURI;\n    }\n\n    function concat(string memory strOne, string memory strTwo) private pure returns (string memory) {\n        return string(abi.encodePacked(strOne, strTwo, \".json\"));\n    }\n    \n    function _beforeTokenTransfer(address from, address to, uint256 tokenId) internal virtual override(ERC721, ERC721Enumerable) {\n        super._beforeTokenTransfer(from, to, tokenId);\n    }\n\n    // public\n    function mint(address recipient, string memory uri) public payable returns(uint256) {\n        uint256 newId = _tokenIds.current();\n        string memory newUri = concat(uri, Strings.toString(newId+1));\n        _mint(recipient, newId);\n        _setTokenURI(newId, newUri);\n        _tokenIds.increment();\n        return newId;\n    }\n\n    function tokenURI(uint256 tokenId) public view virtual override returns(string memory) {\n        require(_exists(tokenId));\n        string memory _tokenURI = _tokenURIs[tokenId];\n        return _tokenURI;\n    }\n\n    function getUserTokens(address _owner) public view returns(RenderUserToken[] memory) {\n        uint256 ownerTokenCount = balanceOf(_owner);\n        RenderUserToken[] memory res = new RenderUserToken[](ownerTokenCount);\n        for(uint256 i = 0; i < ownerTokenCount; i++) {\n            uint256 tokenId = tokenOfOwnerByIndex(_owner, i);\n            res[i] = RenderUserToken(tokenId, tokenURI(tokenId));\n        }\n        return res;\n    }\n    \n    function supportsInterface(bytes4 interfaceId) public view virtual override(ERC721, ERC721Enumerable) returns (bool) {\n        return super.supportsInterface(interfaceId);\n    }\n}",
  "sourcePath": "/Users/sean/Documents/Coding/nAnimals/dApp/contracts/SmartContractNEW.sol",
  "compiler": {
    "name": "solc",
    "version": "0.8.0+commit.c7dfd78e.Emscripten.clang"
  },
  "schemaVersion": "3.4.3",
  "updatedAt": "2021-10-15T17:48:22.640Z",
  "networkType": "ethereum",
  "devdoc": {
    "kind": "dev",
    "methods": {
      "approve(address,uint256)": {
        "details": "See {IERC721-approve}."
      },
      "balanceOf(address)": {
        "details": "See {IERC721-balanceOf}."
      },
      "getApproved(uint256)": {
        "details": "See {IERC721-getApproved}."
      },
      "isApprovedForAll(address,address)": {
        "details": "See {IERC721-isApprovedForAll}."
      },
      "name()": {
        "details": "See {IERC721Metadata-name}."
      },
      "owner()": {
        "details": "Returns the address of the current owner."
      },
      "ownerOf(uint256)": {
        "details": "See {IERC721-ownerOf}."
      },
      "renounceOwnership()": {
        "details": "Leaves the contract without owner. It will not be possible to call `onlyOwner` functions anymore. Can only be called by the current owner. NOTE: Renouncing ownership will leave the contract without an owner, thereby removing any functionality that is only available to the owner."
      },
      "safeTransferFrom(address,address,uint256)": {
        "details": "See {IERC721-safeTransferFrom}."
      },
      "safeTransferFrom(address,address,uint256,bytes)": {
        "details": "See {IERC721-safeTransferFrom}."
      },
      "setApprovalForAll(address,bool)": {
        "details": "See {IERC721-setApprovalForAll}."
      },
      "symbol()": {
        "details": "See {IERC721Metadata-symbol}."
      },
      "tokenByIndex(uint256)": {
        "details": "See {IERC721Enumerable-tokenByIndex}."
      },
      "tokenOfOwnerByIndex(address,uint256)": {
        "details": "See {IERC721Enumerable-tokenOfOwnerByIndex}."
      },
      "tokenURI(uint256)": {
        "details": "See {IERC721Metadata-tokenURI}."
      },
      "totalSupply()": {
        "details": "See {IERC721Enumerable-totalSupply}."
      },
      "transferFrom(address,address,uint256)": {
        "details": "See {IERC721-transferFrom}."
      },
      "transferOwnership(address)": {
        "details": "Transfers ownership of the contract to a new account (`newOwner`). Can only be called by the current owner."
      }
    },
    "version": 1
  },
  "userdoc": {
    "kind": "user",
    "methods": {},
    "version": 1
  }
}