{
  "_format": "hh-sol-artifact-1",
  "contractName": "nAnimals",
  "sourceName": "contracts/nAnimals.sol",
  "abi": [
    {
      "inputs": [
        {
          "internalType": "string",
          "name": "_initBaseURI",
          "type": "string"
        }
      ],
      "stateMutability": "nonpayable",
      "type": "constructor"
    },
    {
      "anonymous": false,
      "inputs": [
        {
          "indexed": true,
          "internalType": "address",
          "name": "owner",
          "type": "address"
        },
        {
          "indexed": true,
          "internalType": "address",
          "name": "approved",
          "type": "address"
        },
        {
          "indexed": true,
          "internalType": "uint256",
          "name": "tokenId",
          "type": "uint256"
        }
      ],
      "name": "Approval",
      "type": "event"
    },
    {
      "anonymous": false,
      "inputs": [
        {
          "indexed": true,
          "internalType": "address",
          "name": "owner",
          "type": "address"
        },
        {
          "indexed": true,
          "internalType": "address",
          "name": "operator",
          "type": "address"
        },
        {
          "indexed": false,
          "internalType": "bool",
          "name": "approved",
          "type": "bool"
        }
      ],
      "name": "ApprovalForAll",
      "type": "event"
    },
    {
      "anonymous": false,
      "inputs": [
        {
          "indexed": true,
          "internalType": "address",
          "name": "previousOwner",
          "type": "address"
        },
        {
          "indexed": true,
          "internalType": "address",
          "name": "newOwner",
          "type": "address"
        }
      ],
      "name": "OwnershipTransferred",
      "type": "event"
    },
    {
      "anonymous": false,
      "inputs": [
        {
          "indexed": false,
          "internalType": "address",
          "name": "account",
          "type": "address"
        }
      ],
      "name": "Paused",
      "type": "event"
    },
    {
      "anonymous": false,
      "inputs": [
        {
          "indexed": true,
          "internalType": "address",
          "name": "from",
          "type": "address"
        },
        {
          "indexed": true,
          "internalType": "address",
          "name": "to",
          "type": "address"
        },
        {
          "indexed": true,
          "internalType": "uint256",
          "name": "tokenId",
          "type": "uint256"
        }
      ],
      "name": "Transfer",
      "type": "event"
    },
    {
      "anonymous": false,
      "inputs": [
        {
          "indexed": false,
          "internalType": "address",
          "name": "account",
          "type": "address"
        }
      ],
      "name": "Unpaused",
      "type": "event"
    },
    {
      "inputs": [
        {
          "internalType": "address",
          "name": "to",
          "type": "address"
        },
        {
          "internalType": "uint256",
          "name": "tokenId",
          "type": "uint256"
        }
      ],
      "name": "approve",
      "outputs": [],
      "stateMutability": "nonpayable",
      "type": "function"
    },
    {
      "inputs": [
        {
          "internalType": "address",
          "name": "owner",
          "type": "address"
        }
      ],
      "name": "balanceOf",
      "outputs": [
        {
          "internalType": "uint256",
          "name": "",
          "type": "uint256"
        }
      ],
      "stateMutability": "view",
      "type": "function"
    },
    {
      "inputs": [],
      "name": "baseURI",
      "outputs": [
        {
          "internalType": "string",
          "name": "",
          "type": "string"
        }
      ],
      "stateMutability": "view",
      "type": "function"
    },
    {
      "inputs": [],
      "name": "contractAddress",
      "outputs": [
        {
          "internalType": "address",
          "name": "",
          "type": "address"
        }
      ],
      "stateMutability": "view",
      "type": "function"
    },
    {
      "inputs": [],
      "name": "genStart",
      "outputs": [
        {
          "internalType": "uint256",
          "name": "",
          "type": "uint256"
        }
      ],
      "stateMutability": "view",
      "type": "function"
    },
    {
      "inputs": [
        {
          "internalType": "uint256",
          "name": "tokenId",
          "type": "uint256"
        }
      ],
      "name": "getApproved",
      "outputs": [
        {
          "internalType": "address",
          "name": "",
          "type": "address"
        }
      ],
      "stateMutability": "view",
      "type": "function"
    },
    {
      "inputs": [
        {
          "internalType": "address",
          "name": "_owner",
          "type": "address"
        }
      ],
      "name": "getUserTokens",
      "outputs": [
        {
          "components": [
            {
              "internalType": "uint256",
              "name": "id",
              "type": "uint256"
            },
            {
              "internalType": "string",
              "name": "uri",
              "type": "string"
            }
          ],
          "internalType": "struct nAnimals.RenderUserToken[]",
          "name": "",
          "type": "tuple[]"
        }
      ],
      "stateMutability": "view",
      "type": "function"
    },
    {
      "inputs": [
        {
          "internalType": "uint256",
          "name": "tokenId",
          "type": "uint256"
        }
      ],
      "name": "hatch",
      "outputs": [],
      "stateMutability": "payable",
      "type": "function"
    },
    {
      "inputs": [],
      "name": "hatchPrice",
      "outputs": [
        {
          "internalType": "uint256",
          "name": "",
          "type": "uint256"
        }
      ],
      "stateMutability": "view",
      "type": "function"
    },
    {
      "inputs": [],
      "name": "hatchURI",
      "outputs": [
        {
          "internalType": "string",
          "name": "",
          "type": "string"
        }
      ],
      "stateMutability": "view",
      "type": "function"
    },
    {
      "inputs": [],
      "name": "hatchingActive",
      "outputs": [
        {
          "internalType": "bool",
          "name": "",
          "type": "bool"
        }
      ],
      "stateMutability": "view",
      "type": "function"
    },
    {
      "inputs": [],
      "name": "hatchingOff",
      "outputs": [],
      "stateMutability": "nonpayable",
      "type": "function"
    },
    {
      "inputs": [],
      "name": "hatchingOn",
      "outputs": [],
      "stateMutability": "nonpayable",
      "type": "function"
    },
    {
      "inputs": [
        {
          "internalType": "address",
          "name": "_user",
          "type": "address"
        }
      ],
      "name": "inclusionlistUser",
      "outputs": [],
      "stateMutability": "nonpayable",
      "type": "function"
    },
    {
      "inputs": [
        {
          "internalType": "address",
          "name": "",
          "type": "address"
        }
      ],
      "name": "inclusionlisted",
      "outputs": [
        {
          "internalType": "bool",
          "name": "",
          "type": "bool"
        }
      ],
      "stateMutability": "view",
      "type": "function"
    },
    {
      "inputs": [
        {
          "internalType": "address",
          "name": "owner",
          "type": "address"
        },
        {
          "internalType": "address",
          "name": "operator",
          "type": "address"
        }
      ],
      "name": "isApprovedForAll",
      "outputs": [
        {
          "internalType": "bool",
          "name": "",
          "type": "bool"
        }
      ],
      "stateMutability": "view",
      "type": "function"
    },
    {
      "inputs": [],
      "name": "maxMintQuantity",
      "outputs": [
        {
          "internalType": "uint256",
          "name": "",
          "type": "uint256"
        }
      ],
      "stateMutability": "view",
      "type": "function"
    },
    {
      "inputs": [],
      "name": "maxMintSupply",
      "outputs": [
        {
          "internalType": "uint256",
          "name": "",
          "type": "uint256"
        }
      ],
      "stateMutability": "view",
      "type": "function"
    },
    {
      "inputs": [
        {
          "internalType": "uint256",
          "name": "_mintQuantity",
          "type": "uint256"
        }
      ],
      "name": "mint",
      "outputs": [],
      "stateMutability": "payable",
      "type": "function"
    },
    {
      "inputs": [],
      "name": "mintPrice",
      "outputs": [
        {
          "internalType": "uint256",
          "name": "",
          "type": "uint256"
        }
      ],
      "stateMutability": "view",
      "type": "function"
    },
    {
      "inputs": [],
      "name": "name",
      "outputs": [
        {
          "internalType": "string",
          "name": "",
          "type": "string"
        }
      ],
      "stateMutability": "view",
      "type": "function"
    },
    {
      "inputs": [],
      "name": "owner",
      "outputs": [
        {
          "internalType": "address",
          "name": "",
          "type": "address"
        }
      ],
      "stateMutability": "view",
      "type": "function"
    },
    {
      "inputs": [
        {
          "internalType": "uint256",
          "name": "tokenId",
          "type": "uint256"
        }
      ],
      "name": "ownerOf",
      "outputs": [
        {
          "internalType": "address",
          "name": "",
          "type": "address"
        }
      ],
      "stateMutability": "view",
      "type": "function"
    },
    {
      "inputs": [],
      "name": "pause",
      "outputs": [],
      "stateMutability": "nonpayable",
      "type": "function"
    },
    {
      "inputs": [],
      "name": "paused",
      "outputs": [
        {
          "internalType": "bool",
          "name": "",
          "type": "bool"
        }
      ],
      "stateMutability": "view",
      "type": "function"
    },
    {
      "inputs": [
        {
          "internalType": "address",
          "name": "_user",
          "type": "address"
        }
      ],
      "name": "removeinclusionlistUser",
      "outputs": [],
      "stateMutability": "nonpayable",
      "type": "function"
    },
    {
      "inputs": [],
      "name": "renounceOwnership",
      "outputs": [],
      "stateMutability": "nonpayable",
      "type": "function"
    },
    {
      "inputs": [
        {
          "internalType": "address",
          "name": "from",
          "type": "address"
        },
        {
          "internalType": "address",
          "name": "to",
          "type": "address"
        },
        {
          "internalType": "uint256",
          "name": "tokenId",
          "type": "uint256"
        }
      ],
      "name": "safeTransferFrom",
      "outputs": [],
      "stateMutability": "nonpayable",
      "type": "function"
    },
    {
      "inputs": [
        {
          "internalType": "address",
          "name": "from",
          "type": "address"
        },
        {
          "internalType": "address",
          "name": "to",
          "type": "address"
        },
        {
          "internalType": "uint256",
          "name": "tokenId",
          "type": "uint256"
        },
        {
          "internalType": "bytes",
          "name": "_data",
          "type": "bytes"
        }
      ],
      "name": "safeTransferFrom",
      "outputs": [],
      "stateMutability": "nonpayable",
      "type": "function"
    },
    {
      "inputs": [
        {
          "internalType": "address",
          "name": "operator",
          "type": "address"
        },
        {
          "internalType": "bool",
          "name": "approved",
          "type": "bool"
        }
      ],
      "name": "setApprovalForAll",
      "outputs": [],
      "stateMutability": "nonpayable",
      "type": "function"
    },
    {
      "inputs": [
        {
          "internalType": "string",
          "name": "_newBaseURI",
          "type": "string"
        }
      ],
      "name": "setBaseURI",
      "outputs": [],
      "stateMutability": "nonpayable",
      "type": "function"
    },
    {
      "inputs": [
        {
          "internalType": "uint256",
          "name": "_newGenStart",
          "type": "uint256"
        }
      ],
      "name": "setGenStart",
      "outputs": [],
      "stateMutability": "nonpayable",
      "type": "function"
    },
    {
      "inputs": [
        {
          "internalType": "uint256",
          "name": "newHatchPrice",
          "type": "uint256"
        }
      ],
      "name": "setHatchPrice",
      "outputs": [],
      "stateMutability": "nonpayable",
      "type": "function"
    },
    {
      "inputs": [
        {
          "internalType": "string",
          "name": "_newHatchURI",
          "type": "string"
        }
      ],
      "name": "setHatchURI",
      "outputs": [],
      "stateMutability": "nonpayable",
      "type": "function"
    },
    {
      "inputs": [
        {
          "internalType": "uint256",
          "name": "newMintPrice",
          "type": "uint256"
        }
      ],
      "name": "setMintPrice",
      "outputs": [],
      "stateMutability": "nonpayable",
      "type": "function"
    },
    {
      "inputs": [
        {
          "internalType": "uint256",
          "name": "_newmaxMintQuantity",
          "type": "uint256"
        }
      ],
      "name": "setmaxMintQuantity",
      "outputs": [],
      "stateMutability": "nonpayable",
      "type": "function"
    },
    {
      "inputs": [
        {
          "internalType": "bytes4",
          "name": "interfaceId",
          "type": "bytes4"
        }
      ],
      "name": "supportsInterface",
      "outputs": [
        {
          "internalType": "bool",
          "name": "",
          "type": "bool"
        }
      ],
      "stateMutability": "view",
      "type": "function"
    },
    {
      "inputs": [],
      "name": "symbol",
      "outputs": [
        {
          "internalType": "string",
          "name": "",
          "type": "string"
        }
      ],
      "stateMutability": "view",
      "type": "function"
    },
    {
      "inputs": [
        {
          "internalType": "uint256",
          "name": "index",
          "type": "uint256"
        }
      ],
      "name": "tokenByIndex",
      "outputs": [
        {
          "internalType": "uint256",
          "name": "",
          "type": "uint256"
        }
      ],
      "stateMutability": "view",
      "type": "function"
    },
    {
      "inputs": [
        {
          "internalType": "address",
          "name": "owner",
          "type": "address"
        },
        {
          "internalType": "uint256",
          "name": "index",
          "type": "uint256"
        }
      ],
      "name": "tokenOfOwnerByIndex",
      "outputs": [
        {
          "internalType": "uint256",
          "name": "",
          "type": "uint256"
        }
      ],
      "stateMutability": "view",
      "type": "function"
    },
    {
      "inputs": [
        {
          "internalType": "uint256",
          "name": "tokenId",
          "type": "uint256"
        }
      ],
      "name": "tokenURI",
      "outputs": [
        {
          "internalType": "string",
          "name": "",
          "type": "string"
        }
      ],
      "stateMutability": "view",
      "type": "function"
    },
    {
      "inputs": [],
      "name": "totalSupply",
      "outputs": [
        {
          "internalType": "uint256",
          "name": "",
          "type": "uint256"
        }
      ],
      "stateMutability": "view",
      "type": "function"
    },
    {
      "inputs": [
        {
          "internalType": "address",
          "name": "from",
          "type": "address"
        },
        {
          "internalType": "address",
          "name": "to",
          "type": "address"
        },
        {
          "internalType": "uint256",
          "name": "tokenId",
          "type": "uint256"
        }
      ],
      "name": "transferFrom",
      "outputs": [],
      "stateMutability": "nonpayable",
      "type": "function"
    },
    {
      "inputs": [
        {
          "internalType": "address",
          "name": "newOwner",
          "type": "address"
        }
      ],
      "name": "transferOwnership",
      "outputs": [],
      "stateMutability": "nonpayable",
      "type": "function"
    },
    {
      "inputs": [],
      "name": "unpause",
      "outputs": [],
      "stateMutability": "nonpayable",
      "type": "function"
    },
    {
      "inputs": [
        {
          "internalType": "contract IERC20",
          "name": "token",
          "type": "address"
        }
      ],
      "name": "withdrawERC20",
      "outputs": [],
      "stateMutability": "nonpayable",
      "type": "function"
    },
    {
      "inputs": [],
      "name": "withdrawMatic",
      "outputs": [],
      "stateMutability": "nonpayable",
      "type": "function"
    }
  ],
  "bytecode": "0x6080604052600e80546001600160a01b03191630179055671bc16d674ec80000600f8190556010556107d0601155600a6013556014805460ff191690553480156200004957600080fd5b50604051620039c6380380620039c68339810160408190526200006c916200027c565b60408051808201825260088152676e414e494d414c7360c01b6020808301918252835180850190945260048452634e414e4960e01b908401528151919291620000b891600091620001d6565b508051620000ce906001906020840190620001d6565b50506001600a5550620000ea620000e462000109565b6200010d565b600b805460ff60a01b1916905562000102816200015f565b50620003d3565b3390565b600b80546001600160a01b038381166001600160a01b0319831681179093556040519116919082907f8be0079c531659141344cd1fd0a4f28419497f9722a3daafe3b4186f6b6457e090600090a35050565b6200016962000109565b6001600160a01b03166200017c620001c7565b6001600160a01b031614620001ae5760405162461bcd60e51b8152600401620001a5906200034b565b60405180910390fd5b8051620001c390600c906020840190620001d6565b5050565b600b546001600160a01b031690565b828054620001e49062000380565b90600052602060002090601f01602090048101928262000208576000855562000253565b82601f106200022357805160ff191683800117855562000253565b8280016001018555821562000253579182015b828111156200025357825182559160200191906001019062000236565b506200026192915062000265565b5090565b5b8082111562000261576000815560010162000266565b600060208083850312156200028f578182fd5b82516001600160401b0380821115620002a6578384fd5b818501915085601f830112620002ba578384fd5b815181811115620002cf57620002cf620003bd565b604051601f8201601f1916810185018381118282101715620002f557620002f5620003bd565b60405281815283820185018810156200030c578586fd5b8592505b818310156200032f578383018501518184018601529184019162000310565b818311156200034057858583830101525b979650505050505050565b6020808252818101527f4f776e61626c653a2063616c6c6572206973206e6f7420746865206f776e6572604082015260600190565b6002810460018216806200039557607f821691505b60208210811415620003b757634e487b7160e01b600052602260045260246000fd5b50919050565b634e487b7160e01b600052604160045260246000fd5b6135e380620003e36000396000f3fe6080604052600436106102885760003560e01c8063715018a61161015a578063c285e107116100c1578063e985e9c51161007a578063e985e9c51461070e578063eeb2f3c61461072e578063f2fde38b1461074e578063f4a0a5281461076e578063f4f3b2001461078e578063f6b4dfb4146107ae57610288565b8063c285e10714610671578063c87b56dd14610686578063c8c18842146106a6578063cefcc858146106b9578063d20ae6ed146106d9578063e57f3e1e146106ee57610288565b8063a22cb46511610113578063a22cb465146105bc578063a26b4627146105dc578063a912adb2146105fc578063ae9aea6d1461061c578063b2801de414610631578063b88d4fde1461065157610288565b8063715018a614610540578063810074c6146105555780638456cb591461056a5780638da5cb5b1461057f57806395d89b4114610594578063a0712d68146105a957610288565b806342842e0e116101fe5780636352211e116101b75780636352211e146104a15780636633b12d146104c15780636817c76c146104d657806369074dfa146104eb5780636c0360eb1461050b57806370a082311461052057610288565b806342842e0e146103ea5780634f6ccce71461040a578063519dc8d21461042a57806355f804b31461045757806356982e30146104775780635c975abb1461048c57610288565b806318160ddd1161025057806318160ddd1461034957806318ecf3651461036b5780631aa2948a1461038057806323b872dd146103955780632f745c59146103b55780633f4ba83a146103d557610288565b806301ffc9a71461028d578063055f6341146102c357806306fdde03146102da578063081812fc146102fc578063095ea7b314610329575b600080fd5b34801561029957600080fd5b506102ad6102a8366004612829565b6107c3565b6040516102ba9190612afe565b60405180910390f35b3480156102cf57600080fd5b506102d86107d6565b005b3480156102e657600080fd5b506102ef6108d1565b6040516102ba9190612b09565b34801561030857600080fd5b5061031c6103173660046128a7565b610963565b6040516102ba9190612a23565b34801561033557600080fd5b506102d86103443660046127e2565b6109a6565b34801561035557600080fd5b5061035e610a3e565b6040516102ba9190613403565b34801561037757600080fd5b5061035e610a44565b34801561038c57600080fd5b5061035e610a4a565b3480156103a157600080fd5b506102d86103b03660046126f8565b610a50565b3480156103c157600080fd5b5061035e6103d03660046127e2565b610a88565b3480156103e157600080fd5b506102d8610ada565b3480156103f657600080fd5b506102d86104053660046126f8565b610b23565b34801561041657600080fd5b5061035e6104253660046128a7565b610b3e565b34801561043657600080fd5b5061044a61044536600461269d565b610b99565b6040516102ba9190612a8d565b34801561046357600080fd5b506102d8610472366004612861565b610c8a565b34801561048357600080fd5b506102ef610ce0565b34801561049857600080fd5b506102ad610d6e565b3480156104ad57600080fd5b5061031c6104bc3660046128a7565b610d7e565b3480156104cd57600080fd5b506102d8610db3565b3480156104e257600080fd5b5061035e610dfe565b3480156104f757600080fd5b506102d86105063660046128a7565b610e04565b34801561051757600080fd5b506102ef610e48565b34801561052c57600080fd5b5061035e61053b36600461269d565b610e55565b34801561054c57600080fd5b506102d8610e99565b34801561056157600080fd5b506102d8610ee2565b34801561057657600080fd5b506102d8610f50565b34801561058b57600080fd5b5061031c610f97565b3480156105a057600080fd5b506102ef610fa6565b6102d86105b73660046128a7565b610fb5565b3480156105c857600080fd5b506102d86105d73660046127b5565b6112a4565b3480156105e857600080fd5b506102d86105f736600461269d565b611372565b34801561060857600080fd5b506102d861061736600461269d565b6113d2565b34801561062857600080fd5b5061035e611435565b34801561063d57600080fd5b506102d861064c366004612861565b61143b565b34801561065d57600080fd5b506102d861066c366004612738565b61148d565b34801561067d57600080fd5b5061035e6114cc565b34801561069257600080fd5b506102ef6106a13660046128a7565b6114d2565b6102d86106b43660046128a7565b611598565b3480156106c557600080fd5b506102d86106d43660046128a7565b6117f8565b3480156106e557600080fd5b506102ad61183c565b3480156106fa57600080fd5b506102ad61070936600461269d565b611845565b34801561071a57600080fd5b506102ad6107293660046126c0565b61185a565b34801561073a57600080fd5b506102d86107493660046128a7565b611888565b34801561075a57600080fd5b506102d861076936600461269d565b6118db565b34801561077a57600080fd5b506102d86107893660046128a7565b61194c565b34801561079a57600080fd5b506102d86107a936600461269d565b611990565b3480156107ba57600080fd5b5061031c611ac4565b60006107ce82611ad3565b90505b919050565b6107de611af8565b6001600160a01b03166107ef610f97565b6001600160a01b03161461081e5760405162461bcd60e51b81526004016108159061316d565b60405180910390fd5b610826610a3e565b6012541015801561083b57506107d060125410155b6108575760405162461bcd60e51b815260040161081590612cc1565b60405160200161086690612a20565b60405160208183030381529060405280519060200120600d60405160200161088e9190612985565b6040516020818303038152906040528051906020012014156108c25760405162461bcd60e51b815260040161081590612d68565b6014805460ff19166001179055565b6060600080546108e0906134a6565b80601f016020809104026020016040519081016040528092919081815260200182805461090c906134a6565b80156109595780601f1061092e57610100808354040283529160200191610959565b820191906000526020600020905b81548152906001019060200180831161093c57829003601f168201915b5050505050905090565b600061096e82611afc565b61098a5760405162461bcd60e51b815260040161081590613121565b506000908152600460205260409020546001600160a01b031690565b60006109b182610d7e565b9050806001600160a01b0316836001600160a01b031614156109e55760405162461bcd60e51b81526004016108159061323a565b806001600160a01b03166109f7611af8565b6001600160a01b03161480610a135750610a1381610729611af8565b610a2f5760405162461bcd60e51b815260040161081590612f67565b610a398383611b19565b505050565b60085490565b60105481565b60125481565b610a61610a5b611af8565b82611b87565b610a7d5760405162461bcd60e51b81526004016108159061332f565b610a39838383611c0c565b6000610a9383610e55565b8210610ab15760405162461bcd60e51b815260040161081590612b4a565b506001600160a01b03919091166000908152600660209081526040808320938352929052205490565b610ae2611af8565b6001600160a01b0316610af3610f97565b6001600160a01b031614610b195760405162461bcd60e51b81526004016108159061316d565b610b21611d39565b565b610a398383836040518060200160405280600081525061148d565b6000610b48610a3e565b8210610b665760405162461bcd60e51b815260040161081590613380565b60088281548110610b8757634e487b7160e01b600052603260045260246000fd5b90600052602060002001549050919050565b60606000610ba683610e55565b905060008167ffffffffffffffff811115610bd157634e487b7160e01b600052604160045260246000fd5b604051908082528060200260200182016040528015610c0a57816020015b610bf761257a565b815260200190600190039081610bef5790505b50905060005b82811015610c82576000610c248683610a88565b90506040518060400160405280828152602001610c40836114d2565b815250838381518110610c6357634e487b7160e01b600052603260045260246000fd5b6020026020010181905250508080610c7a906134e1565b915050610c10565b509392505050565b610c92611af8565b6001600160a01b0316610ca3610f97565b6001600160a01b031614610cc95760405162461bcd60e51b81526004016108159061316d565b8051610cdc90600c906020840190612594565b5050565b600d8054610ced906134a6565b80601f0160208091040260200160405190810160405280929190818152602001828054610d19906134a6565b8015610d665780601f10610d3b57610100808354040283529160200191610d66565b820191906000526020600020905b815481529060010190602001808311610d4957829003601f168201915b505050505081565b600b54600160a01b900460ff1690565b6000818152600260205260408120546001600160a01b0316806107ce5760405162461bcd60e51b81526004016108159061300e565b610dbb611af8565b6001600160a01b0316610dcc610f97565b6001600160a01b031614610df25760405162461bcd60e51b81526004016108159061316d565b6014805460ff19169055565b600f5481565b610e0c611af8565b6001600160a01b0316610e1d610f97565b6001600160a01b031614610e435760405162461bcd60e51b81526004016108159061316d565b601055565b600c8054610ced906134a6565b60006001600160a01b038216610e7d5760405162461bcd60e51b815260040161081590612fc4565b506001600160a01b031660009081526003602052604090205490565b610ea1611af8565b6001600160a01b0316610eb2610f97565b6001600160a01b031614610ed85760405162461bcd60e51b81526004016108159061316d565b610b216000611daa565b610eea611af8565b6001600160a01b0316610efb610f97565b6001600160a01b031614610f215760405162461bcd60e51b81526004016108159061316d565b6040514790339082156108fc029083906000818181858888f19350505050158015610cdc573d6000803e3d6000fd5b610f58611af8565b6001600160a01b0316610f69610f97565b6001600160a01b031614610f8f5760405162461bcd60e51b81526004016108159061316d565b610b21611dfc565b600b546001600160a01b031690565b6060600180546108e0906134a6565b610fbd610d6e565b15610fda5760405162461bcd60e51b815260040161081590612ed4565b6002600a541415610ffd5760405162461bcd60e51b8152600401610815906133cc565b6002600a55600061100c610a3e565b9050600061101983611e5d565b90506000600c805461102a906134a6565b80601f0160208091040260200160405190810160405280929190818152602001828054611056906134a6565b80156110a35780601f10611078576101008083540402835291602001916110a3565b820191906000526020600020905b81548152906001019060200180831161108657829003601f168201915b50505050509050600084116110ca5760405162461bcd60e51b815260040161081590613057565b60135484111561111b60405180606001604052806022815260200161358c602291396110f7601354611e6d565b60405180604001604052806006815260200165206e4547477360d01b815250611f88565b906111395760405162461bcd60e51b81526004016108159190612b09565b50611142610f97565b6001600160a01b0316336001600160a01b03161461118e57600a8461116633610e55565b6111709190613418565b111561118e5760405162461bcd60e51b81526004016108159061327b565b60115461119b8585613418565b11156111b95760405162461bcd60e51b8152600401610815906130ce565b6111c1610f97565b6001600160a01b0316336001600160a01b031614611236573360009081526017602052604090205460ff1615156001146112365733318211156112165760405162461bcd60e51b815260040161081590612c2d565b813410156112365760405162461bcd60e51b815260040161081590612efe565b60005b8481101561129857600061124d6015611fb7565b905060006112638461125e84611e6d565b611fbb565b905061126f3383611fe7565b6112798282612001565b6112836015612020565b50508080611290906134e1565b915050611239565b50506001600a55505050565b6112ac611af8565b6001600160a01b0316826001600160a01b031614156112dd5760405162461bcd60e51b815260040161081590612de3565b80600560006112ea611af8565b6001600160a01b03908116825260208083019390935260409182016000908120918716808252919093529120805460ff19169215159290921790915561132e611af8565b6001600160a01b03167f17307eab39ab6107e8899845ad3d59bd9653f200f220920489ca2b5937696c31836040516113669190612afe565b60405180910390a35050565b61137a611af8565b6001600160a01b031661138b610f97565b6001600160a01b0316146113b15760405162461bcd60e51b81526004016108159061316d565b6001600160a01b03166000908152601760205260409020805460ff19169055565b6113da611af8565b6001600160a01b03166113eb610f97565b6001600160a01b0316146114115760405162461bcd60e51b81526004016108159061316d565b6001600160a01b03166000908152601760205260409020805460ff19166001179055565b60135481565b611443611af8565b6001600160a01b0316611454610f97565b6001600160a01b03161461147a5760405162461bcd60e51b81526004016108159061316d565b8051610cdc90600d906020840190612594565b61149e611498611af8565b83611b87565b6114ba5760405162461bcd60e51b81526004016108159061332f565b6114c684848484612029565b50505050565b60115481565b60606114dd82611afc565b6114f95760405162461bcd60e51b8152600401610815906131eb565b60008281526016602052604081208054611512906134a6565b80601f016020809104026020016040519081016040528092919081815260200182805461153e906134a6565b801561158b5780601f106115605761010080835404028352916020019161158b565b820191906000526020600020905b81548152906001019060200180831161156e57829003601f168201915b5093979650505050505050565b6115a0610d6e565b156115bd5760405162461bcd60e51b815260040161081590612ed4565b6002600a5414156115e05760405162461bcd60e51b8152600401610815906133cc565b6002600a55600d8054600091611680916115f9906134a6565b80601f0160208091040260200160405190810160405280929190818152602001828054611625906134a6565b80156116725780601f1061164757610100808354040283529160200191611672565b820191906000526020600020905b81548152906001019060200180831161165557829003601f168201915b505050505061125e84611e6d565b60145490915060ff1615156001146116aa5760405162461bcd60e51b815260040161081590612d10565b6107d08211156116cc5760405162461bcd60e51b815260040161081590612d3d565b60006116d961053b611af8565b116116f65760405162461bcd60e51b815260040161081590612e1a565b6116ff82610d7e565b6001600160a01b0316611710611af8565b6001600160a01b0316146117365760405162461bcd60e51b815260040161081590612e9d565b61173e610f97565b6001600160a01b0316336001600160a01b0316146117b7573360009081526017602052604090205460ff1615156001146117b757601054333110156117955760405162461bcd60e51b815260040161081590612c2d565b6010543410156117b75760405162461bcd60e51b8152600401610815906132c6565b6117ce33601254846117c99190613418565b611fe7565b6117e5601254836117df9190613418565b82612001565b6117ef6015612020565b50506001600a55565b611800611af8565b6001600160a01b0316611811610f97565b6001600160a01b0316146118375760405162461bcd60e51b81526004016108159061316d565b601355565b60145460ff1681565b60176020526000908152604090205460ff1681565b6001600160a01b03918216600090815260056020908152604080832093909416825291909152205460ff1690565b611890611af8565b6001600160a01b03166118a1610f97565b6001600160a01b0316146118c75760405162461bcd60e51b81526004016108159061316d565b6011548110156118d657600080fd5b601255565b6118e3611af8565b6001600160a01b03166118f4610f97565b6001600160a01b03161461191a5760405162461bcd60e51b81526004016108159061316d565b6001600160a01b0381166119405760405162461bcd60e51b815260040161081590612be7565b61194981611daa565b50565b611954611af8565b6001600160a01b0316611965610f97565b6001600160a01b03161461198b5760405162461bcd60e51b81526004016108159061316d565b600f55565b611998611af8565b6001600160a01b03166119a9610f97565b6001600160a01b0316146119cf5760405162461bcd60e51b81526004016108159061316d565b6040516370a0823160e01b81526001600160a01b0382169063a9059cbb90339083906370a0823190611a05903090600401612a23565b60206040518083038186803b158015611a1d57600080fd5b505afa158015611a31573d6000803e3d6000fd5b505050506040513d601f19601f82011682018060405250810190611a5591906128bf565b6040518363ffffffff1660e01b8152600401611a72929190612a74565b602060405180830381600087803b158015611a8c57600080fd5b505af1158015611aa0573d6000803e3d6000fd5b505050506040513d601f19601f82011682018060405250810190610cdc919061280d565b600e546001600160a01b031681565b60006001600160e01b0319821663780e9d6360e01b14806107ce57506107ce8261205c565b3390565b6000908152600260205260409020546001600160a01b0316151590565b600081815260046020526040902080546001600160a01b0319166001600160a01b0384169081179091558190611b4e82610d7e565b6001600160a01b03167f8c5be1e5ebec7d5bd14f71427d1e84f3dd0314c0f7b2291e5b200ac8c7c3b92560405160405180910390a45050565b6000611b9282611afc565b611bae5760405162461bcd60e51b815260040161081590612e51565b6000611bb983610d7e565b9050806001600160a01b0316846001600160a01b03161480611bf45750836001600160a01b0316611be984610963565b6001600160a01b0316145b80611c045750611c04818561185a565b949350505050565b826001600160a01b0316611c1f82610d7e565b6001600160a01b031614611c455760405162461bcd60e51b8152600401610815906131a2565b6001600160a01b038216611c6b5760405162461bcd60e51b815260040161081590612d9f565b611c7683838361209c565b611c81600082611b19565b6001600160a01b0383166000908152600360205260408120805460019290611caa908490613463565b90915550506001600160a01b0382166000908152600360205260408120805460019290611cd8908490613418565b909155505060008181526002602052604080822080546001600160a01b0319166001600160a01b0386811691821790925591518493918716917fddf252ad1be2c89b69c2b068fc378daa952ba7f163c4a11628f55a4df523b3ef91a4505050565b611d41610d6e565b611d5d5760405162461bcd60e51b815260040161081590612b1c565b600b805460ff60a01b191690557f5db9ee0a495bf2e6ff9c91a7834c1ba4fdd244a5e8aa4e537bd38aeae4b073aa611d93611af8565b604051611da09190612a23565b60405180910390a1565b600b80546001600160a01b038381166001600160a01b0319831681179093556040519116919082907f8be0079c531659141344cd1fd0a4f28419497f9722a3daafe3b4186f6b6457e090600090a35050565b611e04610d6e565b15611e215760405162461bcd60e51b815260040161081590612ed4565b600b805460ff60a01b1916600160a01b1790557f62e78cea01bee320cd4e420270b5ea74000d11b0c9f74754ebdbfc544b05a258611d93611af8565b600081600f546107ce9190613444565b606081611e9257506040805180820190915260018152600360fc1b60208201526107d1565b8160005b8115611ebc5780611ea6816134e1565b9150611eb59050600a83613430565b9150611e96565b60008167ffffffffffffffff811115611ee557634e487b7160e01b600052604160045260246000fd5b6040519080825280601f01601f191660200182016040528015611f0f576020820181803683370190505b5090505b8415611c0457611f24600183613463565b9150611f31600a866134fc565b611f3c906030613418565b60f81b818381518110611f5f57634e487b7160e01b600052603260045260246000fd5b60200101906001600160f81b031916908160001a905350611f81600a86613430565b9450611f13565b6060838383604051602001611f9f93929190612903565b60405160208183030381529060405290509392505050565b5490565b60608282604051602001611fd0929190612946565b604051602081830303815290604052905092915050565b610cdc8282604051806020016040528060008152506120a7565b60008281526016602090815260409091208251610a3992840190612594565b80546001019055565b612034848484611c0c565b612040848484846120da565b6114c65760405162461bcd60e51b815260040161081590612b95565b60006001600160e01b031982166380ac58cd60e01b148061208d57506001600160e01b03198216635b5e139f60e01b145b806107ce57506107ce826121f5565b610a3983838361220e565b6120b18383612297565b6120be60008484846120da565b610a395760405162461bcd60e51b815260040161081590612b95565b60006120ee846001600160a01b0316612376565b156121ea57836001600160a01b031663150b7a0261210a611af8565b8786866040518563ffffffff1660e01b815260040161212c9493929190612a37565b602060405180830381600087803b15801561214657600080fd5b505af1925050508015612176575060408051601f3d908101601f1916820190925261217391810190612845565b60015b6121d0573d8080156121a4576040519150601f19603f3d011682016040523d82523d6000602084013e6121a9565b606091505b5080516121c85760405162461bcd60e51b815260040161081590612b95565b805181602001fd5b6001600160e01b031916630a85bd0160e11b149050611c04565b506001949350505050565b6001600160e01b031981166301ffc9a760e01b14919050565b612219838383610a39565b6001600160a01b038316612235576122308161237c565b612258565b816001600160a01b0316836001600160a01b0316146122585761225883826123c0565b6001600160a01b0382166122745761226f8161245d565b610a39565b826001600160a01b0316826001600160a01b031614610a3957610a398282612536565b6001600160a01b0382166122bd5760405162461bcd60e51b815260040161081590613099565b6122c681611afc565b156122e35760405162461bcd60e51b815260040161081590612c8a565b6122ef6000838361209c565b6001600160a01b0382166000908152600360205260408120805460019290612318908490613418565b909155505060008181526002602052604080822080546001600160a01b0319166001600160a01b03861690811790915590518392907fddf252ad1be2c89b69c2b068fc378daa952ba7f163c4a11628f55a4df523b3ef908290a45050565b3b151590565b600880546000838152600960205260408120829055600182018355919091527ff3f7a9fe364faab93b216da50a3214154f22a0a2b415b23a84c8169e8b636ee30155565b600060016123cd84610e55565b6123d79190613463565b60008381526007602052604090205490915080821461242a576001600160a01b03841660009081526006602090815260408083208584528252808320548484528184208190558352600790915290208190555b5060009182526007602090815260408084208490556001600160a01b039094168352600681528383209183525290812055565b60085460009061246f90600190613463565b600083815260096020526040812054600880549394509092849081106124a557634e487b7160e01b600052603260045260246000fd5b9060005260206000200154905080600883815481106124d457634e487b7160e01b600052603260045260246000fd5b600091825260208083209091019290925582815260099091526040808220849055858252812055600880548061251a57634e487b7160e01b600052603160045260246000fd5b6001900381819060005260206000200160009055905550505050565b600061254183610e55565b6001600160a01b039093166000908152600660209081526040808320868452825280832085905593825260079052919091209190915550565b604051806040016040528060008152602001606081525090565b8280546125a0906134a6565b90600052602060002090601f0160209004810192826125c25760008555612608565b82601f106125db57805160ff1916838001178555612608565b82800160010185558215612608579182015b828111156126085782518255916020019190600101906125ed565b50612614929150612618565b5090565b5b808211156126145760008155600101612619565b600067ffffffffffffffff808411156126485761264861353c565b604051601f8501601f19168101602001828111828210171561266c5761266c61353c565b60405284815291508183850186101561268457600080fd5b8484602083013760006020868301015250509392505050565b6000602082840312156126ae578081fd5b81356126b981613552565b9392505050565b600080604083850312156126d2578081fd5b82356126dd81613552565b915060208301356126ed81613552565b809150509250929050565b60008060006060848603121561270c578081fd5b833561271781613552565b9250602084013561272781613552565b929592945050506040919091013590565b6000806000806080858703121561274d578081fd5b843561275881613552565b9350602085013561276881613552565b925060408501359150606085013567ffffffffffffffff81111561278a578182fd5b8501601f8101871361279a578182fd5b6127a98782356020840161262d565b91505092959194509250565b600080604083850312156127c7578182fd5b82356127d281613552565b915060208301356126ed81613567565b600080604083850312156127f4578182fd5b82356127ff81613552565b946020939093013593505050565b60006020828403121561281e578081fd5b81516126b981613567565b60006020828403121561283a578081fd5b81356126b981613575565b600060208284031215612856578081fd5b81516126b981613575565b600060208284031215612872578081fd5b813567ffffffffffffffff811115612888578182fd5b8201601f81018413612898578182fd5b611c048482356020840161262d565b6000602082840312156128b8578081fd5b5035919050565b6000602082840312156128d0578081fd5b5051919050565b600081518084526128ef81602086016020860161347a565b601f01601f19169290920160200192915050565b6000845161291581846020890161347a565b84519083019061292981836020890161347a565b845191019061293c81836020880161347a565b0195945050505050565b6000835161295881846020880161347a565b83519083019061296c81836020880161347a565b64173539b7b760d91b9101908152600501949350505050565b81546000908190600281046001808316806129a157607f831692505b60208084108214156129c157634e487b7160e01b87526022600452602487fd5b8180156129d557600181146129e657612a12565b60ff19861689528489019650612a12565b6129ef8a61340c565b885b86811015612a0a5781548b8201529085019083016129f1565b505084890196505b509498975050505050505050565b90565b6001600160a01b0391909116815260200190565b6001600160a01b0385811682528416602082015260408101839052608060608201819052600090612a6a908301846128d7565b9695505050505050565b6001600160a01b03929092168252602082015260400190565b60208082528251828201819052600091906040908185019080840286018301878501865b83811015612af057888303603f19018552815180518452870151878401879052612add878501826128d7565b9588019593505090860190600101612ab1565b509098975050505050505050565b901515815260200190565b6000602082526126b960208301846128d7565b60208082526014908201527314185d5cd8589b194e881b9bdd081c185d5cd95960621b604082015260600190565b6020808252602b908201527f455243373231456e756d657261626c653a206f776e657220696e646578206f7560408201526a74206f6620626f756e647360a81b606082015260800190565b60208082526032908201527f4552433732313a207472616e7366657220746f206e6f6e20455243373231526560408201527131b2b4bb32b91034b6b83632b6b2b73a32b960711b606082015260800190565b60208082526026908201527f4f776e61626c653a206e6577206f776e657220697320746865207a65726f206160408201526564647265737360d01b606082015260800190565b6020808252603a908201527f596f75722077616c6c657420646f65736e2774206861766520656e6f7567682060408201527f4d4154494320666f7220796f7572207472616e73616374696f6e000000000000606082015260800190565b6020808252601c908201527f4552433732313a20746f6b656e20616c7265616479206d696e74656400000000604082015260600190565b6020808252602f908201527f67656e5374617274206d75737420626520686967686572207468616e2074686560408201526e2063757272656e7420737570706c7960881b606082015260800190565b6020808252601390820152724861746368696e67206e6f742061637469766560681b604082015260600190565b6020808252601190820152706e454747206f7574206f662072616e676560781b604082015260600190565b6020808252601c908201527f52656d656d62657220746f207365742074686520686174636855524900000000604082015260600190565b60208082526024908201527f4552433732313a207472616e7366657220746f20746865207a65726f206164646040820152637265737360e01b606082015260800190565b60208082526019908201527f4552433732313a20617070726f766520746f2063616c6c657200000000000000604082015260600190565b6020808252601f908201527f6e454747206e656564656420746f2062652061626c6520746f20686174636800604082015260600190565b6020808252602c908201527f4552433732313a206f70657261746f7220717565727920666f72206e6f6e657860408201526b34b9ba32b73a103a37b5b2b760a11b606082015260800190565b60208082526017908201527f596f7520646f6e2774206f776e2074686973206e454747000000000000000000604082015260600190565b60208082526010908201526f14185d5cd8589b194e881c185d5cd95960821b604082015260600190565b60208082526043908201527f596f7520686176656e27742073656e7420656e6f756768204d4154494320696e60408201527f20746865207472616e73616374696f6e20746f206d696e7420796f7572206e4560608201526247477360e81b608082015260a00190565b60208082526038908201527f4552433732313a20617070726f76652063616c6c6572206973206e6f74206f7760408201527f6e6572206e6f7220617070726f76656420666f7220616c6c0000000000000000606082015260800190565b6020808252602a908201527f4552433732313a2062616c616e636520717565727920666f7220746865207a65604082015269726f206164647265737360b01b606082015260800190565b60208082526029908201527f4552433732313a206f776e657220717565727920666f72206e6f6e657869737460408201526832b73a103a37b5b2b760b91b606082015260800190565b60208082526022908201527f4d696e7420616d6f756e74206d7573742062652067726561746572207468616e604082015261020360f41b606082015260800190565b6020808252818101527f4552433732313a206d696e7420746f20746865207a65726f2061646472657373604082015260600190565b60208082526033908201527f596f7527726520747279696e6720746f206d696e74206d6f7265206e45474773604082015272207468616e2077652068617665206c6566742160681b606082015260800190565b6020808252602c908201527f4552433732313a20617070726f76656420717565727920666f72206e6f6e657860408201526b34b9ba32b73a103a37b5b2b760a11b606082015260800190565b6020808252818101527f4f776e61626c653a2063616c6c6572206973206e6f7420746865206f776e6572604082015260600190565b60208082526029908201527f4552433732313a207472616e73666572206f6620746f6b656e2074686174206960408201526839903737ba1037bbb760b91b606082015260800190565b6020808252602f908201527f4552433732314d657461646174613a2055524920717565727920666f72206e6f60408201526e3732bc34b9ba32b73a103a37b5b2b760891b606082015260800190565b60208082526021908201527f4552433732313a20617070726f76616c20746f2063757272656e74206f776e656040820152603960f91b606082015260800190565b6020808252602b908201527f596f752063616e206f6e6c79206d696e7420757020746f203130206e4547477360408201526a081c195c881dd85b1b195d60aa1b606082015260800190565b60208082526043908201527f596f7520686176656e27742073656e7420656e6f756768204d4154494320696e60408201527f20746865207472616e73616374696f6e20746f20686174636820796f7572206e60608201526245474760e81b608082015260a00190565b60208082526031908201527f4552433732313a207472616e736665722063616c6c6572206973206e6f74206f6040820152701ddb995c881b9bdc88185c1c1c9bdd9959607a1b606082015260800190565b6020808252602c908201527f455243373231456e756d657261626c653a20676c6f62616c20696e646578206f60408201526b7574206f6620626f756e647360a01b606082015260800190565b6020808252601f908201527f5265656e7472616e637947756172643a207265656e7472616e742063616c6c00604082015260600190565b90815260200190565b60009081526020902090565b6000821982111561342b5761342b613510565b500190565b60008261343f5761343f613526565b500490565b600081600019048311821515161561345e5761345e613510565b500290565b60008282101561347557613475613510565b500390565b60005b8381101561349557818101518382015260200161347d565b838111156114c65750506000910152565b6002810460018216806134ba57607f821691505b602082108114156134db57634e487b7160e01b600052602260045260246000fd5b50919050565b60006000198214156134f5576134f5613510565b5060010190565b60008261350b5761350b613526565b500690565b634e487b7160e01b600052601160045260246000fd5b634e487b7160e01b600052601260045260246000fd5b634e487b7160e01b600052604160045260246000fd5b6001600160a01b038116811461194957600080fd5b801515811461194957600080fd5b6001600160e01b03198116811461194957600080fdfe596f752063616e2063757272656e746c79206f6e6c79206d696e7420757020746f20a26469706673582212203274c7bbd3598c8e67e3d51a568eeb8545bbfbcdcd92d15040cf6850cf52959e64736f6c63430008000033",
  "linkReferences": {},
  "deployedLinkReferences": {}
}